{
  "contractName": "E_loto",
  "abi": [
    {
      "inputs": [],
      "payable": false,
      "stateMutability": "nonpayable",
      "type": "constructor"
    },
    {
      "constant": true,
      "inputs": [
        {
          "internalType": "address",
          "name": "",
          "type": "address"
        }
      ],
      "name": "balances",
      "outputs": [
        {
          "internalType": "uint256",
          "name": "",
          "type": "uint256"
        }
      ],
      "payable": false,
      "stateMutability": "view",
      "type": "function"
    },
    {
      "constant": true,
      "inputs": [
        {
          "internalType": "bytes32",
          "name": "",
          "type": "bytes32"
        }
      ],
      "name": "games",
      "outputs": [
        {
          "internalType": "uint256",
          "name": "stakesTotal",
          "type": "uint256"
        }
      ],
      "payable": false,
      "stateMutability": "view",
      "type": "function"
    },
    {
      "constant": false,
      "inputs": [
        {
          "internalType": "uint8",
          "name": "_bet",
          "type": "uint8"
        }
      ],
      "name": "placeStake",
      "outputs": [],
      "payable": true,
      "stateMutability": "payable",
      "type": "function"
    },
    {
      "constant": false,
      "inputs": [],
      "name": "determineWinners",
      "outputs": [],
      "payable": false,
      "stateMutability": "nonpayable",
      "type": "function"
    },
    {
      "constant": false,
      "inputs": [],
      "name": "withdraw",
      "outputs": [],
      "payable": false,
      "stateMutability": "nonpayable",
      "type": "function"
    }
  ],
  "bytecode": "0x608060405234801561001057600080fd5b5043600081905550610b59806100276000396000f3fe60806040526004361061004a5760003560e01c806321ceaaa41461004f57806327e235e3146100805780633ccfd60b146100e55780635cdaa6eb146100fc578063f579f88214610113575b600080fd5b61007e6004803603602081101561006557600080fd5b81019080803560ff169060200190929190505050610162565b005b34801561008c57600080fd5b506100cf600480360360208110156100a357600080fd5b81019080803573ffffffffffffffffffffffffffffffffffffffff1690602001909291905050506104d3565b6040518082815260200191505060405180910390f35b3480156100f157600080fd5b506100fa6104eb565b005b34801561010857600080fd5b506101116105be565b005b34801561011f57600080fd5b5061014c6004803603602081101561013657600080fd5b8101908080359060200190929190505050610860565b6040518082815260200191505060405180910390f35b80600a8160ff16106101dc576040517f08c379a000000000000000000000000000000000000000000000000000000000815260040180806020018281038252600e8152602001807f426574206973276e2076616c696400000000000000000000000000000000000081525060200191505060405180910390fd5b61271060005401431061023a576040517f08c379a0000000000000000000000000000000000000000000000000000000008152600401808060200182810382526022815260200180610b036022913960400191505060405180910390fd5b66354a6ba7a1800034146102b6576040517f08c379a000000000000000000000000000000000000000000000000000000000815260040180806020018281038252601f8152602001807f5374616b65206d75737420626520657175616c20302e3031352065746865720081525060200191505060405180910390fd5b600060036000600154815260200190815260200160002090508060000160003373ffffffffffffffffffffffffffffffffffffffff1673ffffffffffffffffffffffffffffffffffffffff16815260200190815260200160002060009054906101000a900460ff1615610391576040517f08c379a00000000000000000000000000000000000000000000000000000000081526004018080602001828103825260208152602001807f596f75206861766520616c726561647920706c6163656420796f75722062657481525060200191505060405180910390fd5b60018160000160003373ffffffffffffffffffffffffffffffffffffffff1673ffffffffffffffffffffffffffffffffffffffff16815260200190815260200160002060006101000a81548160ff02191690831515021790555061040234826003015461087e90919063ffffffff16565b81600301819055508060010160405180604001604052803373ffffffffffffffffffffffffffffffffffffffff1681526020018560ff1681525090806001815401808255809150509060018203906000526020600020016000909192909190915060008201518160000160006101000a81548173ffffffffffffffffffffffffffffffffffffffff021916908373ffffffffffffffffffffffffffffffffffffffff16021790555060208201518160000160146101000a81548160ff021916908360ff160217905550505050505050565b60026020528060005260406000206000915090505481565b6000600260003373ffffffffffffffffffffffffffffffffffffffff1673ffffffffffffffffffffffffffffffffffffffff1681526020019081526020016000205490506000600260003373ffffffffffffffffffffffffffffffffffffffff1673ffffffffffffffffffffffffffffffffffffffff168152602001908152602001600020819055503373ffffffffffffffffffffffffffffffffffffffff166108fc829081150290604051600060405180830381858888f193505050501580156105ba573d6000803e3d6000fd5b5050565b6127106000540143101561063a576040517f08c379a000000000000000000000000000000000000000000000000000000000815260040180806020018281038252600f8152602001807f47616d65206973206e6f7420656e64000000000000000000000000000000000081525060200191505060405180910390fd5b60006003600060015481526020019081526020016000209050600061065d610906565b905060008090505b826001018054905081101561075a578183600101828154811061068457fe5b9060005260206000200160000160149054906101000a900460ff1660ff16141561074d57826002018360010182815481106106bb57fe5b9060005260206000200160000160009054906101000a900473ffffffffffffffffffffffffffffffffffffffff1690806001815401808255809150509060018203906000526020600020016000909192909190916101000a81548173ffffffffffffffffffffffffffffffffffffffff021916908373ffffffffffffffffffffffffffffffffffffffff160217905550505b8080600101915050610665565b5060008260020180549050111561082657600061078283600301548460020180549050610955565b905060008090505b83600201805490508110156108235781600260008660020184815481106107ad57fe5b9060005260206000200160009054906101000a900473ffffffffffffffffffffffffffffffffffffffff1673ffffffffffffffffffffffffffffffffffffffff1673ffffffffffffffffffffffffffffffffffffffff16815260200190815260200160002081905550808060010191505061078a565b50505b4360008190555060005460405160200180828152602001915050604051602081830303815290604052805190602001206001819055505050565b60036020528060005260406000206000915090508060030154905081565b6000808284019050838110156108fc576040517f08c379a000000000000000000000000000000000000000000000000000000000815260040180806020018281038252601b8152602001807f536166654d6174683a206164646974696f6e206f766572666c6f77000000000081525060200191505060405180910390fd5b8091505092915050565b60006009424443406040516020018084815260200183815260200182815260200193505050506040516020818303038152906040528051906020012060001c8161094c57fe5b0660ff16905090565b6000808214156109b0576040517f08c379a0000000000000000000000000000000000000000000000000000000008152600401808060200182810382526027815260200180610adc6027913960400191505060405180910390fd5b6109c382846109cb90919063ffffffff16565b905092915050565b6000610a0d83836040518060400160405280601a81526020017f536166654d6174683a206469766973696f6e206279207a65726f000000000000815250610a15565b905092915050565b60008083118290610ac1576040517f08c379a00000000000000000000000000000000000000000000000000000000081526004018080602001828103825283818151815260200191508051906020019080838360005b83811015610a86578082015181840152602081019050610a6b565b50505050905090810190601f168015610ab35780820380516001836020036101000a031916815260200191505b509250505060405180910390fd5b506000838581610acd57fe5b04905080915050939250505056fe57696e6e65727320616d6f756e742063616e206e6f7420626520657175616c20746f207a65726f5468657265206973206e6f20706c61636520666f72206f6e65206d6f726520626574a265627a7a7231582049fd218e403e115568a80e1509e1800992cfeeed93bca7057f68c2b34c8f0c0864736f6c63430005100032",
  "source": "pragma solidity >=0.4.21 <0.7.0;\n\nimport \"@openzeppelin/contracts/math/SafeMath.sol\";\n\ncontract E_loto {\n    using SafeMath for uint256;\n    uint256 constant gameInterval = 10000;\n\n    uint256 blockNumber;\n    bytes32 gameId;\n\n    struct Game {\n        mapping(address => bool) isAlreadyBet;\n        Staker[] stakers;\n        address[] winners;\n        uint256 stakesTotal;\n    }\n\n    struct Staker {\n        address account;\n        uint8 bet;\n    }\n\n    mapping(address => uint256) public balances;\n    mapping(bytes32 => Game) public games;\n\n    modifier onlyValidBet(uint8 _bet) {\n        require(_bet < 10, \"Bet is'n valid\");\n        _;\n    }\n\n    constructor() public {\n        blockNumber = block.number;\n    }\n\n    function placeStake(uint8 _bet) public payable onlyValidBet(_bet) {\n        require(\n            block.number < blockNumber + gameInterval,\n            \"There is no place for one more bet\"\n        );\n        require(\n            msg.value == 15000000000000000,\n            \"Stake must be equal 0.015 ether\"\n        );\n\n        Game storage game = games[gameId];\n\n        require(\n            !game.isAlreadyBet[msg.sender],\n            \"You have already placed your bet\"\n        );\n\n        game.isAlreadyBet[msg.sender] = true;\n        game.stakesTotal = game.stakesTotal.add(msg.value);\n        game.stakers.push(Staker(msg.sender, _bet));\n    }\n\n    function determineWinners() public {\n        require(block.number >= blockNumber + gameInterval, \"Game is not end\");\n\n        Game storage game = games[gameId];\n        uint256 winningNumber = generateWinningMumber();\n\n        for (uint256 i = 0; i < game.stakers.length; i++) {\n            if (game.stakers[i].bet == winningNumber) {\n                game.winners.push(game.stakers[i].account);\n            }\n        }\n\n        if (game.winners.length > 0) {\n            uint256 rewardAmount = determineRewardAmount(\n                game.stakesTotal,\n                game.winners.length\n            );\n\n            for (uint256 j = 0; j < game.winners.length; j++) {\n                balances[game.winners[j]] = rewardAmount;\n            }\n        }\n\n        blockNumber = block.number;\n        gameId = keccak256(abi.encodePacked(blockNumber));\n    }\n\n    function withdraw() public {\n        uint256 amount = balances[msg.sender];\n        balances[msg.sender] = 0;\n        msg.sender.transfer(amount);\n    }\n\n    function determineRewardAmount(uint256 _stakesTotal, uint256 _winnersAmount)\n        private\n        pure\n        returns (uint256)\n    {\n        require(_winnersAmount != 0, \"Winners amount can not be equal to zero\");\n        return _stakesTotal.div(_winnersAmount);\n    }\n\n    // TODO: find more secure way to generate random number\n    function generateWinningMumber() private view returns (uint256) {\n        return\n            uint8(\n                uint256(\n                    keccak256(\n                        abi.encodePacked(\n                            block.timestamp,\n                            block.difficulty,\n                            blockhash(block.number)\n                        )\n                    )\n                ) %\n                    9\n            );\n    }\n}\n",
  "sourcePath": "/Users/denis/Documents/_Workspace/e-loto/truffle/contracts/E_loto.sol",
  "compiler": {
    "name": "solc",
    "version": "0.5.16+commit.9c3226ce.Emscripten.clang"
  },
  "schemaVersion": "3.0.22",
  "updatedAt": "2020-02-21T11:56:12.246Z",
  "devdoc": {
    "methods": {}
  },
  "userdoc": {
    "methods": {}
  }
}