{
  "contractName": "E_loto",
  "abi": [
    {
      "inputs": [
        {
          "internalType": "uint256",
          "name": "_gameIntervalInSeconds",
          "type": "uint256"
        },
        {
          "internalType": "uint256",
          "name": "_provableCustomGasLimit",
          "type": "uint256"
        }
      ],
      "payable": true,
      "stateMutability": "payable",
      "type": "constructor"
    },
    {
      "anonymous": false,
      "inputs": [
        {
          "indexed": false,
          "internalType": "bytes32",
          "name": "_gameId",
          "type": "bytes32"
        }
      ],
      "name": "NewGameId",
      "type": "event"
    },
    {
      "anonymous": false,
      "inputs": [
        {
          "indexed": false,
          "internalType": "string",
          "name": "_description",
          "type": "string"
        }
      ],
      "name": "NewProvableQuery",
      "type": "event"
    },
    {
      "anonymous": false,
      "inputs": [
        {
          "indexed": false,
          "internalType": "bytes32",
          "name": "_gameId",
          "type": "bytes32"
        },
        {
          "indexed": true,
          "internalType": "address",
          "name": "_staker",
          "type": "address"
        },
        {
          "indexed": true,
          "internalType": "uint8",
          "name": "_bet",
          "type": "uint8"
        }
      ],
      "name": "NewStake",
      "type": "event"
    },
    {
      "anonymous": false,
      "inputs": [
        {
          "indexed": false,
          "internalType": "bytes32",
          "name": "_gameId",
          "type": "bytes32"
        },
        {
          "indexed": false,
          "internalType": "address",
          "name": "_winner",
          "type": "address"
        },
        {
          "indexed": false,
          "internalType": "uint256",
          "name": "_rewardAmount",
          "type": "uint256"
        }
      ],
      "name": "NewWinner",
      "type": "event"
    },
    {
      "anonymous": false,
      "inputs": [
        {
          "indexed": false,
          "internalType": "bytes32",
          "name": "_gameId",
          "type": "bytes32"
        },
        {
          "indexed": false,
          "internalType": "uint8",
          "name": "_winningNumber",
          "type": "uint8"
        }
      ],
      "name": "NewWinningNumber",
      "type": "event"
    },
    {
      "anonymous": false,
      "inputs": [
        {
          "indexed": false,
          "internalType": "bytes32",
          "name": "_gameId",
          "type": "bytes32"
        },
        {
          "indexed": false,
          "internalType": "string",
          "name": "_description",
          "type": "string"
        }
      ],
      "name": "NoStakes",
      "type": "event"
    },
    {
      "anonymous": false,
      "inputs": [
        {
          "indexed": false,
          "internalType": "bytes32",
          "name": "_gameId",
          "type": "bytes32"
        },
        {
          "indexed": false,
          "internalType": "string",
          "name": "_description",
          "type": "string"
        },
        {
          "indexed": true,
          "internalType": "uint8",
          "name": "_winningNumber",
          "type": "uint8"
        }
      ],
      "name": "NoWinners",
      "type": "event"
    },
    {
      "anonymous": false,
      "inputs": [
        {
          "indexed": true,
          "internalType": "address",
          "name": "previousOwner",
          "type": "address"
        },
        {
          "indexed": true,
          "internalType": "address",
          "name": "newOwner",
          "type": "address"
        }
      ],
      "name": "OwnershipTransferred",
      "type": "event"
    },
    {
      "payable": true,
      "stateMutability": "payable",
      "type": "fallback"
    },
    {
      "constant": true,
      "inputs": [
        {
          "internalType": "address",
          "name": "",
          "type": "address"
        }
      ],
      "name": "balances",
      "outputs": [
        {
          "internalType": "uint256",
          "name": "",
          "type": "uint256"
        }
      ],
      "payable": false,
      "stateMutability": "view",
      "type": "function"
    },
    {
      "constant": true,
      "inputs": [],
      "name": "contractBounty",
      "outputs": [
        {
          "internalType": "uint256",
          "name": "",
          "type": "uint256"
        }
      ],
      "payable": false,
      "stateMutability": "view",
      "type": "function"
    },
    {
      "constant": true,
      "inputs": [],
      "name": "gameId",
      "outputs": [
        {
          "internalType": "bytes32",
          "name": "",
          "type": "bytes32"
        }
      ],
      "payable": false,
      "stateMutability": "view",
      "type": "function"
    },
    {
      "constant": true,
      "inputs": [],
      "name": "gameIntervalInSeconds",
      "outputs": [
        {
          "internalType": "uint256",
          "name": "",
          "type": "uint256"
        }
      ],
      "payable": false,
      "stateMutability": "view",
      "type": "function"
    },
    {
      "constant": true,
      "inputs": [
        {
          "internalType": "bytes32",
          "name": "",
          "type": "bytes32"
        }
      ],
      "name": "games",
      "outputs": [
        {
          "internalType": "uint256",
          "name": "stakesTotal",
          "type": "uint256"
        },
        {
          "internalType": "bool",
          "name": "isClosed",
          "type": "bool"
        }
      ],
      "payable": false,
      "stateMutability": "view",
      "type": "function"
    },
    {
      "constant": true,
      "inputs": [],
      "name": "isOwner",
      "outputs": [
        {
          "internalType": "bool",
          "name": "",
          "type": "bool"
        }
      ],
      "payable": false,
      "stateMutability": "view",
      "type": "function"
    },
    {
      "constant": true,
      "inputs": [],
      "name": "owner",
      "outputs": [
        {
          "internalType": "address",
          "name": "",
          "type": "address"
        }
      ],
      "payable": false,
      "stateMutability": "view",
      "type": "function"
    },
    {
      "constant": true,
      "inputs": [
        {
          "internalType": "bytes32",
          "name": "",
          "type": "bytes32"
        }
      ],
      "name": "pendingQueries",
      "outputs": [
        {
          "internalType": "bool",
          "name": "",
          "type": "bool"
        }
      ],
      "payable": false,
      "stateMutability": "view",
      "type": "function"
    },
    {
      "constant": true,
      "inputs": [],
      "name": "provableBalance",
      "outputs": [
        {
          "internalType": "uint256",
          "name": "",
          "type": "uint256"
        }
      ],
      "payable": false,
      "stateMutability": "view",
      "type": "function"
    },
    {
      "constant": true,
      "inputs": [],
      "name": "provableCustomGasLimit",
      "outputs": [
        {
          "internalType": "uint256",
          "name": "",
          "type": "uint256"
        }
      ],
      "payable": false,
      "stateMutability": "view",
      "type": "function"
    },
    {
      "constant": false,
      "inputs": [],
      "name": "renounceOwnership",
      "outputs": [],
      "payable": false,
      "stateMutability": "nonpayable",
      "type": "function"
    },
    {
      "constant": false,
      "inputs": [
        {
          "internalType": "address",
          "name": "newOwner",
          "type": "address"
        }
      ],
      "name": "transferOwnership",
      "outputs": [],
      "payable": false,
      "stateMutability": "nonpayable",
      "type": "function"
    },
    {
      "constant": false,
      "inputs": [
        {
          "internalType": "bytes32",
          "name": "_queryId",
          "type": "bytes32"
        },
        {
          "internalType": "string",
          "name": "_resultRandom",
          "type": "string"
        }
      ],
      "name": "__callback",
      "outputs": [],
      "payable": false,
      "stateMutability": "nonpayable",
      "type": "function"
    },
    {
      "constant": false,
      "inputs": [
        {
          "internalType": "bytes32",
          "name": "_myid",
          "type": "bytes32"
        },
        {
          "internalType": "string",
          "name": "_result",
          "type": "string"
        },
        {
          "internalType": "bytes",
          "name": "_proof",
          "type": "bytes"
        }
      ],
      "name": "__callback",
      "outputs": [],
      "payable": false,
      "stateMutability": "nonpayable",
      "type": "function"
    },
    {
      "constant": false,
      "inputs": [],
      "name": "queryNextWinningNumber",
      "outputs": [],
      "payable": true,
      "stateMutability": "payable",
      "type": "function"
    },
    {
      "constant": false,
      "inputs": [
        {
          "internalType": "uint8",
          "name": "_bet",
          "type": "uint8"
        }
      ],
      "name": "placeStake",
      "outputs": [],
      "payable": true,
      "stateMutability": "payable",
      "type": "function"
    },
    {
      "constant": false,
      "inputs": [
        {
          "internalType": "uint256",
          "name": "_gameIntervalInSeconds",
          "type": "uint256"
        }
      ],
      "name": "updateGameInterval",
      "outputs": [],
      "payable": false,
      "stateMutability": "nonpayable",
      "type": "function"
    },
    {
      "constant": false,
      "inputs": [
        {
          "internalType": "uint256",
          "name": "_provableCustomGasLimit",
          "type": "uint256"
        }
      ],
      "name": "updateProvableCustomGasLimit",
      "outputs": [],
      "payable": false,
      "stateMutability": "nonpayable",
      "type": "function"
    },
    {
      "constant": false,
      "inputs": [],
      "name": "withdraw",
      "outputs": [],
      "payable": false,
      "stateMutability": "nonpayable",
      "type": "function"
    },
    {
      "constant": false,
      "inputs": [],
      "name": "withdrawBounty",
      "outputs": [],
      "payable": false,
      "stateMutability": "nonpayable",
      "type": "function"
    }
  ],
  "bytecode": "0x608060405260405162004d4238038062004d42833981810160405260408110156200002957600080fd5b8101908080519060200190929190805190602001909291905050506000620000566200012160201b60201c565b9050806000806101000a81548173ffffffffffffffffffffffffffffffffffffffff021916908373ffffffffffffffffffffffffffffffffffffffff1602179055508073ffffffffffffffffffffffffffffffffffffffff16600073ffffffffffffffffffffffffffffffffffffffff167f8be0079c531659141344cd1fd0a4f28419497f9722a3daafe3b4186f6b6457e060405160405180910390a350816006819055508060078190555034600981905550620001196200012960201b60201c565b505062001871565b600033905090565b62000139620003fa60201b60201c565b73ffffffffffffffffffffffffffffffffffffffff163373ffffffffffffffffffffffffffffffffffffffff1614806200019e57503073ffffffffffffffffffffffffffffffffffffffff163373ffffffffffffffffffffffffffffffffffffffff16145b80620001e45750620001b56200073660201b60201c565b73ffffffffffffffffffffffffffffffffffffffff163373ffffffffffffffffffffffffffffffffffffffff16145b6200023b576040517f08c379a000000000000000000000000000000000000000000000000000000000815260040180806020018281038252603181526020018062004d116031913960400191505060405180910390fd5b6000620002866040518060400160405280600c81526020017f576f6c6672616d416c70686100000000000000000000000000000000000000008152506007546200075f60201b60201c565b9050600954811115620002e5577f4cd3e05558dc434b7b222972fa66803efd137976460dd5bd71d67fdf40195be460405180806020018281038252604b81526020018062004cc6604b913960600191505060405180910390a1620003f7565b620003018160095462000b1b60201b62001d621790919060201c565b600981905550620003896006546040518060400160405280600c81526020017f576f6c6672616d416c70686100000000000000000000000000000000000000008152506040518060400160405280601d81526020017f72616e646f6d206e756d626572206265747765656e203020616e64203900000081525060075462000b6d60201b60201c565b600a819055507f1f9f045be251312695005a76565fe1b87fe07e25b124d276476e5da89b3b8c83600a546040518082815260200191505060405180910390a16001600d6000600a54815260200190815260200160002060006101000a81548160ff0219169083151502179055505b50565b60008073ffffffffffffffffffffffffffffffffffffffff16600260009054906101000a900473ffffffffffffffffffffffffffffffffffffffff1673ffffffffffffffffffffffffffffffffffffffff1614806200048b5750600062000489600260009054906101000a900473ffffffffffffffffffffffffffffffffffffffff16620010ef60201b60201c565b145b15620004a557620004a36000620010fa60201b60201c565b505b600260009054906101000a900473ffffffffffffffffffffffffffffffffffffffff1673ffffffffffffffffffffffffffffffffffffffff166338cc48316040518163ffffffff1660e01b8152600401602060405180830381600087803b1580156200051057600080fd5b505af115801562000525573d6000803e3d6000fd5b505050506040513d60208110156200053c57600080fd5b810190808051906020019092919050505073ffffffffffffffffffffffffffffffffffffffff16600160009054906101000a900473ffffffffffffffffffffffffffffffffffffffff1673ffffffffffffffffffffffffffffffffffffffff16146200068b57600260009054906101000a900473ffffffffffffffffffffffffffffffffffffffff1673ffffffffffffffffffffffffffffffffffffffff166338cc48316040518163ffffffff1660e01b8152600401602060405180830381600087803b1580156200060d57600080fd5b505af115801562000622573d6000803e3d6000fd5b505050506040513d60208110156200063957600080fd5b8101908080519060200190929190505050600160006101000a81548173ffffffffffffffffffffffffffffffffffffffff021916908373ffffffffffffffffffffffffffffffffffffffff1602179055505b600160009054906101000a900473ffffffffffffffffffffffffffffffffffffffff1673ffffffffffffffffffffffffffffffffffffffff1663c281d19e6040518163ffffffff1660e01b815260040160206040518083038186803b158015620006f457600080fd5b505afa15801562000709573d6000803e3d6000fd5b505050506040513d60208110156200072057600080fd5b8101908080519060200190929190505050905090565b60008060009054906101000a900473ffffffffffffffffffffffffffffffffffffffff16905090565b60008073ffffffffffffffffffffffffffffffffffffffff16600260009054906101000a900473ffffffffffffffffffffffffffffffffffffffff1673ffffffffffffffffffffffffffffffffffffffff161480620007f057506000620007ee600260009054906101000a900473ffffffffffffffffffffffffffffffffffffffff16620010ef60201b60201c565b145b156200080a57620008086000620010fa60201b60201c565b505b600260009054906101000a900473ffffffffffffffffffffffffffffffffffffffff1673ffffffffffffffffffffffffffffffffffffffff166338cc48316040518163ffffffff1660e01b8152600401602060405180830381600087803b1580156200087557600080fd5b505af11580156200088a573d6000803e3d6000fd5b505050506040513d6020811015620008a157600080fd5b810190808051906020019092919050505073ffffffffffffffffffffffffffffffffffffffff16600160009054906101000a900473ffffffffffffffffffffffffffffffffffffffff1673ffffffffffffffffffffffffffffffffffffffff1614620009f057600260009054906101000a900473ffffffffffffffffffffffffffffffffffffffff1673ffffffffffffffffffffffffffffffffffffffff166338cc48316040518163ffffffff1660e01b8152600401602060405180830381600087803b1580156200097257600080fd5b505af115801562000987573d6000803e3d6000fd5b505050506040513d60208110156200099e57600080fd5b8101908080519060200190929190505050600160006101000a81548173ffffffffffffffffffffffffffffffffffffffff021916908373ffffffffffffffffffffffffffffffffffffffff1602179055505b600160009054906101000a900473ffffffffffffffffffffffffffffffffffffffff1673ffffffffffffffffffffffffffffffffffffffff16632ef3accc84846040518363ffffffff1660e01b81526004018080602001838152602001828103825284818151815260200191508051906020019080838360005b8381101562000a8757808201518184015260208101905062000a6a565b50505050905090810190601f16801562000ab55780820380516001836020036101000a031916815260200191505b509350505050602060405180830381600087803b15801562000ad657600080fd5b505af115801562000aeb573d6000803e3d6000fd5b505050506040513d602081101562000b0257600080fd5b8101908080519060200190929190505050905092915050565b600062000b6583836040518060400160405280601e81526020017f536166654d6174683a207375627472616374696f6e206f766572666c6f7700008152506200111360201b60201c565b905092915050565b60008073ffffffffffffffffffffffffffffffffffffffff16600260009054906101000a900473ffffffffffffffffffffffffffffffffffffffff1673ffffffffffffffffffffffffffffffffffffffff16148062000bfe5750600062000bfc600260009054906101000a900473ffffffffffffffffffffffffffffffffffffffff16620010ef60201b60201c565b145b1562000c185762000c166000620010fa60201b60201c565b505b600260009054906101000a900473ffffffffffffffffffffffffffffffffffffffff1673ffffffffffffffffffffffffffffffffffffffff166338cc48316040518163ffffffff1660e01b8152600401602060405180830381600087803b15801562000c8357600080fd5b505af115801562000c98573d6000803e3d6000fd5b505050506040513d602081101562000caf57600080fd5b810190808051906020019092919050505073ffffffffffffffffffffffffffffffffffffffff16600160009054906101000a900473ffffffffffffffffffffffffffffffffffffffff1673ffffffffffffffffffffffffffffffffffffffff161462000dfe57600260009054906101000a900473ffffffffffffffffffffffffffffffffffffffff1673ffffffffffffffffffffffffffffffffffffffff166338cc48316040518163ffffffff1660e01b8152600401602060405180830381600087803b15801562000d8057600080fd5b505af115801562000d95573d6000803e3d6000fd5b505050506040513d602081101562000dac57600080fd5b8101908080519060200190929190505050600160006101000a81548173ffffffffffffffffffffffffffffffffffffffff021916908373ffffffffffffffffffffffffffffffffffffffff1602179055505b6000600160009054906101000a900473ffffffffffffffffffffffffffffffffffffffff1673ffffffffffffffffffffffffffffffffffffffff16632ef3accc86856040518363ffffffff1660e01b81526004018080602001838152602001828103825284818151815260200191508051906020019080838360005b8381101562000e9757808201518184015260208101905062000e7a565b50505050905090810190601f16801562000ec55780820380516001836020036101000a031916815260200191505b509350505050602060405180830381600087803b15801562000ee657600080fd5b505af115801562000efb573d6000803e3d6000fd5b505050506040513d602081101562000f1257600080fd5b81019080805190602001909291905050509050823a02670de0b6b3a76400000181111562000f47576000801b915050620010e7565b600160009054906101000a900473ffffffffffffffffffffffffffffffffffffffff1673ffffffffffffffffffffffffffffffffffffffff1663c51be90f82888888886040518663ffffffff1660e01b8152600401808581526020018060200180602001848152602001838103835286818151815260200191508051906020019080838360005b8381101562000feb57808201518184015260208101905062000fce565b50505050905090810190601f168015620010195780820380516001836020036101000a031916815260200191505b50838103825285818151815260200191508051906020019080838360005b838110156200105457808201518184015260208101905062001037565b50505050905090810190601f168015620010825780820380516001836020036101000a031916815260200191505b5096505050505050506020604051808303818588803b158015620010a557600080fd5b505af1158015620010ba573d6000803e3d6000fd5b50505050506040513d6020811015620010d257600080fd5b81019080805190602001909291905050509150505b949350505050565b6000813b9050919050565b60006200110c620011d760201b60201c565b9050919050565b6000838311158290620011c4576040517f08c379a00000000000000000000000000000000000000000000000000000000081526004018080602001828103825283818151815260200191508051906020019080838360005b83811015620011885780820151818401526020810190506200116b565b50505050905090810190601f168015620011b65780820380516001836020036101000a031916815260200191505b509250505060405180910390fd5b5060008385039050809150509392505050565b600080620011ff731d3b2638a7cc9f2cb3d298a3da7a90b67e5506ed620010ef60201b60201c565b1115620012ab57731d3b2638a7cc9f2cb3d298a3da7a90b67e5506ed600260006101000a81548173ffffffffffffffffffffffffffffffffffffffff021916908373ffffffffffffffffffffffffffffffffffffffff160217905550620012a16040518060400160405280600b81526020017f6574685f6d61696e6e6574000000000000000000000000000000000000000000815250620017a660201b60201c565b60019050620017a3565b6000620012d273c03a2615d5efaf5f49f60b7bb6583eaec212fdf1620010ef60201b60201c565b11156200137e5773c03a2615d5efaf5f49f60b7bb6583eaec212fdf1600260006101000a81548173ffffffffffffffffffffffffffffffffffffffff021916908373ffffffffffffffffffffffffffffffffffffffff160217905550620013746040518060400160405280600c81526020017f6574685f726f707374656e330000000000000000000000000000000000000000815250620017a660201b60201c565b60019050620017a3565b6000620013a573b7a07bcf2ba2f2703b24c0691b5278999c59ac7e620010ef60201b60201c565b1115620014515773b7a07bcf2ba2f2703b24c0691b5278999c59ac7e600260006101000a81548173ffffffffffffffffffffffffffffffffffffffff021916908373ffffffffffffffffffffffffffffffffffffffff160217905550620014476040518060400160405280600981526020017f6574685f6b6f76616e0000000000000000000000000000000000000000000000815250620017a660201b60201c565b60019050620017a3565b60006200147873146500cfd35b22e4a392fe0adc06de1a1368ed48620010ef60201b60201c565b1115620015245773146500cfd35b22e4a392fe0adc06de1a1368ed48600260006101000a81548173ffffffffffffffffffffffffffffffffffffffff021916908373ffffffffffffffffffffffffffffffffffffffff1602179055506200151a6040518060400160405280600b81526020017f6574685f72696e6b656279000000000000000000000000000000000000000000815250620017a660201b60201c565b60019050620017a3565b60006200154b73a2998efd205fb9d4b4963afb70778d6354ad3a41620010ef60201b60201c565b1115620015f75773a2998efd205fb9d4b4963afb70778d6354ad3a41600260006101000a81548173ffffffffffffffffffffffffffffffffffffffff021916908373ffffffffffffffffffffffffffffffffffffffff160217905550620015ed6040518060400160405280600a81526020017f6574685f676f65726c6900000000000000000000000000000000000000000000815250620017a660201b60201c565b60019050620017a3565b60006200161e736f485c8bf6fc43ea212e93bbf8ce046c7f1cb475620010ef60201b60201c565b11156200168457736f485c8bf6fc43ea212e93bbf8ce046c7f1cb475600260006101000a81548173ffffffffffffffffffffffffffffffffffffffff021916908373ffffffffffffffffffffffffffffffffffffffff16021790555060019050620017a3565b6000620016ab7320e12a1f859b3feae5fb2a0a32c18f5a65555bbf620010ef60201b60201c565b111562001711577320e12a1f859b3feae5fb2a0a32c18f5a65555bbf600260006101000a81548173ffffffffffffffffffffffffffffffffffffffff021916908373ffffffffffffffffffffffffffffffffffffffff16021790555060019050620017a3565b6000620017387351efaf4c8b3c9afbd5ab9f4bbc82784ab6ef8faa620010ef60201b60201c565b11156200179e577351efaf4c8b3c9afbd5ab9f4bbc82784ab6ef8faa600260006101000a81548173ffffffffffffffffffffffffffffffffffffffff021916908373ffffffffffffffffffffffffffffffffffffffff16021790555060019050620017a3565b600090505b90565b8060039080519060200190620017be929190620017c2565b5050565b828054600181600116156101000203166002900490600052602060002090601f016020900481019282601f106200180557805160ff191683800117855562001836565b8280016001018555821562001836579182015b828111156200183557825182559160200191906001019062001818565b5b50905062001845919062001849565b5090565b6200186e91905b808211156200186a57600081600090555060010162001850565b5090565b90565b61344580620018816000396000f3fe60806040526004361061011f5760003560e01c806389a2cdcb116100a0578063dd4559f811610064578063dd4559f814610704578063e3fc88731461072f578063ede90e991461075a578063f2fde38b14610785578063f579f882146107d65761011f565b806389a2cdcb146105c55780638da5cb5b146106185780638f32d59b1461066f57806393b8e5b01461069e578063d7c81b55146106d95761011f565b806338bbfa50116100e757806338bbfa50146103e95780633ccfd60b14610552578063693861fb146105695780636bc31d3514610573578063715018a6146105ae5761011f565b806321ceaaa41461023f57806327dc297e1461027057806327e235e3146103425780632a25545a146103a75780632cf4e56f146103d2575b610127610830565b610199576040517f08c379a00000000000000000000000000000000000000000000000000000000081526004018080602001828103825260208152602001807f4f776e61626c653a2063616c6c6572206973206e6f7420746865206f776e657281525060200191505060405180910390fd5b6101ae3460095461088e90919063ffffffff16565b6009819055506000600c6000600a54815260200190815260200160002090508060030160009054906101000a900460ff16610234576040517f08c379a000000000000000000000000000000000000000000000000000000000815260040180806020018281038252603481526020018061338a6034913960400191505060405180910390fd5b61023c610916565b50005b61026e6004803603602081101561025557600080fd5b81019080803560ff169060200190929190505050610bb9565b005b34801561027c57600080fd5b506103406004803603604081101561029357600080fd5b8101908080359060200190929190803590602001906401000000008111156102ba57600080fd5b8201836020820111156102cc57600080fd5b803590602001918460018302840111640100000000831117156102ee57600080fd5b91908080601f016020809104026020016040519081016040528093929190818152602001838380828437600081840152601f19601f820116905080830192505050505050509192919290505050610fa5565b005b34801561034e57600080fd5b506103916004803603602081101561036557600080fd5b81019080803573ffffffffffffffffffffffffffffffffffffffff169060200190929190505050611156565b6040518082815260200191505060405180910390f35b3480156103b357600080fd5b506103bc61116e565b6040518082815260200191505060405180910390f35b3480156103de57600080fd5b506103e7611174565b005b3480156103f557600080fd5b506105506004803603606081101561040c57600080fd5b81019080803590602001909291908035906020019064010000000081111561043357600080fd5b82018360208201111561044557600080fd5b8035906020019184600183028401116401000000008311171561046757600080fd5b91908080601f016020809104026020016040519081016040528093929190818152602001838380828437600081840152601f19601f820116905080830192505050505050509192919290803590602001906401000000008111156104ca57600080fd5b8201836020820111156104dc57600080fd5b803590602001918460018302840111640100000000831117156104fe57600080fd5b91908080601f016020809104026020016040519081016040528093929190818152602001838380828437600081840152601f19601f82011690508083019250505050505050919291929050505061124e565b005b34801561055e57600080fd5b50610567611271565b005b610571610916565b005b34801561057f57600080fd5b506105ac6004803603602081101561059657600080fd5b8101908080359060200190929190505050611344565b005b3480156105ba57600080fd5b506105c36113c8565b005b3480156105d157600080fd5b506105fe600480360360208110156105e857600080fd5b8101908080359060200190929190505050611501565b604051808215151515815260200191505060405180910390f35b34801561062457600080fd5b5061062d611521565b604051808273ffffffffffffffffffffffffffffffffffffffff1673ffffffffffffffffffffffffffffffffffffffff16815260200191505060405180910390f35b34801561067b57600080fd5b50610684610830565b604051808215151515815260200191505060405180910390f35b3480156106aa57600080fd5b506106d7600480360360208110156106c157600080fd5b810190808035906020019092919050505061154a565b005b3480156106e557600080fd5b506106ee6115ce565b6040518082815260200191505060405180910390f35b34801561071057600080fd5b506107196115d4565b6040518082815260200191505060405180910390f35b34801561073b57600080fd5b506107446115da565b6040518082815260200191505060405180910390f35b34801561076657600080fd5b5061076f6115e0565b6040518082815260200191505060405180910390f35b34801561079157600080fd5b506107d4600480360360208110156107a857600080fd5b81019080803573ffffffffffffffffffffffffffffffffffffffff1690602001909291905050506115e6565b005b3480156107e257600080fd5b5061080f600480360360208110156107f957600080fd5b810190808035906020019092919050505061166c565b60405180838152602001821515151581526020019250505060405180910390f35b60008060009054906101000a900473ffffffffffffffffffffffffffffffffffffffff1673ffffffffffffffffffffffffffffffffffffffff1661087261169d565b73ffffffffffffffffffffffffffffffffffffffff1614905090565b60008082840190508381101561090c576040517f08c379a000000000000000000000000000000000000000000000000000000000815260040180806020018281038252601b8152602001807f536166654d6174683a206164646974696f6e206f766572666c6f77000000000081525060200191505060405180910390fd5b8091505092915050565b61091e6116a5565b73ffffffffffffffffffffffffffffffffffffffff163373ffffffffffffffffffffffffffffffffffffffff16148061098257503073ffffffffffffffffffffffffffffffffffffffff163373ffffffffffffffffffffffffffffffffffffffff16145b806109bf5750610990611521565b73ffffffffffffffffffffffffffffffffffffffff163373ffffffffffffffffffffffffffffffffffffffff16145b610a14576040517f08c379a000000000000000000000000000000000000000000000000000000000815260040180806020018281038252603181526020018061332d6031913960400191505060405180910390fd5b6000610a576040518060400160405280600c81526020017f576f6c6672616d416c70686100000000000000000000000000000000000000008152506007546119c5565b9050600954811115610ab3577f4cd3e05558dc434b7b222972fa66803efd137976460dd5bd71d67fdf40195be460405180806020018281038252604b8152602001806132e2604b913960600191505060405180910390a1610bb6565b610ac881600954611d6290919063ffffffff16565b600981905550610b486006546040518060400160405280600c81526020017f576f6c6672616d416c70686100000000000000000000000000000000000000008152506040518060400160405280601d81526020017f72616e646f6d206e756d626572206265747765656e203020616e642039000000815250600754611dac565b600a819055507f1f9f045be251312695005a76565fe1b87fe07e25b124d276476e5da89b3b8c83600a546040518082815260200191505060405180910390a16001600d6000600a54815260200190815260200160002060006101000a81548160ff0219169083151502179055505b50565b80600a8160ff1610610c33576040517f08c379a000000000000000000000000000000000000000000000000000000000815260040180806020018281038252600e8152602001807f426574206973276e2076616c696400000000000000000000000000000000000081525060200191505060405180910390fd5b6611c37937e080003414610caf576040517f08c379a000000000000000000000000000000000000000000000000000000000815260040180806020018281038252601f8152602001807f5374616b65206d75737420626520657175616c20302e3030352065746865720081525060200191505060405180910390fd5b6000600c6000600a54815260200190815260200160002090508060030160009054906101000a900460ff1615610d4d576040517f08c379a000000000000000000000000000000000000000000000000000000000815260040180806020018281038252600e8152602001807f47616d6520697320636c6f73656400000000000000000000000000000000000081525060200191505060405180910390fd5b8060000160003373ffffffffffffffffffffffffffffffffffffffff1673ffffffffffffffffffffffffffffffffffffffff16815260200190815260200160002060009054906101000a900460ff1615610e0f576040517f08c379a00000000000000000000000000000000000000000000000000000000081526004018080602001828103825260208152602001807f596f75206861766520616c726561647920706c6163656420796f75722062657481525060200191505060405180910390fd5b60018160000160003373ffffffffffffffffffffffffffffffffffffffff1673ffffffffffffffffffffffffffffffffffffffff16815260200190815260200160002060006101000a81548160ff021916908315150217905550610e8034826002015461088e90919063ffffffff16565b81600201819055508060010160405180604001604052803373ffffffffffffffffffffffffffffffffffffffff1681526020018560ff1681525090806001815401808255809150509060018203906000526020600020016000909192909190915060008201518160000160006101000a81548173ffffffffffffffffffffffffffffffffffffffff021916908373ffffffffffffffffffffffffffffffffffffffff16021790555060208201518160000160146101000a81548160ff021916908360ff1602179055505050508260ff163373ffffffffffffffffffffffffffffffffffffffff167fd111ebd19139928a333d2639402fa02a7e0408691134d90507599feb03404484600a546040518082815260200191505060405180910390a3505050565b610fad6116a5565b73ffffffffffffffffffffffffffffffffffffffff163373ffffffffffffffffffffffffffffffffffffffff1614611030576040517f08c379a000000000000000000000000000000000000000000000000000000000815260040180806020018281038252603281526020018061328a6032913960400191505060405180910390fd5b60011515600d600084815260200190815260200160002060009054906101000a900460ff161515146110ca576040517f08c379a00000000000000000000000000000000000000000000000000000000081526004018080602001828103825260188152602001807f517565727920686173206265656e2070726f636573736564000000000000000081525060200191505060405180910390fd5b60006110d582612304565b90507fb80ed1b4ea7611e60b4f22a87fee23d77d8907a05ccfaa43d3101e61f1c50d618382604051808381526020018260ff1660ff1681526020019250505060405180910390a16111268382612318565b61112e610916565b600d600084815260200190815260200160002060006101000a81549060ff0219169055505050565b600b6020528060005260406000206000915090505481565b60085481565b61117c610830565b6111ee576040517f08c379a00000000000000000000000000000000000000000000000000000000081526004018080602001828103825260208152602001807f4f776e61626c653a2063616c6c6572206973206e6f7420746865206f776e657281525060200191505060405180910390fd5b600060085490506000600881905550611205611521565b73ffffffffffffffffffffffffffffffffffffffff166108fc829081150290604051600060405180830381858888f1935050505015801561124a573d6000803e3d6000fd5b5050565b6000801b600460008060001b815260200190815260200160002081905550505050565b6000600b60003373ffffffffffffffffffffffffffffffffffffffff1673ffffffffffffffffffffffffffffffffffffffff1681526020019081526020016000205490506000600b60003373ffffffffffffffffffffffffffffffffffffffff1673ffffffffffffffffffffffffffffffffffffffff168152602001908152602001600020819055503373ffffffffffffffffffffffffffffffffffffffff166108fc829081150290604051600060405180830381858888f19350505050158015611340573d6000803e3d6000fd5b5050565b61134c610830565b6113be576040517f08c379a00000000000000000000000000000000000000000000000000000000081526004018080602001828103825260208152602001807f4f776e61626c653a2063616c6c6572206973206e6f7420746865206f776e657281525060200191505060405180910390fd5b8060068190555050565b6113d0610830565b611442576040517f08c379a00000000000000000000000000000000000000000000000000000000081526004018080602001828103825260208152602001807f4f776e61626c653a2063616c6c6572206973206e6f7420746865206f776e657281525060200191505060405180910390fd5b600073ffffffffffffffffffffffffffffffffffffffff166000809054906101000a900473ffffffffffffffffffffffffffffffffffffffff1673ffffffffffffffffffffffffffffffffffffffff167f8be0079c531659141344cd1fd0a4f28419497f9722a3daafe3b4186f6b6457e060405160405180910390a360008060006101000a81548173ffffffffffffffffffffffffffffffffffffffff021916908373ffffffffffffffffffffffffffffffffffffffff160217905550565b600d6020528060005260406000206000915054906101000a900460ff1681565b60008060009054906101000a900473ffffffffffffffffffffffffffffffffffffffff16905090565b611552610830565b6115c4576040517f08c379a00000000000000000000000000000000000000000000000000000000081526004018080602001828103825260208152602001807f4f776e61626c653a2063616c6c6572206973206e6f7420746865206f776e657281525060200191505060405180910390fd5b8060078190555050565b600a5481565b60065481565b60095481565b60075481565b6115ee610830565b611660576040517f08c379a00000000000000000000000000000000000000000000000000000000081526004018080602001828103825260208152602001807f4f776e61626c653a2063616c6c6572206973206e6f7420746865206f776e657281525060200191505060405180910390fd5b6116698161251f565b50565b600c6020528060005260406000206000915090508060020154908060030160009054906101000a900460ff16905082565b600033905090565b60008073ffffffffffffffffffffffffffffffffffffffff16600260009054906101000a900473ffffffffffffffffffffffffffffffffffffffff1673ffffffffffffffffffffffffffffffffffffffff16148061172d5750600061172b600260009054906101000a900473ffffffffffffffffffffffffffffffffffffffff16612663565b145b1561173e5761173c600061266e565b505b600260009054906101000a900473ffffffffffffffffffffffffffffffffffffffff1673ffffffffffffffffffffffffffffffffffffffff166338cc48316040518163ffffffff1660e01b8152600401602060405180830381600087803b1580156117a857600080fd5b505af11580156117bc573d6000803e3d6000fd5b505050506040513d60208110156117d257600080fd5b810190808051906020019092919050505073ffffffffffffffffffffffffffffffffffffffff16600160009054906101000a900473ffffffffffffffffffffffffffffffffffffffff1673ffffffffffffffffffffffffffffffffffffffff161461191d57600260009054906101000a900473ffffffffffffffffffffffffffffffffffffffff1673ffffffffffffffffffffffffffffffffffffffff166338cc48316040518163ffffffff1660e01b8152600401602060405180830381600087803b1580156118a157600080fd5b505af11580156118b5573d6000803e3d6000fd5b505050506040513d60208110156118cb57600080fd5b8101908080519060200190929190505050600160006101000a81548173ffffffffffffffffffffffffffffffffffffffff021916908373ffffffffffffffffffffffffffffffffffffffff1602179055505b600160009054906101000a900473ffffffffffffffffffffffffffffffffffffffff1673ffffffffffffffffffffffffffffffffffffffff1663c281d19e6040518163ffffffff1660e01b815260040160206040518083038186803b15801561198557600080fd5b505afa158015611999573d6000803e3d6000fd5b505050506040513d60208110156119af57600080fd5b8101908080519060200190929190505050905090565b60008073ffffffffffffffffffffffffffffffffffffffff16600260009054906101000a900473ffffffffffffffffffffffffffffffffffffffff1673ffffffffffffffffffffffffffffffffffffffff161480611a4d57506000611a4b600260009054906101000a900473ffffffffffffffffffffffffffffffffffffffff16612663565b145b15611a5e57611a5c600061266e565b505b600260009054906101000a900473ffffffffffffffffffffffffffffffffffffffff1673ffffffffffffffffffffffffffffffffffffffff166338cc48316040518163ffffffff1660e01b8152600401602060405180830381600087803b158015611ac857600080fd5b505af1158015611adc573d6000803e3d6000fd5b505050506040513d6020811015611af257600080fd5b810190808051906020019092919050505073ffffffffffffffffffffffffffffffffffffffff16600160009054906101000a900473ffffffffffffffffffffffffffffffffffffffff1673ffffffffffffffffffffffffffffffffffffffff1614611c3d57600260009054906101000a900473ffffffffffffffffffffffffffffffffffffffff1673ffffffffffffffffffffffffffffffffffffffff166338cc48316040518163ffffffff1660e01b8152600401602060405180830381600087803b158015611bc157600080fd5b505af1158015611bd5573d6000803e3d6000fd5b505050506040513d6020811015611beb57600080fd5b8101908080519060200190929190505050600160006101000a81548173ffffffffffffffffffffffffffffffffffffffff021916908373ffffffffffffffffffffffffffffffffffffffff1602179055505b600160009054906101000a900473ffffffffffffffffffffffffffffffffffffffff1673ffffffffffffffffffffffffffffffffffffffff16632ef3accc84846040518363ffffffff1660e01b81526004018080602001838152602001828103825284818151815260200191508051906020019080838360005b83811015611cd2578082015181840152602081019050611cb7565b50505050905090810190601f168015611cff5780820380516001836020036101000a031916815260200191505b509350505050602060405180830381600087803b158015611d1f57600080fd5b505af1158015611d33573d6000803e3d6000fd5b505050506040513d6020811015611d4957600080fd5b8101908080519060200190929190505050905092915050565b6000611da483836040518060400160405280601e81526020017f536166654d6174683a207375627472616374696f6e206f766572666c6f77000081525061267f565b905092915050565b60008073ffffffffffffffffffffffffffffffffffffffff16600260009054906101000a900473ffffffffffffffffffffffffffffffffffffffff1673ffffffffffffffffffffffffffffffffffffffff161480611e3457506000611e32600260009054906101000a900473ffffffffffffffffffffffffffffffffffffffff16612663565b145b15611e4557611e43600061266e565b505b600260009054906101000a900473ffffffffffffffffffffffffffffffffffffffff1673ffffffffffffffffffffffffffffffffffffffff166338cc48316040518163ffffffff1660e01b8152600401602060405180830381600087803b158015611eaf57600080fd5b505af1158015611ec3573d6000803e3d6000fd5b505050506040513d6020811015611ed957600080fd5b810190808051906020019092919050505073ffffffffffffffffffffffffffffffffffffffff16600160009054906101000a900473ffffffffffffffffffffffffffffffffffffffff1673ffffffffffffffffffffffffffffffffffffffff161461202457600260009054906101000a900473ffffffffffffffffffffffffffffffffffffffff1673ffffffffffffffffffffffffffffffffffffffff166338cc48316040518163ffffffff1660e01b8152600401602060405180830381600087803b158015611fa857600080fd5b505af1158015611fbc573d6000803e3d6000fd5b505050506040513d6020811015611fd257600080fd5b8101908080519060200190929190505050600160006101000a81548173ffffffffffffffffffffffffffffffffffffffff021916908373ffffffffffffffffffffffffffffffffffffffff1602179055505b6000600160009054906101000a900473ffffffffffffffffffffffffffffffffffffffff1673ffffffffffffffffffffffffffffffffffffffff16632ef3accc86856040518363ffffffff1660e01b81526004018080602001838152602001828103825284818151815260200191508051906020019080838360005b838110156120bb5780820151818401526020810190506120a0565b50505050905090810190601f1680156120e85780820380516001836020036101000a031916815260200191505b509350505050602060405180830381600087803b15801561210857600080fd5b505af115801561211c573d6000803e3d6000fd5b505050506040513d602081101561213257600080fd5b81019080805190602001909291905050509050823a02670de0b6b3a764000001811115612165576000801b9150506122fc565b600160009054906101000a900473ffffffffffffffffffffffffffffffffffffffff1673ffffffffffffffffffffffffffffffffffffffff1663c51be90f82888888886040518663ffffffff1660e01b8152600401808581526020018060200180602001848152602001838103835286818151815260200191508051906020019080838360005b838110156122075780820151818401526020810190506121ec565b50505050905090810190601f1680156122345780820380516001836020036101000a031916815260200191505b50838103825285818151815260200191508051906020019080838360005b8381101561226d578082015181840152602081019050612252565b50505050905090810190601f16801561229a5780820380516001836020036101000a031916815260200191505b5096505050505050506020604051808303818588803b1580156122bc57600080fd5b505af11580156122d0573d6000803e3d6000fd5b50505050506040513d60208110156122e757600080fd5b81019080805190602001909291905050509150505b949350505050565b600061231182600061273f565b9050919050565b6000600c6000848152602001908152602001600020905060018160030160006101000a81548160ff0219169083151502179055506000816002015414156123cf577f139273436266edbcea666edfc0bec12d1ded912048e1aea1c5509ed0ad6b39b5836040518082815260200180602001828103825260178152602001807f4e6f207374616b657320696e20746869732067616d65210000000000000000008152506020019250505060405180910390a15061251b565b60006123de82600101846128fe565b905060006124236040518060400160405280600c81526020017f576f6c6672616d416c70686100000000000000000000000000000000000000008152506007546119c5565b905061243a8160095461088e90919063ffffffff16565b6009819055506000612459828560020154611d6290919063ffffffff16565b905060008311156124865760006124708285612968565b90506124808560010182886129de565b50612516565b61249b8160085461088e90919063ffffffff16565b6008819055508460ff167f2bcc871219079eab036064ea9f625436434bf117e0f3c5033bff56bba47e8982876040518082815260200180602001828103825260188152602001807f4e6f2077696e6e65727320696e20746869732067616d652100000000000000008152506020019250505060405180910390a25b505050505b5050565b600073ffffffffffffffffffffffffffffffffffffffff168173ffffffffffffffffffffffffffffffffffffffff1614156125a5576040517f08c379a00000000000000000000000000000000000000000000000000000000081526004018080602001828103825260268152602001806132bc6026913960400191505060405180910390fd5b8073ffffffffffffffffffffffffffffffffffffffff166000809054906101000a900473ffffffffffffffffffffffffffffffffffffffff1673ffffffffffffffffffffffffffffffffffffffff167f8be0079c531659141344cd1fd0a4f28419497f9722a3daafe3b4186f6b6457e060405160405180910390a3806000806101000a81548173ffffffffffffffffffffffffffffffffffffffff021916908373ffffffffffffffffffffffffffffffffffffffff16021790555050565b6000813b9050919050565b6000612678612b63565b9050919050565b600083831115829061272c576040517f08c379a00000000000000000000000000000000000000000000000000000000081526004018080602001828103825283818151815260200191508051906020019080838360005b838110156126f15780820151818401526020810190506126d6565b50505050905090810190601f16801561271e5780820380516001836020036101000a031916815260200191505b509250505060405180910390fd5b5060008385039050809150509392505050565b600060608390506000809050600080905060008090505b83518110156128df57603084828151811061276d57fe5b602001015160f81c60f81b60f81c60ff16101580156127a95750603984828151811061279557fe5b602001015160f81c60f81b60f81c60ff1611155b156127fb5781156127cc5760008614156127c2576128df565b8580600190039650505b600a8302925060308482815181106127e057fe5b602001015160f81c60f81b60f81c60ff1603830192506128d2565b602e84828151811061280957fe5b602001015160f81c60f81b60f81c60ff161415612880578115612877576040517f08c379a000000000000000000000000000000000000000000000000000000000815260040180806020018281038252602c8152602001806133e5602c913960400191505060405180910390fd5b600191506128d1565b6040517f08c379a000000000000000000000000000000000000000000000000000000000815260040180806020018281038252602c81526020018061335e602c913960400191505060405180910390fd5b5b8080600101915050612756565b5060008511156128f25784600a0a820291505b81935050505092915050565b60008060008090505b848054905081101561295d578360ff1685828154811061292357fe5b9060005260206000200160000160149054906101000a900460ff1660ff1614156129505781806001019250505b8080600101915050612907565b508091505092915050565b6000808214156129c3576040517f08c379a00000000000000000000000000000000000000000000000000000000081526004018080602001828103825260278152602001806133be6027913960400191505060405180910390fd5b6129d682846130ba90919063ffffffff16565b905092915050565b60008090505b8380549050811015612b5d578160ff16848281548110612a0057fe5b9060005260206000200160000160149054906101000a900460ff1660ff161415612b505782600b6000868481548110612a3557fe5b9060005260206000200160000160009054906101000a900473ffffffffffffffffffffffffffffffffffffffff1673ffffffffffffffffffffffffffffffffffffffff1673ffffffffffffffffffffffffffffffffffffffff168152602001908152602001600020819055507fde4a7c10e5cae5b9e774bd83f666b45d4205af07196d56ce53b1423006b079de600a54858381548110612ad157fe5b9060005260206000200160000160009054906101000a900473ffffffffffffffffffffffffffffffffffffffff1685604051808481526020018373ffffffffffffffffffffffffffffffffffffffff1673ffffffffffffffffffffffffffffffffffffffff168152602001828152602001935050505060405180910390a15b80806001019150506129e4565b50505050565b600080612b83731d3b2638a7cc9f2cb3d298a3da7a90b67e5506ed612663565b1115612c2557731d3b2638a7cc9f2cb3d298a3da7a90b67e5506ed600260006101000a81548173ffffffffffffffffffffffffffffffffffffffff021916908373ffffffffffffffffffffffffffffffffffffffff160217905550612c1c6040518060400160405280600b81526020017f6574685f6d61696e6e6574000000000000000000000000000000000000000000815250613104565b600190506130b7565b6000612c4473c03a2615d5efaf5f49f60b7bb6583eaec212fdf1612663565b1115612ce65773c03a2615d5efaf5f49f60b7bb6583eaec212fdf1600260006101000a81548173ffffffffffffffffffffffffffffffffffffffff021916908373ffffffffffffffffffffffffffffffffffffffff160217905550612cdd6040518060400160405280600c81526020017f6574685f726f707374656e330000000000000000000000000000000000000000815250613104565b600190506130b7565b6000612d0573b7a07bcf2ba2f2703b24c0691b5278999c59ac7e612663565b1115612da75773b7a07bcf2ba2f2703b24c0691b5278999c59ac7e600260006101000a81548173ffffffffffffffffffffffffffffffffffffffff021916908373ffffffffffffffffffffffffffffffffffffffff160217905550612d9e6040518060400160405280600981526020017f6574685f6b6f76616e0000000000000000000000000000000000000000000000815250613104565b600190506130b7565b6000612dc673146500cfd35b22e4a392fe0adc06de1a1368ed48612663565b1115612e685773146500cfd35b22e4a392fe0adc06de1a1368ed48600260006101000a81548173ffffffffffffffffffffffffffffffffffffffff021916908373ffffffffffffffffffffffffffffffffffffffff160217905550612e5f6040518060400160405280600b81526020017f6574685f72696e6b656279000000000000000000000000000000000000000000815250613104565b600190506130b7565b6000612e8773a2998efd205fb9d4b4963afb70778d6354ad3a41612663565b1115612f295773a2998efd205fb9d4b4963afb70778d6354ad3a41600260006101000a81548173ffffffffffffffffffffffffffffffffffffffff021916908373ffffffffffffffffffffffffffffffffffffffff160217905550612f206040518060400160405280600a81526020017f6574685f676f65726c6900000000000000000000000000000000000000000000815250613104565b600190506130b7565b6000612f48736f485c8bf6fc43ea212e93bbf8ce046c7f1cb475612663565b1115612fac57736f485c8bf6fc43ea212e93bbf8ce046c7f1cb475600260006101000a81548173ffffffffffffffffffffffffffffffffffffffff021916908373ffffffffffffffffffffffffffffffffffffffff160217905550600190506130b7565b6000612fcb7320e12a1f859b3feae5fb2a0a32c18f5a65555bbf612663565b111561302f577320e12a1f859b3feae5fb2a0a32c18f5a65555bbf600260006101000a81548173ffffffffffffffffffffffffffffffffffffffff021916908373ffffffffffffffffffffffffffffffffffffffff160217905550600190506130b7565b600061304e7351efaf4c8b3c9afbd5ab9f4bbc82784ab6ef8faa612663565b11156130b2577351efaf4c8b3c9afbd5ab9f4bbc82784ab6ef8faa600260006101000a81548173ffffffffffffffffffffffffffffffffffffffff021916908373ffffffffffffffffffffffffffffffffffffffff160217905550600190506130b7565b600090505b90565b60006130fc83836040518060400160405280601a81526020017f536166654d6174683a206469766973696f6e206279207a65726f00000000000081525061311e565b905092915050565b806003908051906020019061311a9291906131e4565b5050565b600080831182906131ca576040517f08c379a00000000000000000000000000000000000000000000000000000000081526004018080602001828103825283818151815260200191508051906020019080838360005b8381101561318f578082015181840152602081019050613174565b50505050905090810190601f1680156131bc5780820380516001836020036101000a031916815260200191505b509250505060405180910390fd5b5060008385816131d657fe5b049050809150509392505050565b828054600181600116156101000203166002900490600052602060002090601f016020900481019282601f1061322557805160ff1916838001178555613253565b82800160010185558215613253579182015b82811115613252578251825591602001919060010190613237565b5b5090506132609190613264565b5090565b61328691905b8082111561328257600081600090555060010161326a565b5090565b9056fe4f6e6c792070726f7661626c65204150492069732061626c6520746f2070726f6365737320746869732066756e6374696f6e4f776e61626c653a206e6577206f776e657220697320746865207a65726f206164647265737350726f7661626c6520717565727920776173204e4f542073656e742c20706c656173652061646420736f6d652045544820746f20636f76657220666f722074686520717565727920666565596f7520646f6e27742068617665207065726d697373696f6e20746f20636f6d706c657465207468697320616374696f6e4e6f6e2d6e756d6572616c2063686172616374657220656e636f756e746572656420696e20737472696e67214c6173742067616d652073686f756c6420626520636c6f736564206265666f7265207374617274696e672061206e6577206f6e6557696e6e65727320616d6f756e742063616e206e6f7420626520657175616c20746f207a65726f4d6f7265207468616e206f6e6520646563696d616c20656e636f756e746572656420696e20737472696e6721a265627a7a7231582055e4b59f143534e7dc48b97d13d00d5db548cde7a432b6ef83de757bc09a347a64736f6c6343000510003250726f7661626c6520717565727920776173204e4f542073656e742c20706c656173652061646420736f6d652045544820746f20636f76657220666f722074686520717565727920666565596f7520646f6e27742068617665207065726d697373696f6e20746f20636f6d706c657465207468697320616374696f6e",
  "source": "pragma solidity >=0.4.21 <0.7.0;\n\nimport \"@openzeppelin/contracts/math/SafeMath.sol\";\nimport \"@openzeppelin/contracts/ownership/Ownable.sol\";\nimport \"./provableAPI.sol\";\n\n\ncontract E_loto is Ownable, usingProvable {\n    using SafeMath for uint256;\n\n    uint256 public gameIntervalInSeconds;\n    uint256 public provableCustomGasLimit;\n    uint256 public contractBounty;\n    uint256 public provableBalance;\n    bytes32 public gameId;\n\n    struct Game {\n        mapping(address => bool) isAlreadyBet;\n        Staker[] stakers;\n        uint256 stakesTotal;\n        bool isClosed;\n    }\n\n    struct Staker {\n        address account;\n        uint8 bet;\n    }\n\n    mapping(address => uint256) public balances;\n    mapping(bytes32 => Game) public games;\n    mapping(bytes32 => bool) public pendingQueries;\n\n    event NewStake(\n        bytes32 _gameId,\n        address indexed _staker,\n        uint8 indexed _bet\n    );\n    event NewWinner(bytes32 _gameId, address _winner, uint256 _rewardAmount);\n    event NoWinners(\n        bytes32 _gameId,\n        string _description,\n        uint8 indexed _winningNumber\n    );\n    event NewGameId(bytes32 _gameId);\n    event NewProvableQuery(string _description);\n    event NoStakes(bytes32 _gameId, string _description);\n    event NewWinningNumber(bytes32 _gameId, uint8 _winningNumber);\n\n    modifier onlyValidBet(uint8 _bet) {\n        require(_bet < 10, \"Bet is'n valid\");\n        _;\n    }\n\n    modifier onlySystem() {\n        require(\n            msg.sender == provable_cbAddress() ||\n                msg.sender == address(this) ||\n                msg.sender == address(uint160(owner())),\n            \"You don't have permission to complete this action\"\n        );\n        _;\n    }\n\n    function() external payable onlyOwner {\n        provableBalance = provableBalance.add(msg.value);\n        Game storage game = games[gameId];\n        require(\n            game.isClosed,\n            \"Last game should be closed before starting a new one\"\n        );\n        queryNextWinningNumber();\n    }\n\n    constructor(uint256 _gameIntervalInSeconds, uint256 _provableCustomGasLimit)\n        public\n        payable\n    {\n        gameIntervalInSeconds = _gameIntervalInSeconds;\n        provableCustomGasLimit = _provableCustomGasLimit;\n        provableBalance = msg.value;\n\n        queryNextWinningNumber();\n    }\n\n    function __callback(bytes32 _queryId, string memory _resultRandom) public {\n        require(\n            msg.sender == provable_cbAddress(),\n            \"Only provable API is able to process this function\"\n        );\n        require(pendingQueries[_queryId] == true, \"Query has been processed\");\n\n        uint8 winningNumber = uint8(safeParseInt(_resultRandom));\n        emit NewWinningNumber(_queryId, winningNumber);\n\n        processGame(_queryId, winningNumber);\n        queryNextWinningNumber();\n        delete pendingQueries[_queryId];\n    }\n\n    function queryNextWinningNumber() public payable onlySystem {\n        uint256 provableQueryPrice = provable_getPrice(\n            \"WolframAlpha\",\n            provableCustomGasLimit\n        );\n        if (provableQueryPrice > provableBalance) {\n            emit NewProvableQuery(\n                \"Provable query was NOT sent, please add some ETH to cover for the query fee\"\n            );\n        } else {\n            provableBalance = provableBalance.sub(provableQueryPrice);\n\n            gameId = provable_query(\n                gameIntervalInSeconds,\n                \"WolframAlpha\",\n                \"random number between 0 and 9\",\n                provableCustomGasLimit\n            );\n\n            emit NewGameId(gameId);\n            pendingQueries[gameId] = true;\n        }\n    }\n\n    function placeStake(uint8 _bet) public payable onlyValidBet(_bet) {\n        require(\n            msg.value == 5000000000000000,\n            \"Stake must be equal 0.005 ether\"\n        );\n\n        Game storage game = games[gameId];\n\n        require(!game.isClosed, \"Game is closed\");\n        require(\n            !game.isAlreadyBet[msg.sender],\n            \"You have already placed your bet\"\n        );\n\n        game.isAlreadyBet[msg.sender] = true;\n        game.stakesTotal = game.stakesTotal.add(msg.value);\n        game.stakers.push(Staker(msg.sender, _bet));\n        emit NewStake(gameId, msg.sender, _bet);\n    }\n\n    function processGame(bytes32 _gameId, uint8 _winningNumber) private {\n        Game storage game = games[_gameId];\n        game.isClosed = true;\n\n        if (game.stakesTotal == 0) {\n            emit NoStakes(_gameId, \"No stakes in this game!\");\n            return;\n        }\n\n        uint256 winnersAmount = determineAmountOfWinners(\n            game.stakers,\n            _winningNumber\n        );\n\n        uint256 provableFee = provable_getPrice(\n            \"WolframAlpha\",\n            provableCustomGasLimit\n        );\n\n        provableBalance = provableBalance.add(provableFee);\n\n        uint256 stakesToReward = game.stakesTotal.sub(provableFee);\n\n        if (winnersAmount > 0) {\n            uint256 rewardAmount = determineRewardAmount(\n                stakesToReward,\n                winnersAmount\n            );\n\n            increaseBalanceIfWinner(game.stakers, rewardAmount, _winningNumber);\n        } else {\n            contractBounty = contractBounty.add(stakesToReward);\n            emit NoWinners(_gameId, \"No winners in this game!\", _winningNumber);\n        }\n    }\n\n    function determineAmountOfWinners(\n        Staker[] storage _stakers,\n        uint8 _winningNumber\n    ) private view returns (uint256) {\n        uint256 j;\n        for (uint256 i = 0; i < _stakers.length; i++) {\n            if (_stakers[i].bet == _winningNumber) {\n                j++;\n            }\n        }\n        return j;\n    }\n\n    function determineRewardAmount(uint256 _stakesTotal, uint256 _winnersAmount)\n        private\n        pure\n        returns (uint256)\n    {\n        require(_winnersAmount != 0, \"Winners amount can not be equal to zero\");\n        return _stakesTotal.div(_winnersAmount);\n    }\n\n    function increaseBalanceIfWinner(\n        Staker[] storage _stakers,\n        uint256 _rewardAmount,\n        uint8 _winningNumber\n    ) private {\n        for (uint256 i = 0; i < _stakers.length; i++) {\n            if (_stakers[i].bet == _winningNumber) {\n                balances[_stakers[i].account] = _rewardAmount;\n                emit NewWinner(gameId, _stakers[i].account, _rewardAmount);\n            }\n        }\n    }\n\n    function updateGameInterval(uint256 _gameIntervalInSeconds)\n        public\n        onlyOwner\n    {\n        gameIntervalInSeconds = _gameIntervalInSeconds;\n    }\n\n    function updateProvableCustomGasLimit(uint256 _provableCustomGasLimit)\n        public\n        onlyOwner\n    {\n        provableCustomGasLimit = _provableCustomGasLimit;\n    }\n\n    function withdraw() public {\n        uint256 amount = balances[msg.sender];\n        balances[msg.sender] = 0;\n        msg.sender.transfer(amount);\n    }\n\n    function withdrawBounty() public onlyOwner {\n        uint256 amount = contractBounty;\n        contractBounty = 0;\n        address(uint160(owner())).transfer(amount);\n    }\n}\n",
  "sourcePath": "/Users/denis/_/_Workspace/e-loto/truffle/contracts/E_loto.sol",
  "compiler": {
    "name": "solc",
    "version": "0.5.16+commit.9c3226ce.Emscripten.clang"
  },
  "schemaVersion": "3.0.23",
  "updatedAt": "2020-04-02T15:40:16.690Z",
  "networkType": "ethereum",
  "devdoc": {
    "methods": {
      "isOwner()": {
        "details": "Returns true if the caller is the current owner."
      },
      "owner()": {
        "details": "Returns the address of the current owner."
      },
      "renounceOwnership()": {
        "details": "Leaves the contract without owner. It will not be possible to call `onlyOwner` functions anymore. Can only be called by the current owner.     * NOTE: Renouncing ownership will leave the contract without an owner, thereby removing any functionality that is only available to the owner."
      },
      "transferOwnership(address)": {
        "details": "Transfers ownership of the contract to a new account (`newOwner`). Can only be called by the current owner."
      }
    }
  },
  "userdoc": {
    "methods": {}
  }
}