{
  "contractName": "E_loto",
  "abi": [
    {
      "inputs": [
        {
          "internalType": "uint256",
          "name": "_gameIntervalInSeconds",
          "type": "uint256"
        },
        {
          "internalType": "uint256",
          "name": "_provableCustomGasLimit",
          "type": "uint256"
        }
      ],
      "payable": true,
      "stateMutability": "payable",
      "type": "constructor"
    },
    {
      "anonymous": false,
      "inputs": [
        {
          "indexed": false,
          "internalType": "string",
          "name": "_description",
          "type": "string"
        }
      ],
      "name": "NewProvableQuery",
      "type": "event"
    },
    {
      "anonymous": false,
      "inputs": [
        {
          "indexed": true,
          "internalType": "address",
          "name": "_staker",
          "type": "address"
        },
        {
          "indexed": true,
          "internalType": "uint8",
          "name": "_bet",
          "type": "uint8"
        }
      ],
      "name": "NewStake",
      "type": "event"
    },
    {
      "anonymous": false,
      "inputs": [
        {
          "indexed": true,
          "internalType": "uint8",
          "name": "_winningNumber",
          "type": "uint8"
        },
        {
          "indexed": false,
          "internalType": "address",
          "name": "_winner",
          "type": "address"
        },
        {
          "indexed": false,
          "internalType": "uint256",
          "name": "_rewardAmount",
          "type": "uint256"
        }
      ],
      "name": "NewWinner",
      "type": "event"
    },
    {
      "anonymous": false,
      "inputs": [
        {
          "indexed": false,
          "internalType": "string",
          "name": "_description",
          "type": "string"
        }
      ],
      "name": "NoStakes",
      "type": "event"
    },
    {
      "anonymous": false,
      "inputs": [
        {
          "indexed": false,
          "internalType": "string",
          "name": "_description",
          "type": "string"
        },
        {
          "indexed": false,
          "internalType": "uint8",
          "name": "_winningNumber",
          "type": "uint8"
        }
      ],
      "name": "NoWinners",
      "type": "event"
    },
    {
      "anonymous": false,
      "inputs": [
        {
          "indexed": true,
          "internalType": "address",
          "name": "previousOwner",
          "type": "address"
        },
        {
          "indexed": true,
          "internalType": "address",
          "name": "newOwner",
          "type": "address"
        }
      ],
      "name": "OwnershipTransferred",
      "type": "event"
    },
    {
      "constant": true,
      "inputs": [
        {
          "internalType": "address",
          "name": "",
          "type": "address"
        }
      ],
      "name": "balances",
      "outputs": [
        {
          "internalType": "uint256",
          "name": "",
          "type": "uint256"
        }
      ],
      "payable": false,
      "stateMutability": "view",
      "type": "function"
    },
    {
      "constant": true,
      "inputs": [],
      "name": "contractBounty",
      "outputs": [
        {
          "internalType": "uint256",
          "name": "",
          "type": "uint256"
        }
      ],
      "payable": false,
      "stateMutability": "view",
      "type": "function"
    },
    {
      "constant": true,
      "inputs": [],
      "name": "gameId",
      "outputs": [
        {
          "internalType": "bytes32",
          "name": "",
          "type": "bytes32"
        }
      ],
      "payable": false,
      "stateMutability": "view",
      "type": "function"
    },
    {
      "constant": true,
      "inputs": [],
      "name": "gameIntervalInSeconds",
      "outputs": [
        {
          "internalType": "uint256",
          "name": "",
          "type": "uint256"
        }
      ],
      "payable": false,
      "stateMutability": "view",
      "type": "function"
    },
    {
      "constant": true,
      "inputs": [
        {
          "internalType": "bytes32",
          "name": "",
          "type": "bytes32"
        }
      ],
      "name": "games",
      "outputs": [
        {
          "internalType": "uint256",
          "name": "stakesTotal",
          "type": "uint256"
        },
        {
          "internalType": "bool",
          "name": "isClosed",
          "type": "bool"
        }
      ],
      "payable": false,
      "stateMutability": "view",
      "type": "function"
    },
    {
      "constant": true,
      "inputs": [],
      "name": "isOwner",
      "outputs": [
        {
          "internalType": "bool",
          "name": "",
          "type": "bool"
        }
      ],
      "payable": false,
      "stateMutability": "view",
      "type": "function"
    },
    {
      "constant": true,
      "inputs": [],
      "name": "owner",
      "outputs": [
        {
          "internalType": "address",
          "name": "",
          "type": "address"
        }
      ],
      "payable": false,
      "stateMutability": "view",
      "type": "function"
    },
    {
      "constant": true,
      "inputs": [
        {
          "internalType": "bytes32",
          "name": "",
          "type": "bytes32"
        }
      ],
      "name": "pendingQueries",
      "outputs": [
        {
          "internalType": "bool",
          "name": "",
          "type": "bool"
        }
      ],
      "payable": false,
      "stateMutability": "view",
      "type": "function"
    },
    {
      "constant": true,
      "inputs": [],
      "name": "provableCustomGasLimit",
      "outputs": [
        {
          "internalType": "uint256",
          "name": "",
          "type": "uint256"
        }
      ],
      "payable": false,
      "stateMutability": "view",
      "type": "function"
    },
    {
      "constant": false,
      "inputs": [],
      "name": "renounceOwnership",
      "outputs": [],
      "payable": false,
      "stateMutability": "nonpayable",
      "type": "function"
    },
    {
      "constant": false,
      "inputs": [
        {
          "internalType": "address",
          "name": "newOwner",
          "type": "address"
        }
      ],
      "name": "transferOwnership",
      "outputs": [],
      "payable": false,
      "stateMutability": "nonpayable",
      "type": "function"
    },
    {
      "constant": false,
      "inputs": [
        {
          "internalType": "bytes32",
          "name": "_queryId",
          "type": "bytes32"
        },
        {
          "internalType": "string",
          "name": "_resultRandom",
          "type": "string"
        }
      ],
      "name": "__callback",
      "outputs": [],
      "payable": false,
      "stateMutability": "nonpayable",
      "type": "function"
    },
    {
      "constant": false,
      "inputs": [
        {
          "internalType": "bytes32",
          "name": "_myid",
          "type": "bytes32"
        },
        {
          "internalType": "string",
          "name": "_result",
          "type": "string"
        },
        {
          "internalType": "bytes",
          "name": "_proof",
          "type": "bytes"
        }
      ],
      "name": "__callback",
      "outputs": [],
      "payable": false,
      "stateMutability": "nonpayable",
      "type": "function"
    },
    {
      "constant": false,
      "inputs": [],
      "name": "queryNextWinningNumber",
      "outputs": [],
      "payable": true,
      "stateMutability": "payable",
      "type": "function"
    },
    {
      "constant": false,
      "inputs": [
        {
          "internalType": "uint8",
          "name": "_bet",
          "type": "uint8"
        }
      ],
      "name": "placeStake",
      "outputs": [],
      "payable": true,
      "stateMutability": "payable",
      "type": "function"
    },
    {
      "constant": false,
      "inputs": [
        {
          "internalType": "uint256",
          "name": "_gameIntervalInSeconds",
          "type": "uint256"
        }
      ],
      "name": "updateGameInterval",
      "outputs": [],
      "payable": false,
      "stateMutability": "nonpayable",
      "type": "function"
    },
    {
      "constant": false,
      "inputs": [
        {
          "internalType": "uint256",
          "name": "_provableCustomGasLimit",
          "type": "uint256"
        }
      ],
      "name": "updateProvableCustomGasLimit",
      "outputs": [],
      "payable": false,
      "stateMutability": "nonpayable",
      "type": "function"
    },
    {
      "constant": false,
      "inputs": [],
      "name": "withdraw",
      "outputs": [],
      "payable": false,
      "stateMutability": "nonpayable",
      "type": "function"
    },
    {
      "constant": false,
      "inputs": [],
      "name": "withdrawBounty",
      "outputs": [],
      "payable": false,
      "stateMutability": "nonpayable",
      "type": "function"
    }
  ],
  "bytecode": "0x608060405260405162004a9f38038062004a9f833981810160405260408110156200002957600080fd5b8101908080519060200190929190805190602001909291905050506000620000566200011a60201b60201c565b9050806000806101000a81548173ffffffffffffffffffffffffffffffffffffffff021916908373ffffffffffffffffffffffffffffffffffffffff1602179055508073ffffffffffffffffffffffffffffffffffffffff16600073ffffffffffffffffffffffffffffffffffffffff167f8be0079c531659141344cd1fd0a4f28419497f9722a3daafe3b4186f6b6457e060405160405180910390a3508160068190555080600781905550620001126200012260201b60201c565b50506200173d565b600033905090565b62000132620003dc60201b60201c565b73ffffffffffffffffffffffffffffffffffffffff163373ffffffffffffffffffffffffffffffffffffffff1614806200019757503073ffffffffffffffffffffffffffffffffffffffff163373ffffffffffffffffffffffffffffffffffffffff16145b80620001dd5750620001ae6200071860201b60201c565b73ffffffffffffffffffffffffffffffffffffffff163373ffffffffffffffffffffffffffffffffffffffff16145b62000234576040517f08c379a000000000000000000000000000000000000000000000000000000000815260040180806020018281038252603181526020018062004a1b6031913960400191505060405180910390fd5b476200027e6040518060400160405280600c81526020017f576f6c6672616d416c70686100000000000000000000000000000000000000008152506007546200074160201b60201c565b1115620002d7577f4cd3e05558dc434b7b222972fa66803efd137976460dd5bd71d67fdf40195be460405180806020018281038252604b815260200180620049d0604b913960600191505060405180910390a1620003da565b620003596006546040518060400160405280600c81526020017f576f6c6672616d416c70686100000000000000000000000000000000000000008152506040518060400160405280601d81526020017f72616e646f6d206e756d626572206265747765656e203020616e64203900000081525060075462000afd60201b60201c565b6009819055507f4cd3e05558dc434b7b222972fa66803efd137976460dd5bd71d67fdf40195be460405180806020018281038252605381526020018062004a4c6053913960600191505060405180910390a16001600c6000600954815260200190815260200160002060006101000a81548160ff0219169083151502179055505b565b60008073ffffffffffffffffffffffffffffffffffffffff16600260009054906101000a900473ffffffffffffffffffffffffffffffffffffffff1673ffffffffffffffffffffffffffffffffffffffff1614806200046d575060006200046b600260009054906101000a900473ffffffffffffffffffffffffffffffffffffffff166200107f60201b60201c565b145b1562000487576200048560006200108a60201b60201c565b505b600260009054906101000a900473ffffffffffffffffffffffffffffffffffffffff1673ffffffffffffffffffffffffffffffffffffffff166338cc48316040518163ffffffff1660e01b8152600401602060405180830381600087803b158015620004f257600080fd5b505af115801562000507573d6000803e3d6000fd5b505050506040513d60208110156200051e57600080fd5b810190808051906020019092919050505073ffffffffffffffffffffffffffffffffffffffff16600160009054906101000a900473ffffffffffffffffffffffffffffffffffffffff1673ffffffffffffffffffffffffffffffffffffffff16146200066d57600260009054906101000a900473ffffffffffffffffffffffffffffffffffffffff1673ffffffffffffffffffffffffffffffffffffffff166338cc48316040518163ffffffff1660e01b8152600401602060405180830381600087803b158015620005ef57600080fd5b505af115801562000604573d6000803e3d6000fd5b505050506040513d60208110156200061b57600080fd5b8101908080519060200190929190505050600160006101000a81548173ffffffffffffffffffffffffffffffffffffffff021916908373ffffffffffffffffffffffffffffffffffffffff1602179055505b600160009054906101000a900473ffffffffffffffffffffffffffffffffffffffff1673ffffffffffffffffffffffffffffffffffffffff1663c281d19e6040518163ffffffff1660e01b815260040160206040518083038186803b158015620006d657600080fd5b505afa158015620006eb573d6000803e3d6000fd5b505050506040513d60208110156200070257600080fd5b8101908080519060200190929190505050905090565b60008060009054906101000a900473ffffffffffffffffffffffffffffffffffffffff16905090565b60008073ffffffffffffffffffffffffffffffffffffffff16600260009054906101000a900473ffffffffffffffffffffffffffffffffffffffff1673ffffffffffffffffffffffffffffffffffffffff161480620007d257506000620007d0600260009054906101000a900473ffffffffffffffffffffffffffffffffffffffff166200107f60201b60201c565b145b15620007ec57620007ea60006200108a60201b60201c565b505b600260009054906101000a900473ffffffffffffffffffffffffffffffffffffffff1673ffffffffffffffffffffffffffffffffffffffff166338cc48316040518163ffffffff1660e01b8152600401602060405180830381600087803b1580156200085757600080fd5b505af11580156200086c573d6000803e3d6000fd5b505050506040513d60208110156200088357600080fd5b810190808051906020019092919050505073ffffffffffffffffffffffffffffffffffffffff16600160009054906101000a900473ffffffffffffffffffffffffffffffffffffffff1673ffffffffffffffffffffffffffffffffffffffff1614620009d257600260009054906101000a900473ffffffffffffffffffffffffffffffffffffffff1673ffffffffffffffffffffffffffffffffffffffff166338cc48316040518163ffffffff1660e01b8152600401602060405180830381600087803b1580156200095457600080fd5b505af115801562000969573d6000803e3d6000fd5b505050506040513d60208110156200098057600080fd5b8101908080519060200190929190505050600160006101000a81548173ffffffffffffffffffffffffffffffffffffffff021916908373ffffffffffffffffffffffffffffffffffffffff1602179055505b600160009054906101000a900473ffffffffffffffffffffffffffffffffffffffff1673ffffffffffffffffffffffffffffffffffffffff16632ef3accc84846040518363ffffffff1660e01b81526004018080602001838152602001828103825284818151815260200191508051906020019080838360005b8381101562000a6957808201518184015260208101905062000a4c565b50505050905090810190601f16801562000a975780820380516001836020036101000a031916815260200191505b509350505050602060405180830381600087803b15801562000ab857600080fd5b505af115801562000acd573d6000803e3d6000fd5b505050506040513d602081101562000ae457600080fd5b8101908080519060200190929190505050905092915050565b60008073ffffffffffffffffffffffffffffffffffffffff16600260009054906101000a900473ffffffffffffffffffffffffffffffffffffffff1673ffffffffffffffffffffffffffffffffffffffff16148062000b8e5750600062000b8c600260009054906101000a900473ffffffffffffffffffffffffffffffffffffffff166200107f60201b60201c565b145b1562000ba85762000ba660006200108a60201b60201c565b505b600260009054906101000a900473ffffffffffffffffffffffffffffffffffffffff1673ffffffffffffffffffffffffffffffffffffffff166338cc48316040518163ffffffff1660e01b8152600401602060405180830381600087803b15801562000c1357600080fd5b505af115801562000c28573d6000803e3d6000fd5b505050506040513d602081101562000c3f57600080fd5b810190808051906020019092919050505073ffffffffffffffffffffffffffffffffffffffff16600160009054906101000a900473ffffffffffffffffffffffffffffffffffffffff1673ffffffffffffffffffffffffffffffffffffffff161462000d8e57600260009054906101000a900473ffffffffffffffffffffffffffffffffffffffff1673ffffffffffffffffffffffffffffffffffffffff166338cc48316040518163ffffffff1660e01b8152600401602060405180830381600087803b15801562000d1057600080fd5b505af115801562000d25573d6000803e3d6000fd5b505050506040513d602081101562000d3c57600080fd5b8101908080519060200190929190505050600160006101000a81548173ffffffffffffffffffffffffffffffffffffffff021916908373ffffffffffffffffffffffffffffffffffffffff1602179055505b6000600160009054906101000a900473ffffffffffffffffffffffffffffffffffffffff1673ffffffffffffffffffffffffffffffffffffffff16632ef3accc86856040518363ffffffff1660e01b81526004018080602001838152602001828103825284818151815260200191508051906020019080838360005b8381101562000e2757808201518184015260208101905062000e0a565b50505050905090810190601f16801562000e555780820380516001836020036101000a031916815260200191505b509350505050602060405180830381600087803b15801562000e7657600080fd5b505af115801562000e8b573d6000803e3d6000fd5b505050506040513d602081101562000ea257600080fd5b81019080805190602001909291905050509050823a02670de0b6b3a76400000181111562000ed7576000801b91505062001077565b600160009054906101000a900473ffffffffffffffffffffffffffffffffffffffff1673ffffffffffffffffffffffffffffffffffffffff1663c51be90f82888888886040518663ffffffff1660e01b8152600401808581526020018060200180602001848152602001838103835286818151815260200191508051906020019080838360005b8381101562000f7b57808201518184015260208101905062000f5e565b50505050905090810190601f16801562000fa95780820380516001836020036101000a031916815260200191505b50838103825285818151815260200191508051906020019080838360005b8381101562000fe457808201518184015260208101905062000fc7565b50505050905090810190601f168015620010125780820380516001836020036101000a031916815260200191505b5096505050505050506020604051808303818588803b1580156200103557600080fd5b505af11580156200104a573d6000803e3d6000fd5b50505050506040513d60208110156200106257600080fd5b81019080805190602001909291905050509150505b949350505050565b6000813b9050919050565b60006200109c620010a360201b60201c565b9050919050565b600080620010cb731d3b2638a7cc9f2cb3d298a3da7a90b67e5506ed6200107f60201b60201c565b11156200117757731d3b2638a7cc9f2cb3d298a3da7a90b67e5506ed600260006101000a81548173ffffffffffffffffffffffffffffffffffffffff021916908373ffffffffffffffffffffffffffffffffffffffff1602179055506200116d6040518060400160405280600b81526020017f6574685f6d61696e6e65740000000000000000000000000000000000000000008152506200167260201b60201c565b600190506200166f565b60006200119e73c03a2615d5efaf5f49f60b7bb6583eaec212fdf16200107f60201b60201c565b11156200124a5773c03a2615d5efaf5f49f60b7bb6583eaec212fdf1600260006101000a81548173ffffffffffffffffffffffffffffffffffffffff021916908373ffffffffffffffffffffffffffffffffffffffff160217905550620012406040518060400160405280600c81526020017f6574685f726f707374656e3300000000000000000000000000000000000000008152506200167260201b60201c565b600190506200166f565b60006200127173b7a07bcf2ba2f2703b24c0691b5278999c59ac7e6200107f60201b60201c565b11156200131d5773b7a07bcf2ba2f2703b24c0691b5278999c59ac7e600260006101000a81548173ffffffffffffffffffffffffffffffffffffffff021916908373ffffffffffffffffffffffffffffffffffffffff160217905550620013136040518060400160405280600981526020017f6574685f6b6f76616e00000000000000000000000000000000000000000000008152506200167260201b60201c565b600190506200166f565b60006200134473146500cfd35b22e4a392fe0adc06de1a1368ed486200107f60201b60201c565b1115620013f05773146500cfd35b22e4a392fe0adc06de1a1368ed48600260006101000a81548173ffffffffffffffffffffffffffffffffffffffff021916908373ffffffffffffffffffffffffffffffffffffffff160217905550620013e66040518060400160405280600b81526020017f6574685f72696e6b6562790000000000000000000000000000000000000000008152506200167260201b60201c565b600190506200166f565b60006200141773a2998efd205fb9d4b4963afb70778d6354ad3a416200107f60201b60201c565b1115620014c35773a2998efd205fb9d4b4963afb70778d6354ad3a41600260006101000a81548173ffffffffffffffffffffffffffffffffffffffff021916908373ffffffffffffffffffffffffffffffffffffffff160217905550620014b96040518060400160405280600a81526020017f6574685f676f65726c69000000000000000000000000000000000000000000008152506200167260201b60201c565b600190506200166f565b6000620014ea736f485c8bf6fc43ea212e93bbf8ce046c7f1cb4756200107f60201b60201c565b11156200155057736f485c8bf6fc43ea212e93bbf8ce046c7f1cb475600260006101000a81548173ffffffffffffffffffffffffffffffffffffffff021916908373ffffffffffffffffffffffffffffffffffffffff160217905550600190506200166f565b6000620015777320e12a1f859b3feae5fb2a0a32c18f5a65555bbf6200107f60201b60201c565b1115620015dd577320e12a1f859b3feae5fb2a0a32c18f5a65555bbf600260006101000a81548173ffffffffffffffffffffffffffffffffffffffff021916908373ffffffffffffffffffffffffffffffffffffffff160217905550600190506200166f565b6000620016047351efaf4c8b3c9afbd5ab9f4bbc82784ab6ef8faa6200107f60201b60201c565b11156200166a577351efaf4c8b3c9afbd5ab9f4bbc82784ab6ef8faa600260006101000a81548173ffffffffffffffffffffffffffffffffffffffff021916908373ffffffffffffffffffffffffffffffffffffffff160217905550600190506200166f565b600090505b90565b80600390805190602001906200168a9291906200168e565b5050565b828054600181600116156101000203166002900490600052602060002090601f016020900481019282601f10620016d157805160ff191683800117855562001702565b8280016001018555821562001702579182015b8281111562001701578251825591602001919060010190620016e4565b5b50905062001711919062001715565b5090565b6200173a91905b80821115620017365760008160009055506001016200171c565b5090565b90565b613283806200174d6000396000f3fe6080604052600436106101145760003560e01c8063715018a6116100a0578063d7c81b5511610064578063d7c81b55146105b3578063dd4559f8146105de578063ede90e9914610609578063f2fde38b14610634578063f579f8821461068557610114565b8063715018a61461048857806389a2cdcb1461049f5780638da5cb5b146104f25780638f32d59b1461054957806393b8e5b01461057857610114565b80632cf4e56f116100e75780632cf4e56f146102ac57806338bbfa50146102c35780633ccfd60b1461042c578063693861fb146104435780636bc31d351461044d57610114565b806321ceaaa41461011957806327dc297e1461014a57806327e235e31461021c5780632a25545a14610281575b600080fd5b6101486004803603602081101561012f57600080fd5b81019080803560ff1690602001909291905050506106df565b005b34801561015657600080fd5b5061021a6004803603604081101561016d57600080fd5b81019080803590602001909291908035906020019064010000000081111561019457600080fd5b8201836020820111156101a657600080fd5b803590602001918460018302840111640100000000831117156101c857600080fd5b91908080601f016020809104026020016040519081016040528093929190818152602001838380828437600081840152601f19601f820116905080830192505050505050509192919290505050610abe565b005b34801561022857600080fd5b5061026b6004803603602081101561023f57600080fd5b81019080803573ffffffffffffffffffffffffffffffffffffffff169060200190929190505050610c29565b6040518082815260200191505060405180910390f35b34801561028d57600080fd5b50610296610c41565b6040518082815260200191505060405180910390f35b3480156102b857600080fd5b506102c1610c47565b005b3480156102cf57600080fd5b5061042a600480360360608110156102e657600080fd5b81019080803590602001909291908035906020019064010000000081111561030d57600080fd5b82018360208201111561031f57600080fd5b8035906020019184600183028401116401000000008311171561034157600080fd5b91908080601f016020809104026020016040519081016040528093929190818152602001838380828437600081840152601f19601f820116905080830192505050505050509192919290803590602001906401000000008111156103a457600080fd5b8201836020820111156103b657600080fd5b803590602001918460018302840111640100000000831117156103d857600080fd5b91908080601f016020809104026020016040519081016040528093929190818152602001838380828437600081840152601f19601f820116905080830192505050505050509192919290505050610d21565b005b34801561043857600080fd5b50610441610d44565b005b61044b610e17565b005b34801561045957600080fd5b506104866004803603602081101561047057600080fd5b81019080803590602001909291905050506110a9565b005b34801561049457600080fd5b5061049d61112d565b005b3480156104ab57600080fd5b506104d8600480360360208110156104c257600080fd5b8101908080359060200190929190505050611266565b604051808215151515815260200191505060405180910390f35b3480156104fe57600080fd5b50610507611286565b604051808273ffffffffffffffffffffffffffffffffffffffff1673ffffffffffffffffffffffffffffffffffffffff16815260200191505060405180910390f35b34801561055557600080fd5b5061055e6112af565b604051808215151515815260200191505060405180910390f35b34801561058457600080fd5b506105b16004803603602081101561059b57600080fd5b810190808035906020019092919050505061130d565b005b3480156105bf57600080fd5b506105c8611391565b6040518082815260200191505060405180910390f35b3480156105ea57600080fd5b506105f3611397565b6040518082815260200191505060405180910390f35b34801561061557600080fd5b5061061e61139d565b6040518082815260200191505060405180910390f35b34801561064057600080fd5b506106836004803603602081101561065757600080fd5b81019080803573ffffffffffffffffffffffffffffffffffffffff1690602001909291905050506113a3565b005b34801561069157600080fd5b506106be600480360360208110156106a857600080fd5b8101908080359060200190929190505050611429565b60405180838152602001821515151581526020019250505060405180910390f35b80600a8160ff1610610759576040517f08c379a000000000000000000000000000000000000000000000000000000000815260040180806020018281038252600e8152602001807f426574206973276e2076616c696400000000000000000000000000000000000081525060200191505060405180910390fd5b66354a6ba7a1800034146107d5576040517f08c379a000000000000000000000000000000000000000000000000000000000815260040180806020018281038252601f8152602001807f5374616b65206d75737420626520657175616c20302e3031352065746865720081525060200191505060405180910390fd5b6000600b6000600954815260200190815260200160002090508060040160009054906101000a900460ff1615610873576040517f08c379a000000000000000000000000000000000000000000000000000000000815260040180806020018281038252600e8152602001807f47616d6520697320636c6f73656400000000000000000000000000000000000081525060200191505060405180910390fd5b8060000160003373ffffffffffffffffffffffffffffffffffffffff1673ffffffffffffffffffffffffffffffffffffffff16815260200190815260200160002060009054906101000a900460ff1615610935576040517f08c379a00000000000000000000000000000000000000000000000000000000081526004018080602001828103825260208152602001807f596f75206861766520616c726561647920706c6163656420796f75722062657481525060200191505060405180910390fd5b60018160000160003373ffffffffffffffffffffffffffffffffffffffff1673ffffffffffffffffffffffffffffffffffffffff16815260200190815260200160002060006101000a81548160ff0219169083151502179055506109a634826003015461145a90919063ffffffff16565b81600301819055508060010160405180604001604052803373ffffffffffffffffffffffffffffffffffffffff1681526020018560ff1681525090806001815401808255809150509060018203906000526020600020016000909192909190915060008201518160000160006101000a81548173ffffffffffffffffffffffffffffffffffffffff021916908373ffffffffffffffffffffffffffffffffffffffff16021790555060208201518160000160146101000a81548160ff021916908360ff1602179055505050508260ff163373ffffffffffffffffffffffffffffffffffffffff167ff690833cd093659c3e4a6f0abe12eb68fd27c696c85a571552f24c12485cd02260405160405180910390a3505050565b610ac66114e2565b73ffffffffffffffffffffffffffffffffffffffff163373ffffffffffffffffffffffffffffffffffffffff1614610b49576040517f08c379a00000000000000000000000000000000000000000000000000000000081526004018080602001828103825260328152602001806130a96032913960400191505060405180910390fd5b60011515600c600084815260200190815260200160002060009054906101000a900460ff16151514610be3576040517f08c379a00000000000000000000000000000000000000000000000000000000081526004018080602001828103825260188152602001807f517565727920686173206265656e2070726f636573736564000000000000000081525060200191505060405180910390fd5b6000610bee82611802565b9050610bf981611816565b610c01610e17565b600c600084815260200190815260200160002060006101000a81549060ff0219169055505050565b600a6020528060005260406000206000915090505481565b60085481565b610c4f6112af565b610cc1576040517f08c379a00000000000000000000000000000000000000000000000000000000081526004018080602001828103825260208152602001807f4f776e61626c653a2063616c6c6572206973206e6f7420746865206f776e657281525060200191505060405180910390fd5b600060085490506000600881905550610cd8611286565b73ffffffffffffffffffffffffffffffffffffffff166108fc829081150290604051600060405180830381858888f19350505050158015610d1d573d6000803e3d6000fd5b5050565b6000801b600460008060001b815260200190815260200160002081905550505050565b6000600a60003373ffffffffffffffffffffffffffffffffffffffff1673ffffffffffffffffffffffffffffffffffffffff1681526020019081526020016000205490506000600a60003373ffffffffffffffffffffffffffffffffffffffff1673ffffffffffffffffffffffffffffffffffffffff168152602001908152602001600020819055503373ffffffffffffffffffffffffffffffffffffffff166108fc829081150290604051600060405180830381858888f19350505050158015610e13573d6000803e3d6000fd5b5050565b610e1f6114e2565b73ffffffffffffffffffffffffffffffffffffffff163373ffffffffffffffffffffffffffffffffffffffff161480610e8357503073ffffffffffffffffffffffffffffffffffffffff163373ffffffffffffffffffffffffffffffffffffffff16145b80610ec05750610e91611286565b73ffffffffffffffffffffffffffffffffffffffff163373ffffffffffffffffffffffffffffffffffffffff16145b610f15576040517f08c379a000000000000000000000000000000000000000000000000000000000815260040180806020018281038252603181526020018061314c6031913960400191505060405180910390fd5b47610f576040518060400160405280600c81526020017f576f6c6672616d416c70686100000000000000000000000000000000000000008152506007546119fd565b1115610fad577f4cd3e05558dc434b7b222972fa66803efd137976460dd5bd71d67fdf40195be460405180806020018281038252604b815260200180613101604b913960600191505060405180910390a16110a7565b6110276006546040518060400160405280600c81526020017f576f6c6672616d416c70686100000000000000000000000000000000000000008152506040518060400160405280601d81526020017f72616e646f6d206e756d626572206265747765656e203020616e642039000000815250600754611d9a565b6009819055507f4cd3e05558dc434b7b222972fa66803efd137976460dd5bd71d67fdf40195be46040518080602001828103825260538152602001806131a96053913960600191505060405180910390a16001600c6000600954815260200190815260200160002060006101000a81548160ff0219169083151502179055505b565b6110b16112af565b611123576040517f08c379a00000000000000000000000000000000000000000000000000000000081526004018080602001828103825260208152602001807f4f776e61626c653a2063616c6c6572206973206e6f7420746865206f776e657281525060200191505060405180910390fd5b8060068190555050565b6111356112af565b6111a7576040517f08c379a00000000000000000000000000000000000000000000000000000000081526004018080602001828103825260208152602001807f4f776e61626c653a2063616c6c6572206973206e6f7420746865206f776e657281525060200191505060405180910390fd5b600073ffffffffffffffffffffffffffffffffffffffff166000809054906101000a900473ffffffffffffffffffffffffffffffffffffffff1673ffffffffffffffffffffffffffffffffffffffff167f8be0079c531659141344cd1fd0a4f28419497f9722a3daafe3b4186f6b6457e060405160405180910390a360008060006101000a81548173ffffffffffffffffffffffffffffffffffffffff021916908373ffffffffffffffffffffffffffffffffffffffff160217905550565b600c6020528060005260406000206000915054906101000a900460ff1681565b60008060009054906101000a900473ffffffffffffffffffffffffffffffffffffffff16905090565b60008060009054906101000a900473ffffffffffffffffffffffffffffffffffffffff1673ffffffffffffffffffffffffffffffffffffffff166112f16122f2565b73ffffffffffffffffffffffffffffffffffffffff1614905090565b6113156112af565b611387576040517f08c379a00000000000000000000000000000000000000000000000000000000081526004018080602001828103825260208152602001807f4f776e61626c653a2063616c6c6572206973206e6f7420746865206f776e657281525060200191505060405180910390fd5b8060078190555050565b60095481565b60065481565b60075481565b6113ab6112af565b61141d576040517f08c379a00000000000000000000000000000000000000000000000000000000081526004018080602001828103825260208152602001807f4f776e61626c653a2063616c6c6572206973206e6f7420746865206f776e657281525060200191505060405180910390fd5b611426816122fa565b50565b600b6020528060005260406000206000915090508060030154908060040160009054906101000a900460ff16905082565b6000808284019050838110156114d8576040517f08c379a000000000000000000000000000000000000000000000000000000000815260040180806020018281038252601b8152602001807f536166654d6174683a206164646974696f6e206f766572666c6f77000000000081525060200191505060405180910390fd5b8091505092915050565b60008073ffffffffffffffffffffffffffffffffffffffff16600260009054906101000a900473ffffffffffffffffffffffffffffffffffffffff1673ffffffffffffffffffffffffffffffffffffffff16148061156a57506000611568600260009054906101000a900473ffffffffffffffffffffffffffffffffffffffff1661243e565b145b1561157b576115796000612449565b505b600260009054906101000a900473ffffffffffffffffffffffffffffffffffffffff1673ffffffffffffffffffffffffffffffffffffffff166338cc48316040518163ffffffff1660e01b8152600401602060405180830381600087803b1580156115e557600080fd5b505af11580156115f9573d6000803e3d6000fd5b505050506040513d602081101561160f57600080fd5b810190808051906020019092919050505073ffffffffffffffffffffffffffffffffffffffff16600160009054906101000a900473ffffffffffffffffffffffffffffffffffffffff1673ffffffffffffffffffffffffffffffffffffffff161461175a57600260009054906101000a900473ffffffffffffffffffffffffffffffffffffffff1673ffffffffffffffffffffffffffffffffffffffff166338cc48316040518163ffffffff1660e01b8152600401602060405180830381600087803b1580156116de57600080fd5b505af11580156116f2573d6000803e3d6000fd5b505050506040513d602081101561170857600080fd5b8101908080519060200190929190505050600160006101000a81548173ffffffffffffffffffffffffffffffffffffffff021916908373ffffffffffffffffffffffffffffffffffffffff1602179055505b600160009054906101000a900473ffffffffffffffffffffffffffffffffffffffff1673ffffffffffffffffffffffffffffffffffffffff1663c281d19e6040518163ffffffff1660e01b815260040160206040518083038186803b1580156117c257600080fd5b505afa1580156117d6573d6000803e3d6000fd5b505050506040513d60208110156117ec57600080fd5b8101908080519060200190929190505050905090565b600061180f82600061245a565b9050919050565b6000600b60006009548152602001908152602001600020905060018160040160006101000a81548160ff0219169083151502179055506000816003015414156118c7577f8fc65652ab71bf5e0d78086b9f25b8e266a1b62738ab8a1f61a49ca3451a00f36040518080602001828103825260178152602001807f4e6f207374616b657320696e20746869732067616d652100000000000000000081525060200191505060405180910390a1506119fa565b60006118d68260010184612619565b9050600061191b6040518060400160405280600c81526020017f576f6c6672616d416c70686100000000000000000000000000000000000000008152506007546119fd565b9050600061193682856003015461268390919063ffffffff16565b9050600083111561196357600061194d82856126cd565b905061195d856001018288612743565b506119f5565b6119788160085461145a90919063ffffffff16565b6008819055507f70024d7bc577f788b98317f7922435b5eb15e7f3a98185ab74e8c95befd2822d8560405180806020018360ff1660ff168152602001828103825260188152602001807f4e6f2077696e6e65727320696e20746869732067616d652100000000000000008152506020019250505060405180910390a15b505050505b50565b60008073ffffffffffffffffffffffffffffffffffffffff16600260009054906101000a900473ffffffffffffffffffffffffffffffffffffffff1673ffffffffffffffffffffffffffffffffffffffff161480611a8557506000611a83600260009054906101000a900473ffffffffffffffffffffffffffffffffffffffff1661243e565b145b15611a9657611a946000612449565b505b600260009054906101000a900473ffffffffffffffffffffffffffffffffffffffff1673ffffffffffffffffffffffffffffffffffffffff166338cc48316040518163ffffffff1660e01b8152600401602060405180830381600087803b158015611b0057600080fd5b505af1158015611b14573d6000803e3d6000fd5b505050506040513d6020811015611b2a57600080fd5b810190808051906020019092919050505073ffffffffffffffffffffffffffffffffffffffff16600160009054906101000a900473ffffffffffffffffffffffffffffffffffffffff1673ffffffffffffffffffffffffffffffffffffffff1614611c7557600260009054906101000a900473ffffffffffffffffffffffffffffffffffffffff1673ffffffffffffffffffffffffffffffffffffffff166338cc48316040518163ffffffff1660e01b8152600401602060405180830381600087803b158015611bf957600080fd5b505af1158015611c0d573d6000803e3d6000fd5b505050506040513d6020811015611c2357600080fd5b8101908080519060200190929190505050600160006101000a81548173ffffffffffffffffffffffffffffffffffffffff021916908373ffffffffffffffffffffffffffffffffffffffff1602179055505b600160009054906101000a900473ffffffffffffffffffffffffffffffffffffffff1673ffffffffffffffffffffffffffffffffffffffff16632ef3accc84846040518363ffffffff1660e01b81526004018080602001838152602001828103825284818151815260200191508051906020019080838360005b83811015611d0a578082015181840152602081019050611cef565b50505050905090810190601f168015611d375780820380516001836020036101000a031916815260200191505b509350505050602060405180830381600087803b158015611d5757600080fd5b505af1158015611d6b573d6000803e3d6000fd5b505050506040513d6020811015611d8157600080fd5b8101908080519060200190929190505050905092915050565b60008073ffffffffffffffffffffffffffffffffffffffff16600260009054906101000a900473ffffffffffffffffffffffffffffffffffffffff1673ffffffffffffffffffffffffffffffffffffffff161480611e2257506000611e20600260009054906101000a900473ffffffffffffffffffffffffffffffffffffffff1661243e565b145b15611e3357611e316000612449565b505b600260009054906101000a900473ffffffffffffffffffffffffffffffffffffffff1673ffffffffffffffffffffffffffffffffffffffff166338cc48316040518163ffffffff1660e01b8152600401602060405180830381600087803b158015611e9d57600080fd5b505af1158015611eb1573d6000803e3d6000fd5b505050506040513d6020811015611ec757600080fd5b810190808051906020019092919050505073ffffffffffffffffffffffffffffffffffffffff16600160009054906101000a900473ffffffffffffffffffffffffffffffffffffffff1673ffffffffffffffffffffffffffffffffffffffff161461201257600260009054906101000a900473ffffffffffffffffffffffffffffffffffffffff1673ffffffffffffffffffffffffffffffffffffffff166338cc48316040518163ffffffff1660e01b8152600401602060405180830381600087803b158015611f9657600080fd5b505af1158015611faa573d6000803e3d6000fd5b505050506040513d6020811015611fc057600080fd5b8101908080519060200190929190505050600160006101000a81548173ffffffffffffffffffffffffffffffffffffffff021916908373ffffffffffffffffffffffffffffffffffffffff1602179055505b6000600160009054906101000a900473ffffffffffffffffffffffffffffffffffffffff1673ffffffffffffffffffffffffffffffffffffffff16632ef3accc86856040518363ffffffff1660e01b81526004018080602001838152602001828103825284818151815260200191508051906020019080838360005b838110156120a957808201518184015260208101905061208e565b50505050905090810190601f1680156120d65780820380516001836020036101000a031916815260200191505b509350505050602060405180830381600087803b1580156120f657600080fd5b505af115801561210a573d6000803e3d6000fd5b505050506040513d602081101561212057600080fd5b81019080805190602001909291905050509050823a02670de0b6b3a764000001811115612153576000801b9150506122ea565b600160009054906101000a900473ffffffffffffffffffffffffffffffffffffffff1673ffffffffffffffffffffffffffffffffffffffff1663c51be90f82888888886040518663ffffffff1660e01b8152600401808581526020018060200180602001848152602001838103835286818151815260200191508051906020019080838360005b838110156121f55780820151818401526020810190506121da565b50505050905090810190601f1680156122225780820380516001836020036101000a031916815260200191505b50838103825285818151815260200191508051906020019080838360005b8381101561225b578082015181840152602081019050612240565b50505050905090810190601f1680156122885780820380516001836020036101000a031916815260200191505b5096505050505050506020604051808303818588803b1580156122aa57600080fd5b505af11580156122be573d6000803e3d6000fd5b50505050506040513d60208110156122d557600080fd5b81019080805190602001909291905050509150505b949350505050565b600033905090565b600073ffffffffffffffffffffffffffffffffffffffff168173ffffffffffffffffffffffffffffffffffffffff161415612380576040517f08c379a00000000000000000000000000000000000000000000000000000000081526004018080602001828103825260268152602001806130db6026913960400191505060405180910390fd5b8073ffffffffffffffffffffffffffffffffffffffff166000809054906101000a900473ffffffffffffffffffffffffffffffffffffffff1673ffffffffffffffffffffffffffffffffffffffff167f8be0079c531659141344cd1fd0a4f28419497f9722a3daafe3b4186f6b6457e060405160405180910390a3806000806101000a81548173ffffffffffffffffffffffffffffffffffffffff021916908373ffffffffffffffffffffffffffffffffffffffff16021790555050565b6000813b9050919050565b60006124536128c2565b9050919050565b600060608390506000809050600080905060008090505b83518110156125fa57603084828151811061248857fe5b602001015160f81c60f81b60f81c60ff16101580156124c4575060398482815181106124b057fe5b602001015160f81c60f81b60f81c60ff1611155b156125165781156124e75760008614156124dd576125fa565b8580600190039650505b600a8302925060308482815181106124fb57fe5b602001015160f81c60f81b60f81c60ff1603830192506125ed565b602e84828151811061252457fe5b602001015160f81c60f81b60f81c60ff16141561259b578115612592576040517f08c379a000000000000000000000000000000000000000000000000000000000815260040180806020018281038252602c815260200180613223602c913960400191505060405180910390fd5b600191506125ec565b6040517f08c379a000000000000000000000000000000000000000000000000000000000815260040180806020018281038252602c81526020018061317d602c913960400191505060405180910390fd5b5b8080600101915050612471565b50600085111561260d5784600a0a820291505b81935050505092915050565b60008060008090505b8480549050811015612678578360ff1685828154811061263e57fe5b9060005260206000200160000160149054906101000a900460ff1660ff16141561266b5781806001019250505b8080600101915050612622565b508091505092915050565b60006126c583836040518060400160405280601e81526020017f536166654d6174683a207375627472616374696f6e206f766572666c6f770000815250612e19565b905092915050565b600080821415612728576040517f08c379a00000000000000000000000000000000000000000000000000000000081526004018080602001828103825260278152602001806131fc6027913960400191505060405180910390fd5b61273b8284612ed990919063ffffffff16565b905092915050565b60008090505b83805490508110156128bc578160ff1684828154811061276557fe5b9060005260206000200160000160149054906101000a900460ff1660ff1614156128af5782600a600086848154811061279a57fe5b9060005260206000200160000160009054906101000a900473ffffffffffffffffffffffffffffffffffffffff1673ffffffffffffffffffffffffffffffffffffffff1673ffffffffffffffffffffffffffffffffffffffff168152602001908152602001600020819055508160ff167fa8e3695746830d3c956d8cff1478b7fc8669d5f20736c69dcd7688912c4dc2b785838154811061283757fe5b9060005260206000200160000160009054906101000a900473ffffffffffffffffffffffffffffffffffffffff1685604051808373ffffffffffffffffffffffffffffffffffffffff1673ffffffffffffffffffffffffffffffffffffffff1681526020018281526020019250505060405180910390a25b8080600101915050612749565b50505050565b6000806128e2731d3b2638a7cc9f2cb3d298a3da7a90b67e5506ed61243e565b111561298457731d3b2638a7cc9f2cb3d298a3da7a90b67e5506ed600260006101000a81548173ffffffffffffffffffffffffffffffffffffffff021916908373ffffffffffffffffffffffffffffffffffffffff16021790555061297b6040518060400160405280600b81526020017f6574685f6d61696e6e6574000000000000000000000000000000000000000000815250612f23565b60019050612e16565b60006129a373c03a2615d5efaf5f49f60b7bb6583eaec212fdf161243e565b1115612a455773c03a2615d5efaf5f49f60b7bb6583eaec212fdf1600260006101000a81548173ffffffffffffffffffffffffffffffffffffffff021916908373ffffffffffffffffffffffffffffffffffffffff160217905550612a3c6040518060400160405280600c81526020017f6574685f726f707374656e330000000000000000000000000000000000000000815250612f23565b60019050612e16565b6000612a6473b7a07bcf2ba2f2703b24c0691b5278999c59ac7e61243e565b1115612b065773b7a07bcf2ba2f2703b24c0691b5278999c59ac7e600260006101000a81548173ffffffffffffffffffffffffffffffffffffffff021916908373ffffffffffffffffffffffffffffffffffffffff160217905550612afd6040518060400160405280600981526020017f6574685f6b6f76616e0000000000000000000000000000000000000000000000815250612f23565b60019050612e16565b6000612b2573146500cfd35b22e4a392fe0adc06de1a1368ed4861243e565b1115612bc75773146500cfd35b22e4a392fe0adc06de1a1368ed48600260006101000a81548173ffffffffffffffffffffffffffffffffffffffff021916908373ffffffffffffffffffffffffffffffffffffffff160217905550612bbe6040518060400160405280600b81526020017f6574685f72696e6b656279000000000000000000000000000000000000000000815250612f23565b60019050612e16565b6000612be673a2998efd205fb9d4b4963afb70778d6354ad3a4161243e565b1115612c885773a2998efd205fb9d4b4963afb70778d6354ad3a41600260006101000a81548173ffffffffffffffffffffffffffffffffffffffff021916908373ffffffffffffffffffffffffffffffffffffffff160217905550612c7f6040518060400160405280600a81526020017f6574685f676f65726c6900000000000000000000000000000000000000000000815250612f23565b60019050612e16565b6000612ca7736f485c8bf6fc43ea212e93bbf8ce046c7f1cb47561243e565b1115612d0b57736f485c8bf6fc43ea212e93bbf8ce046c7f1cb475600260006101000a81548173ffffffffffffffffffffffffffffffffffffffff021916908373ffffffffffffffffffffffffffffffffffffffff16021790555060019050612e16565b6000612d2a7320e12a1f859b3feae5fb2a0a32c18f5a65555bbf61243e565b1115612d8e577320e12a1f859b3feae5fb2a0a32c18f5a65555bbf600260006101000a81548173ffffffffffffffffffffffffffffffffffffffff021916908373ffffffffffffffffffffffffffffffffffffffff16021790555060019050612e16565b6000612dad7351efaf4c8b3c9afbd5ab9f4bbc82784ab6ef8faa61243e565b1115612e11577351efaf4c8b3c9afbd5ab9f4bbc82784ab6ef8faa600260006101000a81548173ffffffffffffffffffffffffffffffffffffffff021916908373ffffffffffffffffffffffffffffffffffffffff16021790555060019050612e16565b600090505b90565b6000838311158290612ec6576040517f08c379a00000000000000000000000000000000000000000000000000000000081526004018080602001828103825283818151815260200191508051906020019080838360005b83811015612e8b578082015181840152602081019050612e70565b50505050905090810190601f168015612eb85780820380516001836020036101000a031916815260200191505b509250505060405180910390fd5b5060008385039050809150509392505050565b6000612f1b83836040518060400160405280601a81526020017f536166654d6174683a206469766973696f6e206279207a65726f000000000000815250612f3d565b905092915050565b8060039080519060200190612f39929190613003565b5050565b60008083118290612fe9576040517f08c379a00000000000000000000000000000000000000000000000000000000081526004018080602001828103825283818151815260200191508051906020019080838360005b83811015612fae578082015181840152602081019050612f93565b50505050905090810190601f168015612fdb5780820380516001836020036101000a031916815260200191505b509250505060405180910390fd5b506000838581612ff557fe5b049050809150509392505050565b828054600181600116156101000203166002900490600052602060002090601f016020900481019282601f1061304457805160ff1916838001178555613072565b82800160010185558215613072579182015b82811115613071578251825591602001919060010190613056565b5b50905061307f9190613083565b5090565b6130a591905b808211156130a1576000816000905550600101613089565b5090565b9056fe4f6e6c792070726f7661626c65204150492069732061626c6520746f2070726f6365737320746869732066756e6374696f6e4f776e61626c653a206e6577206f776e657220697320746865207a65726f206164647265737350726f7661626c6520717565727920776173204e4f542073656e742c20706c656173652061646420736f6d652045544820746f20636f76657220666f722074686520717565727920666565596f7520646f6e27742068617665207065726d697373696f6e20746f20636f6d706c657465207468697320616374696f6e4e6f6e2d6e756d6572616c2063686172616374657220656e636f756e746572656420696e20737472696e672150726f7661626c65207175657279207761732073656e742c2072616e646f6d206e756d62657220776173207265717565737465642c207374616e64696e6720627920666f722074686520616e737765722e2e2e57696e6e65727320616d6f756e742063616e206e6f7420626520657175616c20746f207a65726f4d6f7265207468616e206f6e6520646563696d616c20656e636f756e746572656420696e20737472696e6721a265627a7a72315820f3ed7e33b2d60ed41dd5faaeae3a956173ab34d0c4d284034f8a88321f4d787d64736f6c6343000510003250726f7661626c6520717565727920776173204e4f542073656e742c20706c656173652061646420736f6d652045544820746f20636f76657220666f722074686520717565727920666565596f7520646f6e27742068617665207065726d697373696f6e20746f20636f6d706c657465207468697320616374696f6e50726f7661626c65207175657279207761732073656e742c2072616e646f6d206e756d62657220776173207265717565737465642c207374616e64696e6720627920666f722074686520616e737765722e2e2e",
  "source": "pragma solidity >=0.4.21 <0.7.0;\n\nimport \"@openzeppelin/contracts/math/SafeMath.sol\";\nimport \"@openzeppelin/contracts/ownership/Ownable.sol\";\nimport \"./provableAPI.sol\";\n\ncontract E_loto is Ownable, usingProvable {\n    using SafeMath for uint256;\n\n    uint256 public gameIntervalInSeconds;\n    uint256 public provableCustomGasLimit;\n    uint256 public contractBounty;\n    bytes32 public gameId;\n\n    struct Game {\n        mapping(address => bool) isAlreadyBet;\n        Staker[] stakers;\n        address[] winners;\n        uint256 stakesTotal;\n        bool isClosed;\n    }\n\n    struct Staker {\n        address account;\n        uint8 bet;\n    }\n\n    mapping(address => uint256) public balances;\n    mapping(bytes32 => Game) public games;\n    mapping(bytes32 => bool) public pendingQueries;\n\n    event NewStake(address indexed _staker, uint8 indexed _bet);\n    event NewWinner(\n        uint8 indexed _winningNumber,\n        address _winner,\n        uint256 _rewardAmount\n    );\n    event NoWinners(string _description, uint8 _winningNumber);\n    event NewProvableQuery(string _description);\n    event NoStakes(string _description);\n\n    modifier onlyValidBet(uint8 _bet) {\n        require(_bet < 10, \"Bet is'n valid\");\n        _;\n    }\n\n    modifier onlySystem() {\n        require(\n            msg.sender == provable_cbAddress() ||\n                msg.sender == address(this) ||\n                msg.sender == address(uint160(owner())),\n            \"You don't have permission to complete this action\"\n        );\n        _;\n    }\n\n    // function() external payable {}\n\n    constructor(uint256 _gameIntervalInSeconds, uint256 _provableCustomGasLimit)\n        public\n        payable\n    {\n        gameIntervalInSeconds = _gameIntervalInSeconds;\n        provableCustomGasLimit = _provableCustomGasLimit;\n\n        queryNextWinningNumber();\n    }\n\n    function __callback(bytes32 _queryId, string memory _resultRandom) public {\n        require(\n            msg.sender == provable_cbAddress(),\n            \"Only provable API is able to process this function\"\n        );\n        require(pendingQueries[_queryId] == true, \"Query has been processed\");\n\n        uint8 winningNumber = uint8(safeParseInt(_resultRandom));\n        processGame(winningNumber);\n\n        queryNextWinningNumber();\n        delete pendingQueries[_queryId];\n    }\n\n    function queryNextWinningNumber() public payable onlySystem {\n        if (\n            provable_getPrice(\"WolframAlpha\", provableCustomGasLimit) >\n            address(this).balance\n        ) {\n            emit NewProvableQuery(\n                \"Provable query was NOT sent, please add some ETH to cover for the query fee\"\n            );\n        } else {\n            gameId = provable_query(\n                gameIntervalInSeconds,\n                \"WolframAlpha\",\n                \"random number between 0 and 9\",\n                provableCustomGasLimit\n            );\n\n            emit NewProvableQuery(\n                \"Provable query was sent, random number was requested, standing by for the answer...\"\n            );\n\n            pendingQueries[gameId] = true;\n        }\n    }\n\n    function placeStake(uint8 _bet) public payable onlyValidBet(_bet) {\n        require(\n            msg.value == 15000000000000000,\n            \"Stake must be equal 0.015 ether\"\n        );\n\n        Game storage game = games[gameId];\n\n        require(!game.isClosed, \"Game is closed\");\n        require(\n            !game.isAlreadyBet[msg.sender],\n            \"You have already placed your bet\"\n        );\n\n        game.isAlreadyBet[msg.sender] = true;\n        game.stakesTotal = game.stakesTotal.add(msg.value);\n        game.stakers.push(Staker(msg.sender, _bet));\n        emit NewStake(msg.sender, _bet);\n    }\n\n    function processGame(uint8 _winningNumber) private {\n        Game storage game = games[gameId];\n        game.isClosed = true;\n\n        if (game.stakesTotal == 0) {\n            emit NoStakes(\"No stakes in this game!\");\n            return;\n        }\n\n        uint256 winnersAmount = determineAmountOfWinners(\n            game.stakers,\n            _winningNumber\n        );\n\n        uint256 provableFee = provable_getPrice(\n            \"WolframAlpha\",\n            provableCustomGasLimit\n        );\n\n        uint256 stakesToReward = game.stakesTotal.sub(provableFee);\n\n        if (winnersAmount > 0) {\n            uint256 rewardAmount = determineRewardAmount(\n                stakesToReward,\n                winnersAmount\n            );\n\n            increaseBalanceIfWinner(game.stakers, rewardAmount, _winningNumber);\n\n        } else {\n            contractBounty = contractBounty.add(stakesToReward);\n            emit NoWinners(\"No winners in this game!\", _winningNumber);\n        }\n    }\n\n    function determineAmountOfWinners(\n        Staker[] storage _stakers,\n        uint8 _winningNumber\n    ) private view returns (uint256) {\n        uint256 j;\n        for (uint256 i = 0; i < _stakers.length; i++) {\n            if (_stakers[i].bet == _winningNumber) {\n                j++;\n            }\n        }\n        return j;\n    }\n\n    function determineRewardAmount(uint256 _stakesTotal, uint256 _winnersAmount)\n        private\n        pure\n        returns (uint256)\n    {\n        require(_winnersAmount != 0, \"Winners amount can not be equal to zero\");\n        return _stakesTotal.div(_winnersAmount);\n    }\n\n    function increaseBalanceIfWinner(\n        Staker[] storage _stakers,\n        uint256 _rewardAmount,\n        uint8 _winningNumber\n    ) private {\n        for (uint256 i = 0; i < _stakers.length; i++) {\n            if (_stakers[i].bet == _winningNumber) {\n                balances[_stakers[i].account] = _rewardAmount;\n                emit NewWinner(\n                    _winningNumber,\n                    _stakers[i].account,\n                    _rewardAmount\n                );\n            }\n        }\n    }\n\n    function updateGameInterval(uint256 _gameIntervalInSeconds)\n        public\n        onlyOwner\n    {\n        gameIntervalInSeconds = _gameIntervalInSeconds;\n    }\n\n    function updateProvableCustomGasLimit(uint256 _provableCustomGasLimit)\n        public\n        onlyOwner\n    {\n        provableCustomGasLimit = _provableCustomGasLimit;\n    }\n\n    function withdraw() public {\n        uint256 amount = balances[msg.sender];\n        balances[msg.sender] = 0;\n        msg.sender.transfer(amount);\n    }\n\n    function withdrawBounty() public onlyOwner {\n        uint256 amount = contractBounty;\n        contractBounty = 0;\n        address(uint160(owner())).transfer(amount);\n    }\n}\n",
  "sourcePath": "/Users/denis/Documents/_Workspace/e-loto/truffle/contracts/E_loto.sol",
  "compiler": {
    "name": "solc",
    "version": "0.5.16+commit.9c3226ce.Emscripten.clang"
  },
  "schemaVersion": "3.0.23",
  "updatedAt": "2020-03-06T12:57:30.084Z",
  "devdoc": {
    "methods": {
      "isOwner()": {
        "details": "Returns true if the caller is the current owner."
      },
      "owner()": {
        "details": "Returns the address of the current owner."
      },
      "renounceOwnership()": {
        "details": "Leaves the contract without owner. It will not be possible to call `onlyOwner` functions anymore. Can only be called by the current owner.     * NOTE: Renouncing ownership will leave the contract without an owner, thereby removing any functionality that is only available to the owner."
      },
      "transferOwnership(address)": {
        "details": "Transfers ownership of the contract to a new account (`newOwner`). Can only be called by the current owner."
      }
    }
  },
  "userdoc": {
    "methods": {}
  }
}