{
  "contractName": "E_loto",
  "abi": [
    {
      "inputs": [
        {
          "internalType": "uint256",
          "name": "_gameIntervalInSeconds",
          "type": "uint256"
        },
        {
          "internalType": "uint256",
          "name": "_provableCustomGasLimit",
          "type": "uint256"
        }
      ],
      "payable": true,
      "stateMutability": "payable",
      "type": "constructor"
    },
    {
      "anonymous": false,
      "inputs": [
        {
          "indexed": false,
          "internalType": "string",
          "name": "_description",
          "type": "string"
        }
      ],
      "name": "NewProvableQuery",
      "type": "event"
    },
    {
      "anonymous": false,
      "inputs": [
        {
          "indexed": true,
          "internalType": "address",
          "name": "_staker",
          "type": "address"
        },
        {
          "indexed": true,
          "internalType": "uint8",
          "name": "_bet",
          "type": "uint8"
        }
      ],
      "name": "NewStake",
      "type": "event"
    },
    {
      "anonymous": false,
      "inputs": [
        {
          "indexed": true,
          "internalType": "uint8",
          "name": "_winningNumber",
          "type": "uint8"
        },
        {
          "indexed": false,
          "internalType": "address",
          "name": "_winner",
          "type": "address"
        },
        {
          "indexed": false,
          "internalType": "uint256",
          "name": "_rewardAmount",
          "type": "uint256"
        }
      ],
      "name": "NewWinner",
      "type": "event"
    },
    {
      "anonymous": false,
      "inputs": [
        {
          "indexed": false,
          "internalType": "string",
          "name": "_description",
          "type": "string"
        }
      ],
      "name": "NoStakes",
      "type": "event"
    },
    {
      "anonymous": false,
      "inputs": [
        {
          "indexed": false,
          "internalType": "string",
          "name": "_description",
          "type": "string"
        },
        {
          "indexed": true,
          "internalType": "uint8",
          "name": "_winningNumber",
          "type": "uint8"
        }
      ],
      "name": "NoWinners",
      "type": "event"
    },
    {
      "anonymous": false,
      "inputs": [
        {
          "indexed": true,
          "internalType": "address",
          "name": "previousOwner",
          "type": "address"
        },
        {
          "indexed": true,
          "internalType": "address",
          "name": "newOwner",
          "type": "address"
        }
      ],
      "name": "OwnershipTransferred",
      "type": "event"
    },
    {
      "payable": true,
      "stateMutability": "payable",
      "type": "fallback"
    },
    {
      "constant": true,
      "inputs": [
        {
          "internalType": "address",
          "name": "",
          "type": "address"
        }
      ],
      "name": "balances",
      "outputs": [
        {
          "internalType": "uint256",
          "name": "",
          "type": "uint256"
        }
      ],
      "payable": false,
      "stateMutability": "view",
      "type": "function"
    },
    {
      "constant": true,
      "inputs": [],
      "name": "contractBounty",
      "outputs": [
        {
          "internalType": "uint256",
          "name": "",
          "type": "uint256"
        }
      ],
      "payable": false,
      "stateMutability": "view",
      "type": "function"
    },
    {
      "constant": true,
      "inputs": [],
      "name": "gameId",
      "outputs": [
        {
          "internalType": "bytes32",
          "name": "",
          "type": "bytes32"
        }
      ],
      "payable": false,
      "stateMutability": "view",
      "type": "function"
    },
    {
      "constant": true,
      "inputs": [],
      "name": "gameIntervalInSeconds",
      "outputs": [
        {
          "internalType": "uint256",
          "name": "",
          "type": "uint256"
        }
      ],
      "payable": false,
      "stateMutability": "view",
      "type": "function"
    },
    {
      "constant": true,
      "inputs": [
        {
          "internalType": "bytes32",
          "name": "",
          "type": "bytes32"
        }
      ],
      "name": "games",
      "outputs": [
        {
          "internalType": "uint256",
          "name": "stakesTotal",
          "type": "uint256"
        },
        {
          "internalType": "bool",
          "name": "isClosed",
          "type": "bool"
        }
      ],
      "payable": false,
      "stateMutability": "view",
      "type": "function"
    },
    {
      "constant": true,
      "inputs": [],
      "name": "isOwner",
      "outputs": [
        {
          "internalType": "bool",
          "name": "",
          "type": "bool"
        }
      ],
      "payable": false,
      "stateMutability": "view",
      "type": "function"
    },
    {
      "constant": true,
      "inputs": [],
      "name": "owner",
      "outputs": [
        {
          "internalType": "address",
          "name": "",
          "type": "address"
        }
      ],
      "payable": false,
      "stateMutability": "view",
      "type": "function"
    },
    {
      "constant": true,
      "inputs": [
        {
          "internalType": "bytes32",
          "name": "",
          "type": "bytes32"
        }
      ],
      "name": "pendingQueries",
      "outputs": [
        {
          "internalType": "bool",
          "name": "",
          "type": "bool"
        }
      ],
      "payable": false,
      "stateMutability": "view",
      "type": "function"
    },
    {
      "constant": true,
      "inputs": [],
      "name": "provableBalance",
      "outputs": [
        {
          "internalType": "uint256",
          "name": "",
          "type": "uint256"
        }
      ],
      "payable": false,
      "stateMutability": "view",
      "type": "function"
    },
    {
      "constant": true,
      "inputs": [],
      "name": "provableCustomGasLimit",
      "outputs": [
        {
          "internalType": "uint256",
          "name": "",
          "type": "uint256"
        }
      ],
      "payable": false,
      "stateMutability": "view",
      "type": "function"
    },
    {
      "constant": false,
      "inputs": [],
      "name": "renounceOwnership",
      "outputs": [],
      "payable": false,
      "stateMutability": "nonpayable",
      "type": "function"
    },
    {
      "constant": false,
      "inputs": [
        {
          "internalType": "address",
          "name": "newOwner",
          "type": "address"
        }
      ],
      "name": "transferOwnership",
      "outputs": [],
      "payable": false,
      "stateMutability": "nonpayable",
      "type": "function"
    },
    {
      "constant": false,
      "inputs": [
        {
          "internalType": "bytes32",
          "name": "_queryId",
          "type": "bytes32"
        },
        {
          "internalType": "string",
          "name": "_resultRandom",
          "type": "string"
        }
      ],
      "name": "__callback",
      "outputs": [],
      "payable": false,
      "stateMutability": "nonpayable",
      "type": "function"
    },
    {
      "constant": false,
      "inputs": [
        {
          "internalType": "bytes32",
          "name": "_myid",
          "type": "bytes32"
        },
        {
          "internalType": "string",
          "name": "_result",
          "type": "string"
        },
        {
          "internalType": "bytes",
          "name": "_proof",
          "type": "bytes"
        }
      ],
      "name": "__callback",
      "outputs": [],
      "payable": false,
      "stateMutability": "nonpayable",
      "type": "function"
    },
    {
      "constant": false,
      "inputs": [],
      "name": "queryNextWinningNumber",
      "outputs": [],
      "payable": true,
      "stateMutability": "payable",
      "type": "function"
    },
    {
      "constant": false,
      "inputs": [
        {
          "internalType": "uint8",
          "name": "_bet",
          "type": "uint8"
        }
      ],
      "name": "placeStake",
      "outputs": [],
      "payable": true,
      "stateMutability": "payable",
      "type": "function"
    },
    {
      "constant": false,
      "inputs": [
        {
          "internalType": "uint256",
          "name": "_gameIntervalInSeconds",
          "type": "uint256"
        }
      ],
      "name": "updateGameInterval",
      "outputs": [],
      "payable": false,
      "stateMutability": "nonpayable",
      "type": "function"
    },
    {
      "constant": false,
      "inputs": [
        {
          "internalType": "uint256",
          "name": "_provableCustomGasLimit",
          "type": "uint256"
        }
      ],
      "name": "updateProvableCustomGasLimit",
      "outputs": [],
      "payable": false,
      "stateMutability": "nonpayable",
      "type": "function"
    },
    {
      "constant": false,
      "inputs": [],
      "name": "withdraw",
      "outputs": [],
      "payable": false,
      "stateMutability": "nonpayable",
      "type": "function"
    },
    {
      "constant": false,
      "inputs": [],
      "name": "withdrawBounty",
      "outputs": [],
      "payable": false,
      "stateMutability": "nonpayable",
      "type": "function"
    }
  ],
  "bytecode": "0x608060405260405162004c6e38038062004c6e833981810160405260408110156200002957600080fd5b8101908080519060200190929190805190602001909291905050506000620000566200012160201b60201c565b9050806000806101000a81548173ffffffffffffffffffffffffffffffffffffffff021916908373ffffffffffffffffffffffffffffffffffffffff1602179055508073ffffffffffffffffffffffffffffffffffffffff16600073ffffffffffffffffffffffffffffffffffffffff167f8be0079c531659141344cd1fd0a4f28419497f9722a3daafe3b4186f6b6457e060405160405180910390a350816006819055508060078190555034600981905550620001196200012960201b60201c565b505062001884565b600033905090565b620001396200040d60201b60201c565b73ffffffffffffffffffffffffffffffffffffffff163373ffffffffffffffffffffffffffffffffffffffff1614806200019e57503073ffffffffffffffffffffffffffffffffffffffff163373ffffffffffffffffffffffffffffffffffffffff16145b80620001e45750620001b56200074960201b60201c565b73ffffffffffffffffffffffffffffffffffffffff163373ffffffffffffffffffffffffffffffffffffffff16145b6200023b576040517f08c379a000000000000000000000000000000000000000000000000000000000815260040180806020018281038252603181526020018062004bea6031913960400191505060405180910390fd5b6000620002866040518060400160405280600c81526020017f576f6c6672616d416c70686100000000000000000000000000000000000000008152506007546200077260201b60201c565b9050600954811115620002e5577f4cd3e05558dc434b7b222972fa66803efd137976460dd5bd71d67fdf40195be460405180806020018281038252604b81526020018062004b9f604b913960600191505060405180910390a16200040a565b620003018160095462000b2e60201b62001e221790919060201c565b600981905550620003896006546040518060400160405280600c81526020017f576f6c6672616d416c70686100000000000000000000000000000000000000008152506040518060400160405280601d81526020017f72616e646f6d206e756d626572206265747765656e203020616e64203900000081525060075462000b8060201b60201c565b600a819055507f4cd3e05558dc434b7b222972fa66803efd137976460dd5bd71d67fdf40195be460405180806020018281038252605381526020018062004c1b6053913960600191505060405180910390a16001600d6000600a54815260200190815260200160002060006101000a81548160ff0219169083151502179055505b50565b60008073ffffffffffffffffffffffffffffffffffffffff16600260009054906101000a900473ffffffffffffffffffffffffffffffffffffffff1673ffffffffffffffffffffffffffffffffffffffff1614806200049e575060006200049c600260009054906101000a900473ffffffffffffffffffffffffffffffffffffffff166200110260201b60201c565b145b15620004b857620004b660006200110d60201b60201c565b505b600260009054906101000a900473ffffffffffffffffffffffffffffffffffffffff1673ffffffffffffffffffffffffffffffffffffffff166338cc48316040518163ffffffff1660e01b8152600401602060405180830381600087803b1580156200052357600080fd5b505af115801562000538573d6000803e3d6000fd5b505050506040513d60208110156200054f57600080fd5b810190808051906020019092919050505073ffffffffffffffffffffffffffffffffffffffff16600160009054906101000a900473ffffffffffffffffffffffffffffffffffffffff1673ffffffffffffffffffffffffffffffffffffffff16146200069e57600260009054906101000a900473ffffffffffffffffffffffffffffffffffffffff1673ffffffffffffffffffffffffffffffffffffffff166338cc48316040518163ffffffff1660e01b8152600401602060405180830381600087803b1580156200062057600080fd5b505af115801562000635573d6000803e3d6000fd5b505050506040513d60208110156200064c57600080fd5b8101908080519060200190929190505050600160006101000a81548173ffffffffffffffffffffffffffffffffffffffff021916908373ffffffffffffffffffffffffffffffffffffffff1602179055505b600160009054906101000a900473ffffffffffffffffffffffffffffffffffffffff1673ffffffffffffffffffffffffffffffffffffffff1663c281d19e6040518163ffffffff1660e01b815260040160206040518083038186803b1580156200070757600080fd5b505afa1580156200071c573d6000803e3d6000fd5b505050506040513d60208110156200073357600080fd5b8101908080519060200190929190505050905090565b60008060009054906101000a900473ffffffffffffffffffffffffffffffffffffffff16905090565b60008073ffffffffffffffffffffffffffffffffffffffff16600260009054906101000a900473ffffffffffffffffffffffffffffffffffffffff1673ffffffffffffffffffffffffffffffffffffffff161480620008035750600062000801600260009054906101000a900473ffffffffffffffffffffffffffffffffffffffff166200110260201b60201c565b145b156200081d576200081b60006200110d60201b60201c565b505b600260009054906101000a900473ffffffffffffffffffffffffffffffffffffffff1673ffffffffffffffffffffffffffffffffffffffff166338cc48316040518163ffffffff1660e01b8152600401602060405180830381600087803b1580156200088857600080fd5b505af11580156200089d573d6000803e3d6000fd5b505050506040513d6020811015620008b457600080fd5b810190808051906020019092919050505073ffffffffffffffffffffffffffffffffffffffff16600160009054906101000a900473ffffffffffffffffffffffffffffffffffffffff1673ffffffffffffffffffffffffffffffffffffffff161462000a0357600260009054906101000a900473ffffffffffffffffffffffffffffffffffffffff1673ffffffffffffffffffffffffffffffffffffffff166338cc48316040518163ffffffff1660e01b8152600401602060405180830381600087803b1580156200098557600080fd5b505af11580156200099a573d6000803e3d6000fd5b505050506040513d6020811015620009b157600080fd5b8101908080519060200190929190505050600160006101000a81548173ffffffffffffffffffffffffffffffffffffffff021916908373ffffffffffffffffffffffffffffffffffffffff1602179055505b600160009054906101000a900473ffffffffffffffffffffffffffffffffffffffff1673ffffffffffffffffffffffffffffffffffffffff16632ef3accc84846040518363ffffffff1660e01b81526004018080602001838152602001828103825284818151815260200191508051906020019080838360005b8381101562000a9a57808201518184015260208101905062000a7d565b50505050905090810190601f16801562000ac85780820380516001836020036101000a031916815260200191505b509350505050602060405180830381600087803b15801562000ae957600080fd5b505af115801562000afe573d6000803e3d6000fd5b505050506040513d602081101562000b1557600080fd5b8101908080519060200190929190505050905092915050565b600062000b7883836040518060400160405280601e81526020017f536166654d6174683a207375627472616374696f6e206f766572666c6f7700008152506200112660201b60201c565b905092915050565b60008073ffffffffffffffffffffffffffffffffffffffff16600260009054906101000a900473ffffffffffffffffffffffffffffffffffffffff1673ffffffffffffffffffffffffffffffffffffffff16148062000c115750600062000c0f600260009054906101000a900473ffffffffffffffffffffffffffffffffffffffff166200110260201b60201c565b145b1562000c2b5762000c2960006200110d60201b60201c565b505b600260009054906101000a900473ffffffffffffffffffffffffffffffffffffffff1673ffffffffffffffffffffffffffffffffffffffff166338cc48316040518163ffffffff1660e01b8152600401602060405180830381600087803b15801562000c9657600080fd5b505af115801562000cab573d6000803e3d6000fd5b505050506040513d602081101562000cc257600080fd5b810190808051906020019092919050505073ffffffffffffffffffffffffffffffffffffffff16600160009054906101000a900473ffffffffffffffffffffffffffffffffffffffff1673ffffffffffffffffffffffffffffffffffffffff161462000e1157600260009054906101000a900473ffffffffffffffffffffffffffffffffffffffff1673ffffffffffffffffffffffffffffffffffffffff166338cc48316040518163ffffffff1660e01b8152600401602060405180830381600087803b15801562000d9357600080fd5b505af115801562000da8573d6000803e3d6000fd5b505050506040513d602081101562000dbf57600080fd5b8101908080519060200190929190505050600160006101000a81548173ffffffffffffffffffffffffffffffffffffffff021916908373ffffffffffffffffffffffffffffffffffffffff1602179055505b6000600160009054906101000a900473ffffffffffffffffffffffffffffffffffffffff1673ffffffffffffffffffffffffffffffffffffffff16632ef3accc86856040518363ffffffff1660e01b81526004018080602001838152602001828103825284818151815260200191508051906020019080838360005b8381101562000eaa57808201518184015260208101905062000e8d565b50505050905090810190601f16801562000ed85780820380516001836020036101000a031916815260200191505b509350505050602060405180830381600087803b15801562000ef957600080fd5b505af115801562000f0e573d6000803e3d6000fd5b505050506040513d602081101562000f2557600080fd5b81019080805190602001909291905050509050823a02670de0b6b3a76400000181111562000f5a576000801b915050620010fa565b600160009054906101000a900473ffffffffffffffffffffffffffffffffffffffff1673ffffffffffffffffffffffffffffffffffffffff1663c51be90f82888888886040518663ffffffff1660e01b8152600401808581526020018060200180602001848152602001838103835286818151815260200191508051906020019080838360005b8381101562000ffe57808201518184015260208101905062000fe1565b50505050905090810190601f1680156200102c5780820380516001836020036101000a031916815260200191505b50838103825285818151815260200191508051906020019080838360005b83811015620010675780820151818401526020810190506200104a565b50505050905090810190601f168015620010955780820380516001836020036101000a031916815260200191505b5096505050505050506020604051808303818588803b158015620010b857600080fd5b505af1158015620010cd573d6000803e3d6000fd5b50505050506040513d6020811015620010e557600080fd5b81019080805190602001909291905050509150505b949350505050565b6000813b9050919050565b60006200111f620011ea60201b60201c565b9050919050565b6000838311158290620011d7576040517f08c379a00000000000000000000000000000000000000000000000000000000081526004018080602001828103825283818151815260200191508051906020019080838360005b838110156200119b5780820151818401526020810190506200117e565b50505050905090810190601f168015620011c95780820380516001836020036101000a031916815260200191505b509250505060405180910390fd5b5060008385039050809150509392505050565b60008062001212731d3b2638a7cc9f2cb3d298a3da7a90b67e5506ed6200110260201b60201c565b1115620012be57731d3b2638a7cc9f2cb3d298a3da7a90b67e5506ed600260006101000a81548173ffffffffffffffffffffffffffffffffffffffff021916908373ffffffffffffffffffffffffffffffffffffffff160217905550620012b46040518060400160405280600b81526020017f6574685f6d61696e6e6574000000000000000000000000000000000000000000815250620017b960201b60201c565b60019050620017b6565b6000620012e573c03a2615d5efaf5f49f60b7bb6583eaec212fdf16200110260201b60201c565b1115620013915773c03a2615d5efaf5f49f60b7bb6583eaec212fdf1600260006101000a81548173ffffffffffffffffffffffffffffffffffffffff021916908373ffffffffffffffffffffffffffffffffffffffff160217905550620013876040518060400160405280600c81526020017f6574685f726f707374656e330000000000000000000000000000000000000000815250620017b960201b60201c565b60019050620017b6565b6000620013b873b7a07bcf2ba2f2703b24c0691b5278999c59ac7e6200110260201b60201c565b1115620014645773b7a07bcf2ba2f2703b24c0691b5278999c59ac7e600260006101000a81548173ffffffffffffffffffffffffffffffffffffffff021916908373ffffffffffffffffffffffffffffffffffffffff1602179055506200145a6040518060400160405280600981526020017f6574685f6b6f76616e0000000000000000000000000000000000000000000000815250620017b960201b60201c565b60019050620017b6565b60006200148b73146500cfd35b22e4a392fe0adc06de1a1368ed486200110260201b60201c565b1115620015375773146500cfd35b22e4a392fe0adc06de1a1368ed48600260006101000a81548173ffffffffffffffffffffffffffffffffffffffff021916908373ffffffffffffffffffffffffffffffffffffffff1602179055506200152d6040518060400160405280600b81526020017f6574685f72696e6b656279000000000000000000000000000000000000000000815250620017b960201b60201c565b60019050620017b6565b60006200155e73a2998efd205fb9d4b4963afb70778d6354ad3a416200110260201b60201c565b11156200160a5773a2998efd205fb9d4b4963afb70778d6354ad3a41600260006101000a81548173ffffffffffffffffffffffffffffffffffffffff021916908373ffffffffffffffffffffffffffffffffffffffff160217905550620016006040518060400160405280600a81526020017f6574685f676f65726c6900000000000000000000000000000000000000000000815250620017b960201b60201c565b60019050620017b6565b600062001631736f485c8bf6fc43ea212e93bbf8ce046c7f1cb4756200110260201b60201c565b11156200169757736f485c8bf6fc43ea212e93bbf8ce046c7f1cb475600260006101000a81548173ffffffffffffffffffffffffffffffffffffffff021916908373ffffffffffffffffffffffffffffffffffffffff16021790555060019050620017b6565b6000620016be7320e12a1f859b3feae5fb2a0a32c18f5a65555bbf6200110260201b60201c565b111562001724577320e12a1f859b3feae5fb2a0a32c18f5a65555bbf600260006101000a81548173ffffffffffffffffffffffffffffffffffffffff021916908373ffffffffffffffffffffffffffffffffffffffff16021790555060019050620017b6565b60006200174b7351efaf4c8b3c9afbd5ab9f4bbc82784ab6ef8faa6200110260201b60201c565b1115620017b1577351efaf4c8b3c9afbd5ab9f4bbc82784ab6ef8faa600260006101000a81548173ffffffffffffffffffffffffffffffffffffffff021916908373ffffffffffffffffffffffffffffffffffffffff16021790555060019050620017b6565b600090505b90565b8060039080519060200190620017d1929190620017d5565b5050565b828054600181600116156101000203166002900490600052602060002090601f016020900481019282601f106200181857805160ff191683800117855562001849565b8280016001018555821562001849579182015b82811115620018485782518255916020019190600101906200182b565b5b5090506200185891906200185c565b5090565b6200188191905b808211156200187d57600081600090555060010162001863565b5090565b90565b61330b80620018946000396000f3fe60806040526004361061011f5760003560e01c806389a2cdcb116100a0578063dd4559f811610064578063dd4559f814610601578063e3fc88731461062c578063ede90e9914610657578063f2fde38b14610682578063f579f882146106d35761011f565b806389a2cdcb146104c25780638da5cb5b146105155780638f32d59b1461056c57806393b8e5b01461059b578063d7c81b55146105d65761011f565b806338bbfa50116100e757806338bbfa50146102e65780633ccfd60b1461044f578063693861fb146104665780636bc31d3514610470578063715018a6146104ab5761011f565b806321ceaaa41461013c57806327dc297e1461016d57806327e235e31461023f5780632a25545a146102a45780632cf4e56f146102cf575b6101343460095461072d90919063ffffffff16565b600981905550005b61016b6004803603602081101561015257600080fd5b81019080803560ff1690602001909291905050506107b5565b005b34801561017957600080fd5b5061023d6004803603604081101561019057600080fd5b8101908080359060200190929190803590602001906401000000008111156101b757600080fd5b8201836020820111156101c957600080fd5b803590602001918460018302840111640100000000831117156101eb57600080fd5b91908080601f016020809104026020016040519081016040528093929190818152602001838380828437600081840152601f19601f820116905080830192505050505050509192919290505050610b94565b005b34801561024b57600080fd5b5061028e6004803603602081101561026257600080fd5b81019080803573ffffffffffffffffffffffffffffffffffffffff169060200190929190505050610cff565b6040518082815260200191505060405180910390f35b3480156102b057600080fd5b506102b9610d17565b6040518082815260200191505060405180910390f35b3480156102db57600080fd5b506102e4610d1d565b005b3480156102f257600080fd5b5061044d6004803603606081101561030957600080fd5b81019080803590602001909291908035906020019064010000000081111561033057600080fd5b82018360208201111561034257600080fd5b8035906020019184600183028401116401000000008311171561036457600080fd5b91908080601f016020809104026020016040519081016040528093929190818152602001838380828437600081840152601f19601f820116905080830192505050505050509192919290803590602001906401000000008111156103c757600080fd5b8201836020820111156103d957600080fd5b803590602001918460018302840111640100000000831117156103fb57600080fd5b91908080601f016020809104026020016040519081016040528093929190818152602001838380828437600081840152601f19601f820116905080830192505050505050509192919290505050610df7565b005b34801561045b57600080fd5b50610464610e1a565b005b61046e610eed565b005b34801561047c57600080fd5b506104a96004803603602081101561049357600080fd5b81019080803590602001909291905050506111a2565b005b3480156104b757600080fd5b506104c0611226565b005b3480156104ce57600080fd5b506104fb600480360360208110156104e557600080fd5b810190808035906020019092919050505061135f565b604051808215151515815260200191505060405180910390f35b34801561052157600080fd5b5061052a61137f565b604051808273ffffffffffffffffffffffffffffffffffffffff1673ffffffffffffffffffffffffffffffffffffffff16815260200191505060405180910390f35b34801561057857600080fd5b506105816113a8565b604051808215151515815260200191505060405180910390f35b3480156105a757600080fd5b506105d4600480360360208110156105be57600080fd5b8101908080359060200190929190505050611406565b005b3480156105e257600080fd5b506105eb61148a565b6040518082815260200191505060405180910390f35b34801561060d57600080fd5b50610616611490565b6040518082815260200191505060405180910390f35b34801561063857600080fd5b50610641611496565b6040518082815260200191505060405180910390f35b34801561066357600080fd5b5061066c61149c565b6040518082815260200191505060405180910390f35b34801561068e57600080fd5b506106d1600480360360208110156106a557600080fd5b81019080803573ffffffffffffffffffffffffffffffffffffffff1690602001909291905050506114a2565b005b3480156106df57600080fd5b5061070c600480360360208110156106f657600080fd5b8101908080359060200190929190505050611528565b60405180838152602001821515151581526020019250505060405180910390f35b6000808284019050838110156107ab576040517f08c379a000000000000000000000000000000000000000000000000000000000815260040180806020018281038252601b8152602001807f536166654d6174683a206164646974696f6e206f766572666c6f77000000000081525060200191505060405180910390fd5b8091505092915050565b80600a8160ff161061082f576040517f08c379a000000000000000000000000000000000000000000000000000000000815260040180806020018281038252600e8152602001807f426574206973276e2076616c696400000000000000000000000000000000000081525060200191505060405180910390fd5b66354a6ba7a1800034146108ab576040517f08c379a000000000000000000000000000000000000000000000000000000000815260040180806020018281038252601f8152602001807f5374616b65206d75737420626520657175616c20302e3031352065746865720081525060200191505060405180910390fd5b6000600c6000600a54815260200190815260200160002090508060030160009054906101000a900460ff1615610949576040517f08c379a000000000000000000000000000000000000000000000000000000000815260040180806020018281038252600e8152602001807f47616d6520697320636c6f73656400000000000000000000000000000000000081525060200191505060405180910390fd5b8060000160003373ffffffffffffffffffffffffffffffffffffffff1673ffffffffffffffffffffffffffffffffffffffff16815260200190815260200160002060009054906101000a900460ff1615610a0b576040517f08c379a00000000000000000000000000000000000000000000000000000000081526004018080602001828103825260208152602001807f596f75206861766520616c726561647920706c6163656420796f75722062657481525060200191505060405180910390fd5b60018160000160003373ffffffffffffffffffffffffffffffffffffffff1673ffffffffffffffffffffffffffffffffffffffff16815260200190815260200160002060006101000a81548160ff021916908315150217905550610a7c34826002015461072d90919063ffffffff16565b81600201819055508060010160405180604001604052803373ffffffffffffffffffffffffffffffffffffffff1681526020018560ff1681525090806001815401808255809150509060018203906000526020600020016000909192909190915060008201518160000160006101000a81548173ffffffffffffffffffffffffffffffffffffffff021916908373ffffffffffffffffffffffffffffffffffffffff16021790555060208201518160000160146101000a81548160ff021916908360ff1602179055505050508260ff163373ffffffffffffffffffffffffffffffffffffffff167ff690833cd093659c3e4a6f0abe12eb68fd27c696c85a571552f24c12485cd02260405160405180910390a3505050565b610b9c611559565b73ffffffffffffffffffffffffffffffffffffffff163373ffffffffffffffffffffffffffffffffffffffff1614610c1f576040517f08c379a00000000000000000000000000000000000000000000000000000000081526004018080602001828103825260328152602001806131316032913960400191505060405180910390fd5b60011515600d600084815260200190815260200160002060009054906101000a900460ff16151514610cb9576040517f08c379a00000000000000000000000000000000000000000000000000000000081526004018080602001828103825260188152602001807f517565727920686173206265656e2070726f636573736564000000000000000081525060200191505060405180910390fd5b6000610cc482611879565b9050610ccf8161188d565b610cd7610eed565b600d600084815260200190815260200160002060006101000a81549060ff0219169055505050565b600b6020528060005260406000206000915090505481565b60085481565b610d256113a8565b610d97576040517f08c379a00000000000000000000000000000000000000000000000000000000081526004018080602001828103825260208152602001807f4f776e61626c653a2063616c6c6572206973206e6f7420746865206f776e657281525060200191505060405180910390fd5b600060085490506000600881905550610dae61137f565b73ffffffffffffffffffffffffffffffffffffffff166108fc829081150290604051600060405180830381858888f19350505050158015610df3573d6000803e3d6000fd5b5050565b6000801b600460008060001b815260200190815260200160002081905550505050565b6000600b60003373ffffffffffffffffffffffffffffffffffffffff1673ffffffffffffffffffffffffffffffffffffffff1681526020019081526020016000205490506000600b60003373ffffffffffffffffffffffffffffffffffffffff1673ffffffffffffffffffffffffffffffffffffffff168152602001908152602001600020819055503373ffffffffffffffffffffffffffffffffffffffff166108fc829081150290604051600060405180830381858888f19350505050158015610ee9573d6000803e3d6000fd5b5050565b610ef5611559565b73ffffffffffffffffffffffffffffffffffffffff163373ffffffffffffffffffffffffffffffffffffffff161480610f5957503073ffffffffffffffffffffffffffffffffffffffff163373ffffffffffffffffffffffffffffffffffffffff16145b80610f965750610f6761137f565b73ffffffffffffffffffffffffffffffffffffffff163373ffffffffffffffffffffffffffffffffffffffff16145b610feb576040517f08c379a00000000000000000000000000000000000000000000000000000000081526004018080602001828103825260318152602001806131d46031913960400191505060405180910390fd5b600061102e6040518060400160405280600c81526020017f576f6c6672616d416c7068610000000000000000000000000000000000000000815250600754611a85565b905060095481111561108a577f4cd3e05558dc434b7b222972fa66803efd137976460dd5bd71d67fdf40195be460405180806020018281038252604b815260200180613189604b913960600191505060405180910390a161119f565b61109f81600954611e2290919063ffffffff16565b60098190555061111f6006546040518060400160405280600c81526020017f576f6c6672616d416c70686100000000000000000000000000000000000000008152506040518060400160405280601d81526020017f72616e646f6d206e756d626572206265747765656e203020616e642039000000815250600754611e6c565b600a819055507f4cd3e05558dc434b7b222972fa66803efd137976460dd5bd71d67fdf40195be46040518080602001828103825260538152602001806132316053913960600191505060405180910390a16001600d6000600a54815260200190815260200160002060006101000a81548160ff0219169083151502179055505b50565b6111aa6113a8565b61121c576040517f08c379a00000000000000000000000000000000000000000000000000000000081526004018080602001828103825260208152602001807f4f776e61626c653a2063616c6c6572206973206e6f7420746865206f776e657281525060200191505060405180910390fd5b8060068190555050565b61122e6113a8565b6112a0576040517f08c379a00000000000000000000000000000000000000000000000000000000081526004018080602001828103825260208152602001807f4f776e61626c653a2063616c6c6572206973206e6f7420746865206f776e657281525060200191505060405180910390fd5b600073ffffffffffffffffffffffffffffffffffffffff166000809054906101000a900473ffffffffffffffffffffffffffffffffffffffff1673ffffffffffffffffffffffffffffffffffffffff167f8be0079c531659141344cd1fd0a4f28419497f9722a3daafe3b4186f6b6457e060405160405180910390a360008060006101000a81548173ffffffffffffffffffffffffffffffffffffffff021916908373ffffffffffffffffffffffffffffffffffffffff160217905550565b600d6020528060005260406000206000915054906101000a900460ff1681565b60008060009054906101000a900473ffffffffffffffffffffffffffffffffffffffff16905090565b60008060009054906101000a900473ffffffffffffffffffffffffffffffffffffffff1673ffffffffffffffffffffffffffffffffffffffff166113ea6123c4565b73ffffffffffffffffffffffffffffffffffffffff1614905090565b61140e6113a8565b611480576040517f08c379a00000000000000000000000000000000000000000000000000000000081526004018080602001828103825260208152602001807f4f776e61626c653a2063616c6c6572206973206e6f7420746865206f776e657281525060200191505060405180910390fd5b8060078190555050565b600a5481565b60065481565b60095481565b60075481565b6114aa6113a8565b61151c576040517f08c379a00000000000000000000000000000000000000000000000000000000081526004018080602001828103825260208152602001807f4f776e61626c653a2063616c6c6572206973206e6f7420746865206f776e657281525060200191505060405180910390fd5b611525816123cc565b50565b600c6020528060005260406000206000915090508060020154908060030160009054906101000a900460ff16905082565b60008073ffffffffffffffffffffffffffffffffffffffff16600260009054906101000a900473ffffffffffffffffffffffffffffffffffffffff1673ffffffffffffffffffffffffffffffffffffffff1614806115e1575060006115df600260009054906101000a900473ffffffffffffffffffffffffffffffffffffffff16612510565b145b156115f2576115f0600061251b565b505b600260009054906101000a900473ffffffffffffffffffffffffffffffffffffffff1673ffffffffffffffffffffffffffffffffffffffff166338cc48316040518163ffffffff1660e01b8152600401602060405180830381600087803b15801561165c57600080fd5b505af1158015611670573d6000803e3d6000fd5b505050506040513d602081101561168657600080fd5b810190808051906020019092919050505073ffffffffffffffffffffffffffffffffffffffff16600160009054906101000a900473ffffffffffffffffffffffffffffffffffffffff1673ffffffffffffffffffffffffffffffffffffffff16146117d157600260009054906101000a900473ffffffffffffffffffffffffffffffffffffffff1673ffffffffffffffffffffffffffffffffffffffff166338cc48316040518163ffffffff1660e01b8152600401602060405180830381600087803b15801561175557600080fd5b505af1158015611769573d6000803e3d6000fd5b505050506040513d602081101561177f57600080fd5b8101908080519060200190929190505050600160006101000a81548173ffffffffffffffffffffffffffffffffffffffff021916908373ffffffffffffffffffffffffffffffffffffffff1602179055505b600160009054906101000a900473ffffffffffffffffffffffffffffffffffffffff1673ffffffffffffffffffffffffffffffffffffffff1663c281d19e6040518163ffffffff1660e01b815260040160206040518083038186803b15801561183957600080fd5b505afa15801561184d573d6000803e3d6000fd5b505050506040513d602081101561186357600080fd5b8101908080519060200190929190505050905090565b600061188682600061252c565b9050919050565b6000600c6000600a548152602001908152602001600020905060018160030160006101000a81548160ff02191690831515021790555060008160020154141561193e577f8fc65652ab71bf5e0d78086b9f25b8e266a1b62738ab8a1f61a49ca3451a00f36040518080602001828103825260178152602001807f4e6f207374616b657320696e20746869732067616d652100000000000000000081525060200191505060405180910390a150611a82565b600061194d82600101846126eb565b905060006119926040518060400160405280600c81526020017f576f6c6672616d416c7068610000000000000000000000000000000000000000815250600754611a85565b90506119a98160095461072d90919063ffffffff16565b60098190555060006119c8828560020154611e2290919063ffffffff16565b905060008311156119f55760006119df8285612755565b90506119ef8560010182886127cb565b50611a7d565b611a0a8160085461072d90919063ffffffff16565b6008819055508460ff167f70024d7bc577f788b98317f7922435b5eb15e7f3a98185ab74e8c95befd2822d6040518080602001828103825260188152602001807f4e6f2077696e6e65727320696e20746869732067616d6521000000000000000081525060200191505060405180910390a25b505050505b50565b60008073ffffffffffffffffffffffffffffffffffffffff16600260009054906101000a900473ffffffffffffffffffffffffffffffffffffffff1673ffffffffffffffffffffffffffffffffffffffff161480611b0d57506000611b0b600260009054906101000a900473ffffffffffffffffffffffffffffffffffffffff16612510565b145b15611b1e57611b1c600061251b565b505b600260009054906101000a900473ffffffffffffffffffffffffffffffffffffffff1673ffffffffffffffffffffffffffffffffffffffff166338cc48316040518163ffffffff1660e01b8152600401602060405180830381600087803b158015611b8857600080fd5b505af1158015611b9c573d6000803e3d6000fd5b505050506040513d6020811015611bb257600080fd5b810190808051906020019092919050505073ffffffffffffffffffffffffffffffffffffffff16600160009054906101000a900473ffffffffffffffffffffffffffffffffffffffff1673ffffffffffffffffffffffffffffffffffffffff1614611cfd57600260009054906101000a900473ffffffffffffffffffffffffffffffffffffffff1673ffffffffffffffffffffffffffffffffffffffff166338cc48316040518163ffffffff1660e01b8152600401602060405180830381600087803b158015611c8157600080fd5b505af1158015611c95573d6000803e3d6000fd5b505050506040513d6020811015611cab57600080fd5b8101908080519060200190929190505050600160006101000a81548173ffffffffffffffffffffffffffffffffffffffff021916908373ffffffffffffffffffffffffffffffffffffffff1602179055505b600160009054906101000a900473ffffffffffffffffffffffffffffffffffffffff1673ffffffffffffffffffffffffffffffffffffffff16632ef3accc84846040518363ffffffff1660e01b81526004018080602001838152602001828103825284818151815260200191508051906020019080838360005b83811015611d92578082015181840152602081019050611d77565b50505050905090810190601f168015611dbf5780820380516001836020036101000a031916815260200191505b509350505050602060405180830381600087803b158015611ddf57600080fd5b505af1158015611df3573d6000803e3d6000fd5b505050506040513d6020811015611e0957600080fd5b8101908080519060200190929190505050905092915050565b6000611e6483836040518060400160405280601e81526020017f536166654d6174683a207375627472616374696f6e206f766572666c6f77000081525061294a565b905092915050565b60008073ffffffffffffffffffffffffffffffffffffffff16600260009054906101000a900473ffffffffffffffffffffffffffffffffffffffff1673ffffffffffffffffffffffffffffffffffffffff161480611ef457506000611ef2600260009054906101000a900473ffffffffffffffffffffffffffffffffffffffff16612510565b145b15611f0557611f03600061251b565b505b600260009054906101000a900473ffffffffffffffffffffffffffffffffffffffff1673ffffffffffffffffffffffffffffffffffffffff166338cc48316040518163ffffffff1660e01b8152600401602060405180830381600087803b158015611f6f57600080fd5b505af1158015611f83573d6000803e3d6000fd5b505050506040513d6020811015611f9957600080fd5b810190808051906020019092919050505073ffffffffffffffffffffffffffffffffffffffff16600160009054906101000a900473ffffffffffffffffffffffffffffffffffffffff1673ffffffffffffffffffffffffffffffffffffffff16146120e457600260009054906101000a900473ffffffffffffffffffffffffffffffffffffffff1673ffffffffffffffffffffffffffffffffffffffff166338cc48316040518163ffffffff1660e01b8152600401602060405180830381600087803b15801561206857600080fd5b505af115801561207c573d6000803e3d6000fd5b505050506040513d602081101561209257600080fd5b8101908080519060200190929190505050600160006101000a81548173ffffffffffffffffffffffffffffffffffffffff021916908373ffffffffffffffffffffffffffffffffffffffff1602179055505b6000600160009054906101000a900473ffffffffffffffffffffffffffffffffffffffff1673ffffffffffffffffffffffffffffffffffffffff16632ef3accc86856040518363ffffffff1660e01b81526004018080602001838152602001828103825284818151815260200191508051906020019080838360005b8381101561217b578082015181840152602081019050612160565b50505050905090810190601f1680156121a85780820380516001836020036101000a031916815260200191505b509350505050602060405180830381600087803b1580156121c857600080fd5b505af11580156121dc573d6000803e3d6000fd5b505050506040513d60208110156121f257600080fd5b81019080805190602001909291905050509050823a02670de0b6b3a764000001811115612225576000801b9150506123bc565b600160009054906101000a900473ffffffffffffffffffffffffffffffffffffffff1673ffffffffffffffffffffffffffffffffffffffff1663c51be90f82888888886040518663ffffffff1660e01b8152600401808581526020018060200180602001848152602001838103835286818151815260200191508051906020019080838360005b838110156122c75780820151818401526020810190506122ac565b50505050905090810190601f1680156122f45780820380516001836020036101000a031916815260200191505b50838103825285818151815260200191508051906020019080838360005b8381101561232d578082015181840152602081019050612312565b50505050905090810190601f16801561235a5780820380516001836020036101000a031916815260200191505b5096505050505050506020604051808303818588803b15801561237c57600080fd5b505af1158015612390573d6000803e3d6000fd5b50505050506040513d60208110156123a757600080fd5b81019080805190602001909291905050509150505b949350505050565b600033905090565b600073ffffffffffffffffffffffffffffffffffffffff168173ffffffffffffffffffffffffffffffffffffffff161415612452576040517f08c379a00000000000000000000000000000000000000000000000000000000081526004018080602001828103825260268152602001806131636026913960400191505060405180910390fd5b8073ffffffffffffffffffffffffffffffffffffffff166000809054906101000a900473ffffffffffffffffffffffffffffffffffffffff1673ffffffffffffffffffffffffffffffffffffffff167f8be0079c531659141344cd1fd0a4f28419497f9722a3daafe3b4186f6b6457e060405160405180910390a3806000806101000a81548173ffffffffffffffffffffffffffffffffffffffff021916908373ffffffffffffffffffffffffffffffffffffffff16021790555050565b6000813b9050919050565b6000612525612a0a565b9050919050565b600060608390506000809050600080905060008090505b83518110156126cc57603084828151811061255a57fe5b602001015160f81c60f81b60f81c60ff16101580156125965750603984828151811061258257fe5b602001015160f81c60f81b60f81c60ff1611155b156125e85781156125b95760008614156125af576126cc565b8580600190039650505b600a8302925060308482815181106125cd57fe5b602001015160f81c60f81b60f81c60ff1603830192506126bf565b602e8482815181106125f657fe5b602001015160f81c60f81b60f81c60ff16141561266d578115612664576040517f08c379a000000000000000000000000000000000000000000000000000000000815260040180806020018281038252602c8152602001806132ab602c913960400191505060405180910390fd5b600191506126be565b6040517f08c379a000000000000000000000000000000000000000000000000000000000815260040180806020018281038252602c815260200180613205602c913960400191505060405180910390fd5b5b8080600101915050612543565b5060008511156126df5784600a0a820291505b81935050505092915050565b60008060008090505b848054905081101561274a578360ff1685828154811061271057fe5b9060005260206000200160000160149054906101000a900460ff1660ff16141561273d5781806001019250505b80806001019150506126f4565b508091505092915050565b6000808214156127b0576040517f08c379a00000000000000000000000000000000000000000000000000000000081526004018080602001828103825260278152602001806132846027913960400191505060405180910390fd5b6127c38284612f6190919063ffffffff16565b905092915050565b60008090505b8380549050811015612944578160ff168482815481106127ed57fe5b9060005260206000200160000160149054906101000a900460ff1660ff1614156129375782600b600086848154811061282257fe5b9060005260206000200160000160009054906101000a900473ffffffffffffffffffffffffffffffffffffffff1673ffffffffffffffffffffffffffffffffffffffff1673ffffffffffffffffffffffffffffffffffffffff168152602001908152602001600020819055508160ff167fa8e3695746830d3c956d8cff1478b7fc8669d5f20736c69dcd7688912c4dc2b78583815481106128bf57fe5b9060005260206000200160000160009054906101000a900473ffffffffffffffffffffffffffffffffffffffff1685604051808373ffffffffffffffffffffffffffffffffffffffff1673ffffffffffffffffffffffffffffffffffffffff1681526020018281526020019250505060405180910390a25b80806001019150506127d1565b50505050565b60008383111582906129f7576040517f08c379a00000000000000000000000000000000000000000000000000000000081526004018080602001828103825283818151815260200191508051906020019080838360005b838110156129bc5780820151818401526020810190506129a1565b50505050905090810190601f1680156129e95780820380516001836020036101000a031916815260200191505b509250505060405180910390fd5b5060008385039050809150509392505050565b600080612a2a731d3b2638a7cc9f2cb3d298a3da7a90b67e5506ed612510565b1115612acc57731d3b2638a7cc9f2cb3d298a3da7a90b67e5506ed600260006101000a81548173ffffffffffffffffffffffffffffffffffffffff021916908373ffffffffffffffffffffffffffffffffffffffff160217905550612ac36040518060400160405280600b81526020017f6574685f6d61696e6e6574000000000000000000000000000000000000000000815250612fab565b60019050612f5e565b6000612aeb73c03a2615d5efaf5f49f60b7bb6583eaec212fdf1612510565b1115612b8d5773c03a2615d5efaf5f49f60b7bb6583eaec212fdf1600260006101000a81548173ffffffffffffffffffffffffffffffffffffffff021916908373ffffffffffffffffffffffffffffffffffffffff160217905550612b846040518060400160405280600c81526020017f6574685f726f707374656e330000000000000000000000000000000000000000815250612fab565b60019050612f5e565b6000612bac73b7a07bcf2ba2f2703b24c0691b5278999c59ac7e612510565b1115612c4e5773b7a07bcf2ba2f2703b24c0691b5278999c59ac7e600260006101000a81548173ffffffffffffffffffffffffffffffffffffffff021916908373ffffffffffffffffffffffffffffffffffffffff160217905550612c456040518060400160405280600981526020017f6574685f6b6f76616e0000000000000000000000000000000000000000000000815250612fab565b60019050612f5e565b6000612c6d73146500cfd35b22e4a392fe0adc06de1a1368ed48612510565b1115612d0f5773146500cfd35b22e4a392fe0adc06de1a1368ed48600260006101000a81548173ffffffffffffffffffffffffffffffffffffffff021916908373ffffffffffffffffffffffffffffffffffffffff160217905550612d066040518060400160405280600b81526020017f6574685f72696e6b656279000000000000000000000000000000000000000000815250612fab565b60019050612f5e565b6000612d2e73a2998efd205fb9d4b4963afb70778d6354ad3a41612510565b1115612dd05773a2998efd205fb9d4b4963afb70778d6354ad3a41600260006101000a81548173ffffffffffffffffffffffffffffffffffffffff021916908373ffffffffffffffffffffffffffffffffffffffff160217905550612dc76040518060400160405280600a81526020017f6574685f676f65726c6900000000000000000000000000000000000000000000815250612fab565b60019050612f5e565b6000612def736f485c8bf6fc43ea212e93bbf8ce046c7f1cb475612510565b1115612e5357736f485c8bf6fc43ea212e93bbf8ce046c7f1cb475600260006101000a81548173ffffffffffffffffffffffffffffffffffffffff021916908373ffffffffffffffffffffffffffffffffffffffff16021790555060019050612f5e565b6000612e727320e12a1f859b3feae5fb2a0a32c18f5a65555bbf612510565b1115612ed6577320e12a1f859b3feae5fb2a0a32c18f5a65555bbf600260006101000a81548173ffffffffffffffffffffffffffffffffffffffff021916908373ffffffffffffffffffffffffffffffffffffffff16021790555060019050612f5e565b6000612ef57351efaf4c8b3c9afbd5ab9f4bbc82784ab6ef8faa612510565b1115612f59577351efaf4c8b3c9afbd5ab9f4bbc82784ab6ef8faa600260006101000a81548173ffffffffffffffffffffffffffffffffffffffff021916908373ffffffffffffffffffffffffffffffffffffffff16021790555060019050612f5e565b600090505b90565b6000612fa383836040518060400160405280601a81526020017f536166654d6174683a206469766973696f6e206279207a65726f000000000000815250612fc5565b905092915050565b8060039080519060200190612fc192919061308b565b5050565b60008083118290613071576040517f08c379a00000000000000000000000000000000000000000000000000000000081526004018080602001828103825283818151815260200191508051906020019080838360005b8381101561303657808201518184015260208101905061301b565b50505050905090810190601f1680156130635780820380516001836020036101000a031916815260200191505b509250505060405180910390fd5b50600083858161307d57fe5b049050809150509392505050565b828054600181600116156101000203166002900490600052602060002090601f016020900481019282601f106130cc57805160ff19168380011785556130fa565b828001600101855582156130fa579182015b828111156130f95782518255916020019190600101906130de565b5b509050613107919061310b565b5090565b61312d91905b80821115613129576000816000905550600101613111565b5090565b9056fe4f6e6c792070726f7661626c65204150492069732061626c6520746f2070726f6365737320746869732066756e6374696f6e4f776e61626c653a206e6577206f776e657220697320746865207a65726f206164647265737350726f7661626c6520717565727920776173204e4f542073656e742c20706c656173652061646420736f6d652045544820746f20636f76657220666f722074686520717565727920666565596f7520646f6e27742068617665207065726d697373696f6e20746f20636f6d706c657465207468697320616374696f6e4e6f6e2d6e756d6572616c2063686172616374657220656e636f756e746572656420696e20737472696e672150726f7661626c65207175657279207761732073656e742c2072616e646f6d206e756d62657220776173207265717565737465642c207374616e64696e6720627920666f722074686520616e737765722e2e2e57696e6e65727320616d6f756e742063616e206e6f7420626520657175616c20746f207a65726f4d6f7265207468616e206f6e6520646563696d616c20656e636f756e746572656420696e20737472696e6721a265627a7a7231582032965640de691d760b9f0ed156d5b808f4fe4720f760069e16be11fb41768cc164736f6c6343000510003250726f7661626c6520717565727920776173204e4f542073656e742c20706c656173652061646420736f6d652045544820746f20636f76657220666f722074686520717565727920666565596f7520646f6e27742068617665207065726d697373696f6e20746f20636f6d706c657465207468697320616374696f6e50726f7661626c65207175657279207761732073656e742c2072616e646f6d206e756d62657220776173207265717565737465642c207374616e64696e6720627920666f722074686520616e737765722e2e2e",
  "source": "pragma solidity >=0.4.21 <0.7.0;\n\nimport \"@openzeppelin/contracts/math/SafeMath.sol\";\nimport \"@openzeppelin/contracts/ownership/Ownable.sol\";\nimport \"./provableAPI.sol\";\n\ncontract E_loto is Ownable, usingProvable {\n    using SafeMath for uint256;\n\n    uint256 public gameIntervalInSeconds;\n    uint256 public provableCustomGasLimit;\n    uint256 public contractBounty;\n    uint256 public provableBalance;\n    bytes32 public gameId;\n\n    struct Game {\n        mapping(address => bool) isAlreadyBet;\n        Staker[] stakers;\n        uint256 stakesTotal;\n        bool isClosed;\n    }\n\n    struct Staker {\n        address account;\n        uint8 bet;\n    }\n\n    mapping(address => uint256) public balances;\n    mapping(bytes32 => Game) public games;\n    mapping(bytes32 => bool) public pendingQueries;\n\n    event NewStake(address indexed _staker, uint8 indexed _bet);\n    event NewWinner(\n        uint8 indexed _winningNumber,\n        address _winner,\n        uint256 _rewardAmount\n    );\n    event NoWinners(string _description, uint8 indexed _winningNumber);\n    event NewProvableQuery(string _description);\n    event NoStakes(string _description);\n\n    modifier onlyValidBet(uint8 _bet) {\n        require(_bet < 10, \"Bet is'n valid\");\n        _;\n    }\n\n    modifier onlySystem() {\n        require(\n            msg.sender == provable_cbAddress() ||\n                msg.sender == address(this) ||\n                msg.sender == address(uint160(owner())),\n            \"You don't have permission to complete this action\"\n        );\n        _;\n    }\n\n    function() external payable {\n        provableBalance = provableBalance.add(msg.value);\n    }\n\n    constructor(uint256 _gameIntervalInSeconds, uint256 _provableCustomGasLimit)\n        public\n        payable\n    {\n        gameIntervalInSeconds = _gameIntervalInSeconds;\n        provableCustomGasLimit = _provableCustomGasLimit;\n        provableBalance = msg.value;\n\n        queryNextWinningNumber();\n    }\n\n    function __callback(bytes32 _queryId, string memory _resultRandom) public {\n        require(\n            msg.sender == provable_cbAddress(),\n            \"Only provable API is able to process this function\"\n        );\n        require(pendingQueries[_queryId] == true, \"Query has been processed\");\n\n        uint8 winningNumber = uint8(safeParseInt(_resultRandom));\n        processGame(winningNumber);\n\n        queryNextWinningNumber();\n        delete pendingQueries[_queryId];\n    }\n\n    function queryNextWinningNumber() public payable onlySystem {\n        uint256 provableQueryPrice = provable_getPrice(\n            \"WolframAlpha\",\n            provableCustomGasLimit\n        );\n        if (provableQueryPrice > provableBalance) {\n            emit NewProvableQuery(\n                \"Provable query was NOT sent, please add some ETH to cover for the query fee\"\n            );\n        } else {\n            provableBalance = provableBalance.sub(provableQueryPrice);\n\n            gameId = provable_query(\n                gameIntervalInSeconds,\n                \"WolframAlpha\",\n                \"random number between 0 and 9\",\n                provableCustomGasLimit\n            );\n\n            emit NewProvableQuery(\n                \"Provable query was sent, random number was requested, standing by for the answer...\"\n            );\n\n            pendingQueries[gameId] = true;\n        }\n    }\n\n    function placeStake(uint8 _bet) public payable onlyValidBet(_bet) {\n        require(\n            msg.value == 15000000000000000,\n            \"Stake must be equal 0.015 ether\"\n        );\n\n        Game storage game = games[gameId];\n\n        require(!game.isClosed, \"Game is closed\");\n        require(\n            !game.isAlreadyBet[msg.sender],\n            \"You have already placed your bet\"\n        );\n\n        game.isAlreadyBet[msg.sender] = true;\n        game.stakesTotal = game.stakesTotal.add(msg.value);\n        game.stakers.push(Staker(msg.sender, _bet));\n        emit NewStake(msg.sender, _bet);\n    }\n\n    function processGame(uint8 _winningNumber) private {\n        Game storage game = games[gameId];\n        game.isClosed = true;\n\n        if (game.stakesTotal == 0) {\n            emit NoStakes(\"No stakes in this game!\");\n            return;\n        }\n\n        uint256 winnersAmount = determineAmountOfWinners(\n            game.stakers,\n            _winningNumber\n        );\n\n        uint256 provableFee = provable_getPrice(\n            \"WolframAlpha\",\n            provableCustomGasLimit\n        );\n\n        provableBalance = provableBalance.add(provableFee);\n\n        uint256 stakesToReward = game.stakesTotal.sub(provableFee);\n\n        if (winnersAmount > 0) {\n            uint256 rewardAmount = determineRewardAmount(\n                stakesToReward,\n                winnersAmount\n            );\n\n            increaseBalanceIfWinner(game.stakers, rewardAmount, _winningNumber);\n\n        } else {\n            contractBounty = contractBounty.add(stakesToReward);\n            emit NoWinners(\"No winners in this game!\", _winningNumber);\n        }\n    }\n\n    function determineAmountOfWinners(\n        Staker[] storage _stakers,\n        uint8 _winningNumber\n    ) private view returns (uint256) {\n        uint256 j;\n        for (uint256 i = 0; i < _stakers.length; i++) {\n            if (_stakers[i].bet == _winningNumber) {\n                j++;\n            }\n        }\n        return j;\n    }\n\n    function determineRewardAmount(uint256 _stakesTotal, uint256 _winnersAmount)\n        private\n        pure\n        returns (uint256)\n    {\n        require(_winnersAmount != 0, \"Winners amount can not be equal to zero\");\n        return _stakesTotal.div(_winnersAmount);\n    }\n\n    function increaseBalanceIfWinner(\n        Staker[] storage _stakers,\n        uint256 _rewardAmount,\n        uint8 _winningNumber\n    ) private {\n        for (uint256 i = 0; i < _stakers.length; i++) {\n            if (_stakers[i].bet == _winningNumber) {\n                balances[_stakers[i].account] = _rewardAmount;\n                emit NewWinner(\n                    _winningNumber,\n                    _stakers[i].account,\n                    _rewardAmount\n                );\n            }\n        }\n    }\n\n    function updateGameInterval(uint256 _gameIntervalInSeconds)\n        public\n        onlyOwner\n    {\n        gameIntervalInSeconds = _gameIntervalInSeconds;\n    }\n\n    function updateProvableCustomGasLimit(uint256 _provableCustomGasLimit)\n        public\n        onlyOwner\n    {\n        provableCustomGasLimit = _provableCustomGasLimit;\n    }\n\n    function withdraw() public {\n        uint256 amount = balances[msg.sender];\n        balances[msg.sender] = 0;\n        msg.sender.transfer(amount);\n    }\n\n    function withdrawBounty() public onlyOwner {\n        uint256 amount = contractBounty;\n        contractBounty = 0;\n        address(uint160(owner())).transfer(amount);\n    }\n}\n",
  "sourcePath": "/Users/denis/Documents/_Workspace/e-loto/truffle/contracts/E_loto.sol",
  "compiler": {
    "name": "solc",
    "version": "0.5.16+commit.9c3226ce.Emscripten.clang"
  },
  "schemaVersion": "3.0.23",
  "updatedAt": "2020-03-24T17:17:17.075Z",
  "networkType": "ethereum",
  "devdoc": {
    "methods": {
      "isOwner()": {
        "details": "Returns true if the caller is the current owner."
      },
      "owner()": {
        "details": "Returns the address of the current owner."
      },
      "renounceOwnership()": {
        "details": "Leaves the contract without owner. It will not be possible to call `onlyOwner` functions anymore. Can only be called by the current owner.     * NOTE: Renouncing ownership will leave the contract without an owner, thereby removing any functionality that is only available to the owner."
      },
      "transferOwnership(address)": {
        "details": "Transfers ownership of the contract to a new account (`newOwner`). Can only be called by the current owner."
      }
    }
  },
  "userdoc": {
    "methods": {}
  }
}