{
  "contractName": "E_loto",
  "abi": [
    {
      "inputs": [
        {
          "internalType": "uint256",
          "name": "_gameInterval",
          "type": "uint256"
        }
      ],
      "payable": false,
      "stateMutability": "nonpayable",
      "type": "constructor"
    },
    {
      "anonymous": false,
      "inputs": [
        {
          "indexed": true,
          "internalType": "uint8",
          "name": "_winningNumber",
          "type": "uint8"
        },
        {
          "indexed": true,
          "internalType": "uint256",
          "name": "_scheduledBlock",
          "type": "uint256"
        },
        {
          "indexed": true,
          "internalType": "bytes32",
          "name": "_nextGameId",
          "type": "bytes32"
        }
      ],
      "name": "DetermineWinningNumber",
      "type": "event"
    },
    {
      "anonymous": false,
      "inputs": [
        {
          "indexed": true,
          "internalType": "address",
          "name": "previousOwner",
          "type": "address"
        },
        {
          "indexed": true,
          "internalType": "address",
          "name": "newOwner",
          "type": "address"
        }
      ],
      "name": "OwnershipTransferred",
      "type": "event"
    },
    {
      "anonymous": false,
      "inputs": [
        {
          "indexed": true,
          "internalType": "address",
          "name": "_staker",
          "type": "address"
        },
        {
          "indexed": true,
          "internalType": "uint8",
          "name": "_bet",
          "type": "uint8"
        }
      ],
      "name": "PlaceStake",
      "type": "event"
    },
    {
      "constant": true,
      "inputs": [
        {
          "internalType": "address",
          "name": "",
          "type": "address"
        }
      ],
      "name": "balances",
      "outputs": [
        {
          "internalType": "uint256",
          "name": "",
          "type": "uint256"
        }
      ],
      "payable": false,
      "stateMutability": "view",
      "type": "function"
    },
    {
      "constant": true,
      "inputs": [],
      "name": "contractBounty",
      "outputs": [
        {
          "internalType": "uint256",
          "name": "",
          "type": "uint256"
        }
      ],
      "payable": false,
      "stateMutability": "view",
      "type": "function"
    },
    {
      "constant": true,
      "inputs": [],
      "name": "gameId",
      "outputs": [
        {
          "internalType": "bytes32",
          "name": "",
          "type": "bytes32"
        }
      ],
      "payable": false,
      "stateMutability": "view",
      "type": "function"
    },
    {
      "constant": true,
      "inputs": [],
      "name": "gameInterval",
      "outputs": [
        {
          "internalType": "uint256",
          "name": "",
          "type": "uint256"
        }
      ],
      "payable": false,
      "stateMutability": "view",
      "type": "function"
    },
    {
      "constant": true,
      "inputs": [
        {
          "internalType": "bytes32",
          "name": "",
          "type": "bytes32"
        }
      ],
      "name": "games",
      "outputs": [
        {
          "internalType": "uint256",
          "name": "stakesTotal",
          "type": "uint256"
        }
      ],
      "payable": false,
      "stateMutability": "view",
      "type": "function"
    },
    {
      "constant": true,
      "inputs": [],
      "name": "isOwner",
      "outputs": [
        {
          "internalType": "bool",
          "name": "",
          "type": "bool"
        }
      ],
      "payable": false,
      "stateMutability": "view",
      "type": "function"
    },
    {
      "constant": true,
      "inputs": [],
      "name": "owner",
      "outputs": [
        {
          "internalType": "address",
          "name": "",
          "type": "address"
        }
      ],
      "payable": false,
      "stateMutability": "view",
      "type": "function"
    },
    {
      "constant": false,
      "inputs": [],
      "name": "renounceOwnership",
      "outputs": [],
      "payable": false,
      "stateMutability": "nonpayable",
      "type": "function"
    },
    {
      "constant": true,
      "inputs": [],
      "name": "scheduledBlock",
      "outputs": [
        {
          "internalType": "uint256",
          "name": "",
          "type": "uint256"
        }
      ],
      "payable": false,
      "stateMutability": "view",
      "type": "function"
    },
    {
      "constant": false,
      "inputs": [
        {
          "internalType": "address",
          "name": "newOwner",
          "type": "address"
        }
      ],
      "name": "transferOwnership",
      "outputs": [],
      "payable": false,
      "stateMutability": "nonpayable",
      "type": "function"
    },
    {
      "constant": false,
      "inputs": [
        {
          "internalType": "uint256",
          "name": "_gameInterval",
          "type": "uint256"
        }
      ],
      "name": "updateGameInterval",
      "outputs": [],
      "payable": false,
      "stateMutability": "nonpayable",
      "type": "function"
    },
    {
      "constant": false,
      "inputs": [
        {
          "internalType": "uint8",
          "name": "_bet",
          "type": "uint8"
        }
      ],
      "name": "placeStake",
      "outputs": [],
      "payable": true,
      "stateMutability": "payable",
      "type": "function"
    },
    {
      "constant": false,
      "inputs": [],
      "name": "determineWinners",
      "outputs": [],
      "payable": false,
      "stateMutability": "nonpayable",
      "type": "function"
    },
    {
      "constant": false,
      "inputs": [],
      "name": "withdraw",
      "outputs": [],
      "payable": false,
      "stateMutability": "nonpayable",
      "type": "function"
    },
    {
      "constant": false,
      "inputs": [],
      "name": "withdrawBounty",
      "outputs": [],
      "payable": false,
      "stateMutability": "nonpayable",
      "type": "function"
    }
  ],
  "bytecode": "0x608060405234801561001057600080fd5b5060405161157b38038061157b8339818101604052602081101561003357600080fd5b8101908080519060200190929190505050600061005461011e60201b60201c565b9050806000806101000a81548173ffffffffffffffffffffffffffffffffffffffff021916908373ffffffffffffffffffffffffffffffffffffffff1602179055508073ffffffffffffffffffffffffffffffffffffffff16600073ffffffffffffffffffffffffffffffffffffffff167f8be0079c531659141344cd1fd0a4f28419497f9722a3daafe3b4186f6b6457e060405160405180910390a350806001819055506101126001544361012660201b610f741790919060201c565b600381905550506101ae565b600033905090565b6000808284019050838110156101a4576040517f08c379a000000000000000000000000000000000000000000000000000000000815260040180806020018281038252601b8152602001807f536166654d6174683a206164646974696f6e206f766572666c6f77000000000081525060200191505060405180910390fd5b8091505092915050565b6113be806101bd6000396000f3fe6080604052600436106100e85760003560e01c80636bc31d351161008a5780638f32d59b116100595780638f32d59b146102f2578063d7c81b5514610321578063f2fde38b1461034c578063f579f8821461039d576100e8565b80636bc31d351461021e578063715018a61461025957806383feba58146102705780638da5cb5b1461029b576100e8565b80632a25545a116100c65780632a25545a146101ae5780632cf4e56f146101d95780633ccfd60b146101f05780635cdaa6eb14610207576100e8565b806321ceaaa4146100ed57806327e235e31461011e57806327ecc22114610183575b600080fd5b61011c6004803603602081101561010357600080fd5b81019080803560ff1690602001909291905050506103ec565b005b34801561012a57600080fd5b5061016d6004803603602081101561014157600080fd5b81019080803573ffffffffffffffffffffffffffffffffffffffff1690602001909291905050506107a0565b6040518082815260200191505060405180910390f35b34801561018f57600080fd5b506101986107b8565b6040518082815260200191505060405180910390f35b3480156101ba57600080fd5b506101c36107be565b6040518082815260200191505060405180910390f35b3480156101e557600080fd5b506101ee6107c4565b005b3480156101fc57600080fd5b5061020561089e565b005b34801561021357600080fd5b5061021c610971565b005b34801561022a57600080fd5b506102576004803603602081101561024157600080fd5b8101908080359060200190929190505050610c80565b005b34801561026557600080fd5b5061026e610d04565b005b34801561027c57600080fd5b50610285610e3d565b6040518082815260200191505060405180910390f35b3480156102a757600080fd5b506102b0610e43565b604051808273ffffffffffffffffffffffffffffffffffffffff1673ffffffffffffffffffffffffffffffffffffffff16815260200191505060405180910390f35b3480156102fe57600080fd5b50610307610e6c565b604051808215151515815260200191505060405180910390f35b34801561032d57600080fd5b50610336610eca565b6040518082815260200191505060405180910390f35b34801561035857600080fd5b5061039b6004803603602081101561036f57600080fd5b81019080803573ffffffffffffffffffffffffffffffffffffffff169060200190929190505050610ed0565b005b3480156103a957600080fd5b506103d6600480360360208110156103c057600080fd5b8101908080359060200190929190505050610f56565b6040518082815260200191505060405180910390f35b80600a8160ff1610610466576040517f08c379a000000000000000000000000000000000000000000000000000000000815260040180806020018281038252600e8152602001807f426574206973276e2076616c696400000000000000000000000000000000000081525060200191505060405180910390fd5b60035443106104c0576040517f08c379a00000000000000000000000000000000000000000000000000000000081526004018080602001828103825260228152602001806113686022913960400191505060405180910390fd5b66354a6ba7a18000341461053c576040517f08c379a000000000000000000000000000000000000000000000000000000000815260040180806020018281038252601f8152602001807f5374616b65206d75737420626520657175616c20302e3031352065746865720081525060200191505060405180910390fd5b600060066000600454815260200190815260200160002090508060000160003373ffffffffffffffffffffffffffffffffffffffff1673ffffffffffffffffffffffffffffffffffffffff16815260200190815260200160002060009054906101000a900460ff1615610617576040517f08c379a00000000000000000000000000000000000000000000000000000000081526004018080602001828103825260208152602001807f596f75206861766520616c726561647920706c6163656420796f75722062657481525060200191505060405180910390fd5b60018160000160003373ffffffffffffffffffffffffffffffffffffffff1673ffffffffffffffffffffffffffffffffffffffff16815260200190815260200160002060006101000a81548160ff021916908315150217905550610688348260030154610f7490919063ffffffff16565b81600301819055508060010160405180604001604052803373ffffffffffffffffffffffffffffffffffffffff1681526020018560ff1681525090806001815401808255809150509060018203906000526020600020016000909192909190915060008201518160000160006101000a81548173ffffffffffffffffffffffffffffffffffffffff021916908373ffffffffffffffffffffffffffffffffffffffff16021790555060208201518160000160146101000a81548160ff021916908360ff1602179055505050508260ff163373ffffffffffffffffffffffffffffffffffffffff167f27e30eb590c41d13dfa249ac5c169b5d5ff1d11eebca7ac95eccc1a01b2fadb860405160405180910390a3505050565b60056020528060005260406000206000915090505481565b60015481565b60025481565b6107cc610e6c565b61083e576040517f08c379a00000000000000000000000000000000000000000000000000000000081526004018080602001828103825260208152602001807f4f776e61626c653a2063616c6c6572206973206e6f7420746865206f776e657281525060200191505060405180910390fd5b600060025490506000600281905550610855610e43565b73ffffffffffffffffffffffffffffffffffffffff166108fc829081150290604051600060405180830381858888f1935050505015801561089a573d6000803e3d6000fd5b5050565b6000600560003373ffffffffffffffffffffffffffffffffffffffff1673ffffffffffffffffffffffffffffffffffffffff1681526020019081526020016000205490506000600560003373ffffffffffffffffffffffffffffffffffffffff1673ffffffffffffffffffffffffffffffffffffffff168152602001908152602001600020819055503373ffffffffffffffffffffffffffffffffffffffff166108fc829081150290604051600060405180830381858888f1935050505015801561096d573d6000803e3d6000fd5b5050565b6003544310156109e9576040517f08c379a000000000000000000000000000000000000000000000000000000000815260040180806020018281038252600f8152602001807f47616d65206973206e6f7420656e64000000000000000000000000000000000081525060200191505060405180910390fd5b600060066000600454815260200190815260200160002090506000610a0c610ffc565b905060008090505b8260010180549050811015610b0c578160ff16836001018281548110610a3657fe5b9060005260206000200160000160149054906101000a900460ff1660ff161415610aff5782600201836001018281548110610a6d57fe5b9060005260206000200160000160009054906101000a900473ffffffffffffffffffffffffffffffffffffffff1690806001815401808255809150509060018203906000526020600020016000909192909190916101000a81548173ffffffffffffffffffffffffffffffffffffffff021916908373ffffffffffffffffffffffffffffffffffffffff160217905550505b8080600101915050610a14565b50600082600201805490501115610bdc576000610b3483600301548460020180549050611048565b905060008090505b8360020180549050811015610bd5578160056000866002018481548110610b5f57fe5b9060005260206000200160009054906101000a900473ffffffffffffffffffffffffffffffffffffffff1673ffffffffffffffffffffffffffffffffffffffff1673ffffffffffffffffffffffffffffffffffffffff168152602001908152602001600020819055508080600101915050610b3c565b5050610bfc565b610bf58260030154600254610f7490919063ffffffff16565b6002819055505b610c1160015443610f7490919063ffffffff16565b60038190555060035460405160200180828152602001915050604051602081830303815290604052805190602001206004819055506004546003548260ff167fd130bc9fcd35c953f25a7d5a38785c23c4c8a18a7e31153885bc539368064e6a60405160405180910390a45050565b610c88610e6c565b610cfa576040517f08c379a00000000000000000000000000000000000000000000000000000000081526004018080602001828103825260208152602001807f4f776e61626c653a2063616c6c6572206973206e6f7420746865206f776e657281525060200191505060405180910390fd5b8060018190555050565b610d0c610e6c565b610d7e576040517f08c379a00000000000000000000000000000000000000000000000000000000081526004018080602001828103825260208152602001807f4f776e61626c653a2063616c6c6572206973206e6f7420746865206f776e657281525060200191505060405180910390fd5b600073ffffffffffffffffffffffffffffffffffffffff166000809054906101000a900473ffffffffffffffffffffffffffffffffffffffff1673ffffffffffffffffffffffffffffffffffffffff167f8be0079c531659141344cd1fd0a4f28419497f9722a3daafe3b4186f6b6457e060405160405180910390a360008060006101000a81548173ffffffffffffffffffffffffffffffffffffffff021916908373ffffffffffffffffffffffffffffffffffffffff160217905550565b60035481565b60008060009054906101000a900473ffffffffffffffffffffffffffffffffffffffff16905090565b60008060009054906101000a900473ffffffffffffffffffffffffffffffffffffffff1673ffffffffffffffffffffffffffffffffffffffff16610eae6110be565b73ffffffffffffffffffffffffffffffffffffffff1614905090565b60045481565b610ed8610e6c565b610f4a576040517f08c379a00000000000000000000000000000000000000000000000000000000081526004018080602001828103825260208152602001807f4f776e61626c653a2063616c6c6572206973206e6f7420746865206f776e657281525060200191505060405180910390fd5b610f53816110c6565b50565b60066020528060005260406000206000915090508060030154905081565b600080828401905083811015610ff2576040517f08c379a000000000000000000000000000000000000000000000000000000000815260040180806020018281038252601b8152602001807f536166654d6174683a206164646974696f6e206f766572666c6f77000000000081525060200191505060405180910390fd5b8091505092915050565b60006009424443406040516020018084815260200183815260200182815260200193505050506040516020818303038152906040528051906020012060001c8161104257fe5b06905090565b6000808214156110a3576040517f08c379a00000000000000000000000000000000000000000000000000000000081526004018080602001828103825260278152602001806113416027913960400191505060405180910390fd5b6110b6828461120a90919063ffffffff16565b905092915050565b600033905090565b600073ffffffffffffffffffffffffffffffffffffffff168173ffffffffffffffffffffffffffffffffffffffff16141561114c576040517f08c379a000000000000000000000000000000000000000000000000000000000815260040180806020018281038252602681526020018061131b6026913960400191505060405180910390fd5b8073ffffffffffffffffffffffffffffffffffffffff166000809054906101000a900473ffffffffffffffffffffffffffffffffffffffff1673ffffffffffffffffffffffffffffffffffffffff167f8be0079c531659141344cd1fd0a4f28419497f9722a3daafe3b4186f6b6457e060405160405180910390a3806000806101000a81548173ffffffffffffffffffffffffffffffffffffffff021916908373ffffffffffffffffffffffffffffffffffffffff16021790555050565b600061124c83836040518060400160405280601a81526020017f536166654d6174683a206469766973696f6e206279207a65726f000000000000815250611254565b905092915050565b60008083118290611300576040517f08c379a00000000000000000000000000000000000000000000000000000000081526004018080602001828103825283818151815260200191508051906020019080838360005b838110156112c55780820151818401526020810190506112aa565b50505050905090810190601f1680156112f25780820380516001836020036101000a031916815260200191505b509250505060405180910390fd5b50600083858161130c57fe5b04905080915050939250505056fe4f776e61626c653a206e6577206f776e657220697320746865207a65726f206164647265737357696e6e65727320616d6f756e742063616e206e6f7420626520657175616c20746f207a65726f5468657265206973206e6f20706c61636520666f72206f6e65206d6f726520626574a265627a7a72315820d267bdd328797d8b05d227407ca6dc72ed4976f6d6efe01348ee2bc1e8ff29a064736f6c63430005100032",
  "source": "pragma solidity >=0.4.21 <0.7.0;\n\nimport \"@openzeppelin/contracts/math/SafeMath.sol\";\nimport \"@openzeppelin/contracts/ownership/Ownable.sol\";\n\ncontract E_loto is Ownable {\n    using SafeMath for uint256;\n\n    uint256 public gameInterval;\n    uint256 public contractBounty;\n    uint256 public scheduledBlock;\n    bytes32 public gameId;\n\n    struct Game {\n        mapping(address => bool) isAlreadyBet;\n        Staker[] stakers;\n        address[] winners;\n        uint256 stakesTotal;\n    }\n\n    struct Staker {\n        address account;\n        uint8 bet;\n    }\n\n    mapping(address => uint256) public balances;\n    mapping(bytes32 => Game) public games;\n\n    event PlaceStake(address indexed _staker, uint8 indexed _bet);\n    event DetermineWinningNumber(\n        uint8 indexed _winningNumber,\n        uint256 indexed _scheduledBlock,\n        bytes32 indexed _nextGameId\n    );\n\n    modifier onlyValidBet(uint8 _bet) {\n        require(_bet < 10, \"Bet is'n valid\");\n        _;\n    }\n\n    constructor(uint256 _gameInterval) public {\n        gameInterval = _gameInterval;\n        scheduledBlock = block.number.add(gameInterval);\n    }\n\n    function updateGameInterval(uint256 _gameInterval) public onlyOwner {\n        gameInterval = _gameInterval;\n    }\n\n    function placeStake(uint8 _bet) public payable onlyValidBet(_bet) {\n        require(\n            block.number < scheduledBlock,\n            \"There is no place for one more bet\"\n        );\n        require(\n            msg.value == 15000000000000000,\n            \"Stake must be equal 0.015 ether\"\n        );\n\n        Game storage game = games[gameId];\n\n        require(\n            !game.isAlreadyBet[msg.sender],\n            \"You have already placed your bet\"\n        );\n\n        game.isAlreadyBet[msg.sender] = true;\n        game.stakesTotal = game.stakesTotal.add(msg.value);\n        game.stakers.push(Staker(msg.sender, _bet));\n        emit PlaceStake(msg.sender, _bet);\n    }\n\n    function determineWinners() public {\n        require(block.number >= scheduledBlock, \"Game is not end\");\n\n        Game storage game = games[gameId];\n        uint8 winningNumber = generateWinningMumber();\n\n        for (uint256 i = 0; i < game.stakers.length; i++) {\n            if (game.stakers[i].bet == winningNumber) {\n                game.winners.push(game.stakers[i].account);\n            }\n        }\n\n        if (game.winners.length > 0) {\n            uint256 rewardAmount = determineRewardAmount(\n                game.stakesTotal,\n                game.winners.length\n            );\n\n            for (uint256 j = 0; j < game.winners.length; j++) {\n                balances[game.winners[j]] = rewardAmount;\n            }\n        } else {\n            contractBounty = contractBounty.add(game.stakesTotal);\n        }\n\n        scheduledBlock = block.number.add(gameInterval);\n        gameId = keccak256(abi.encodePacked(scheduledBlock));\n        emit DetermineWinningNumber(winningNumber, scheduledBlock, gameId);\n    }\n\n    function determineRewardAmount(uint256 _stakesTotal, uint256 _winnersAmount)\n        private\n        pure\n        returns (uint256)\n    {\n        require(_winnersAmount != 0, \"Winners amount can not be equal to zero\");\n        return _stakesTotal.div(_winnersAmount);\n    }\n\n    // TODO: find more secure way to generate random number\n    function generateWinningMumber() private view returns (uint8) {\n        return\n            uint8(\n                uint256(\n                    keccak256(\n                        abi.encodePacked(\n                            block.timestamp,\n                            block.difficulty,\n                            blockhash(block.number)\n                        )\n                    )\n                ) %\n                    9\n            );\n    }\n\n    function withdraw() public {\n        uint256 amount = balances[msg.sender];\n        balances[msg.sender] = 0;\n        msg.sender.transfer(amount);\n    }\n\n    function withdrawBounty() public onlyOwner {\n        uint256 amount = contractBounty;\n        contractBounty = 0;\n        address(uint160(owner())).transfer(amount);\n    }\n}\n",
  "sourcePath": "/Users/denis/Documents/_Workspace/e-loto/truffle/contracts/E_loto.sol",
  "compiler": {
    "name": "solc",
    "version": "0.5.16+commit.9c3226ce.Emscripten.clang"
  },
  "schemaVersion": "3.0.22",
  "updatedAt": "2020-02-28T14:00:48.197Z",
  "networkType": "ethereum",
  "devdoc": {
    "methods": {
      "isOwner()": {
        "details": "Returns true if the caller is the current owner."
      },
      "owner()": {
        "details": "Returns the address of the current owner."
      },
      "renounceOwnership()": {
        "details": "Leaves the contract without owner. It will not be possible to call `onlyOwner` functions anymore. Can only be called by the current owner.     * NOTE: Renouncing ownership will leave the contract without an owner, thereby removing any functionality that is only available to the owner."
      },
      "transferOwnership(address)": {
        "details": "Transfers ownership of the contract to a new account (`newOwner`). Can only be called by the current owner."
      }
    }
  },
  "userdoc": {
    "methods": {}
  }
}