{
  "contractName": "E_loto",
  "abi": [
    {
      "inputs": [],
      "payable": false,
      "stateMutability": "nonpayable",
      "type": "constructor"
    },
    {
      "anonymous": false,
      "inputs": [
        {
          "indexed": true,
          "internalType": "uint8",
          "name": "_winningNumber",
          "type": "uint8"
        },
        {
          "indexed": true,
          "internalType": "uint256",
          "name": "_scheduledBlock",
          "type": "uint256"
        },
        {
          "indexed": true,
          "internalType": "bytes32",
          "name": "_nextGameId",
          "type": "bytes32"
        }
      ],
      "name": "DetermineWinningNumber",
      "type": "event"
    },
    {
      "anonymous": false,
      "inputs": [
        {
          "indexed": true,
          "internalType": "address",
          "name": "previousOwner",
          "type": "address"
        },
        {
          "indexed": true,
          "internalType": "address",
          "name": "newOwner",
          "type": "address"
        }
      ],
      "name": "OwnershipTransferred",
      "type": "event"
    },
    {
      "anonymous": false,
      "inputs": [
        {
          "indexed": true,
          "internalType": "address",
          "name": "_staker",
          "type": "address"
        },
        {
          "indexed": true,
          "internalType": "uint8",
          "name": "_bet",
          "type": "uint8"
        }
      ],
      "name": "PlaceStake",
      "type": "event"
    },
    {
      "constant": true,
      "inputs": [
        {
          "internalType": "address",
          "name": "",
          "type": "address"
        }
      ],
      "name": "balances",
      "outputs": [
        {
          "internalType": "uint256",
          "name": "",
          "type": "uint256"
        }
      ],
      "payable": false,
      "stateMutability": "view",
      "type": "function"
    },
    {
      "constant": true,
      "inputs": [],
      "name": "contractBounty",
      "outputs": [
        {
          "internalType": "uint256",
          "name": "",
          "type": "uint256"
        }
      ],
      "payable": false,
      "stateMutability": "view",
      "type": "function"
    },
    {
      "constant": true,
      "inputs": [],
      "name": "gameId",
      "outputs": [
        {
          "internalType": "bytes32",
          "name": "",
          "type": "bytes32"
        }
      ],
      "payable": false,
      "stateMutability": "view",
      "type": "function"
    },
    {
      "constant": true,
      "inputs": [],
      "name": "gameInterval",
      "outputs": [
        {
          "internalType": "uint256",
          "name": "",
          "type": "uint256"
        }
      ],
      "payable": false,
      "stateMutability": "view",
      "type": "function"
    },
    {
      "constant": true,
      "inputs": [
        {
          "internalType": "bytes32",
          "name": "",
          "type": "bytes32"
        }
      ],
      "name": "games",
      "outputs": [
        {
          "internalType": "uint256",
          "name": "stakesTotal",
          "type": "uint256"
        }
      ],
      "payable": false,
      "stateMutability": "view",
      "type": "function"
    },
    {
      "constant": true,
      "inputs": [],
      "name": "isOwner",
      "outputs": [
        {
          "internalType": "bool",
          "name": "",
          "type": "bool"
        }
      ],
      "payable": false,
      "stateMutability": "view",
      "type": "function"
    },
    {
      "constant": true,
      "inputs": [],
      "name": "owner",
      "outputs": [
        {
          "internalType": "address",
          "name": "",
          "type": "address"
        }
      ],
      "payable": false,
      "stateMutability": "view",
      "type": "function"
    },
    {
      "constant": false,
      "inputs": [],
      "name": "renounceOwnership",
      "outputs": [],
      "payable": false,
      "stateMutability": "nonpayable",
      "type": "function"
    },
    {
      "constant": true,
      "inputs": [],
      "name": "scheduledBlock",
      "outputs": [
        {
          "internalType": "uint256",
          "name": "",
          "type": "uint256"
        }
      ],
      "payable": false,
      "stateMutability": "view",
      "type": "function"
    },
    {
      "constant": false,
      "inputs": [
        {
          "internalType": "address",
          "name": "newOwner",
          "type": "address"
        }
      ],
      "name": "transferOwnership",
      "outputs": [],
      "payable": false,
      "stateMutability": "nonpayable",
      "type": "function"
    },
    {
      "constant": false,
      "inputs": [
        {
          "internalType": "uint8",
          "name": "_bet",
          "type": "uint8"
        }
      ],
      "name": "placeStake",
      "outputs": [],
      "payable": true,
      "stateMutability": "payable",
      "type": "function"
    },
    {
      "constant": false,
      "inputs": [],
      "name": "determineWinners",
      "outputs": [],
      "payable": false,
      "stateMutability": "nonpayable",
      "type": "function"
    },
    {
      "constant": false,
      "inputs": [],
      "name": "withdraw",
      "outputs": [],
      "payable": false,
      "stateMutability": "nonpayable",
      "type": "function"
    },
    {
      "constant": false,
      "inputs": [],
      "name": "withdrawBounty",
      "outputs": [],
      "payable": false,
      "stateMutability": "nonpayable",
      "type": "function"
    }
  ],
  "bytecode": "0x608060405234801561001057600080fd5b5060006100216100e260201b60201c565b9050806000806101000a81548173ffffffffffffffffffffffffffffffffffffffff021916908373ffffffffffffffffffffffffffffffffffffffff1602179055508073ffffffffffffffffffffffffffffffffffffffff16600073ffffffffffffffffffffffffffffffffffffffff167f8be0079c531659141344cd1fd0a4f28419497f9722a3daafe3b4186f6b6457e060405160405180910390a3506100d7600a436100ea60201b610ea81790919060201c565b600281905550610172565b600033905090565b600080828401905083811015610168576040517f08c379a000000000000000000000000000000000000000000000000000000000815260040180806020018281038252601b8152602001807f536166654d6174683a206164646974696f6e206f766572666c6f77000000000081525060200191505060405180910390fd5b8091505092915050565b6112f2806101816000396000f3fe6080604052600436106100dd5760003560e01c8063715018a61161007f5780638f32d59b116100595780638f32d59b146102ac578063d7c81b55146102db578063f2fde38b14610306578063f579f88214610357576100dd565b8063715018a61461021357806383feba581461022a5780638da5cb5b14610255576100dd565b80632a25545a116100bb5780632a25545a146101a35780632cf4e56f146101ce5780633ccfd60b146101e55780635cdaa6eb146101fc576100dd565b806321ceaaa4146100e257806327e235e31461011357806327ecc22114610178575b600080fd5b610111600480360360208110156100f857600080fd5b81019080803560ff1690602001909291905050506103a6565b005b34801561011f57600080fd5b506101626004803603602081101561013657600080fd5b81019080803573ffffffffffffffffffffffffffffffffffffffff16906020019092919050505061075a565b6040518082815260200191505060405180910390f35b34801561018457600080fd5b5061018d610772565b6040518082815260200191505060405180910390f35b3480156101af57600080fd5b506101b8610777565b6040518082815260200191505060405180910390f35b3480156101da57600080fd5b506101e361077d565b005b3480156101f157600080fd5b506101fa610857565b005b34801561020857600080fd5b5061021161092a565b005b34801561021f57600080fd5b50610228610c38565b005b34801561023657600080fd5b5061023f610d71565b6040518082815260200191505060405180910390f35b34801561026157600080fd5b5061026a610d77565b604051808273ffffffffffffffffffffffffffffffffffffffff1673ffffffffffffffffffffffffffffffffffffffff16815260200191505060405180910390f35b3480156102b857600080fd5b506102c1610da0565b604051808215151515815260200191505060405180910390f35b3480156102e757600080fd5b506102f0610dfe565b6040518082815260200191505060405180910390f35b34801561031257600080fd5b506103556004803603602081101561032957600080fd5b81019080803573ffffffffffffffffffffffffffffffffffffffff169060200190929190505050610e04565b005b34801561036357600080fd5b506103906004803603602081101561037a57600080fd5b8101908080359060200190929190505050610e8a565b6040518082815260200191505060405180910390f35b80600a8160ff1610610420576040517f08c379a000000000000000000000000000000000000000000000000000000000815260040180806020018281038252600e8152602001807f426574206973276e2076616c696400000000000000000000000000000000000081525060200191505060405180910390fd5b600254431061047a576040517f08c379a000000000000000000000000000000000000000000000000000000000815260040180806020018281038252602281526020018061129c6022913960400191505060405180910390fd5b66354a6ba7a1800034146104f6576040517f08c379a000000000000000000000000000000000000000000000000000000000815260040180806020018281038252601f8152602001807f5374616b65206d75737420626520657175616c20302e3031352065746865720081525060200191505060405180910390fd5b600060056000600354815260200190815260200160002090508060000160003373ffffffffffffffffffffffffffffffffffffffff1673ffffffffffffffffffffffffffffffffffffffff16815260200190815260200160002060009054906101000a900460ff16156105d1576040517f08c379a00000000000000000000000000000000000000000000000000000000081526004018080602001828103825260208152602001807f596f75206861766520616c726561647920706c6163656420796f75722062657481525060200191505060405180910390fd5b60018160000160003373ffffffffffffffffffffffffffffffffffffffff1673ffffffffffffffffffffffffffffffffffffffff16815260200190815260200160002060006101000a81548160ff021916908315150217905550610642348260030154610ea890919063ffffffff16565b81600301819055508060010160405180604001604052803373ffffffffffffffffffffffffffffffffffffffff1681526020018560ff1681525090806001815401808255809150509060018203906000526020600020016000909192909190915060008201518160000160006101000a81548173ffffffffffffffffffffffffffffffffffffffff021916908373ffffffffffffffffffffffffffffffffffffffff16021790555060208201518160000160146101000a81548160ff021916908360ff1602179055505050508260ff163373ffffffffffffffffffffffffffffffffffffffff167f27e30eb590c41d13dfa249ac5c169b5d5ff1d11eebca7ac95eccc1a01b2fadb860405160405180910390a3505050565b60046020528060005260406000206000915090505481565b600a81565b60015481565b610785610da0565b6107f7576040517f08c379a00000000000000000000000000000000000000000000000000000000081526004018080602001828103825260208152602001807f4f776e61626c653a2063616c6c6572206973206e6f7420746865206f776e657281525060200191505060405180910390fd5b60006001549050600060018190555061080e610d77565b73ffffffffffffffffffffffffffffffffffffffff166108fc829081150290604051600060405180830381858888f19350505050158015610853573d6000803e3d6000fd5b5050565b6000600460003373ffffffffffffffffffffffffffffffffffffffff1673ffffffffffffffffffffffffffffffffffffffff1681526020019081526020016000205490506000600460003373ffffffffffffffffffffffffffffffffffffffff1673ffffffffffffffffffffffffffffffffffffffff168152602001908152602001600020819055503373ffffffffffffffffffffffffffffffffffffffff166108fc829081150290604051600060405180830381858888f19350505050158015610926573d6000803e3d6000fd5b5050565b6002544310156109a2576040517f08c379a000000000000000000000000000000000000000000000000000000000815260040180806020018281038252600f8152602001807f47616d65206973206e6f7420656e64000000000000000000000000000000000081525060200191505060405180910390fd5b6000600560006003548152602001908152602001600020905060006109c5610f30565b905060008090505b8260010180549050811015610ac5578160ff168360010182815481106109ef57fe5b9060005260206000200160000160149054906101000a900460ff1660ff161415610ab85782600201836001018281548110610a2657fe5b9060005260206000200160000160009054906101000a900473ffffffffffffffffffffffffffffffffffffffff1690806001815401808255809150509060018203906000526020600020016000909192909190916101000a81548173ffffffffffffffffffffffffffffffffffffffff021916908373ffffffffffffffffffffffffffffffffffffffff160217905550505b80806001019150506109cd565b50600082600201805490501115610b95576000610aed83600301548460020180549050610f7c565b905060008090505b8360020180549050811015610b8e578160046000866002018481548110610b1857fe5b9060005260206000200160009054906101000a900473ffffffffffffffffffffffffffffffffffffffff1673ffffffffffffffffffffffffffffffffffffffff1673ffffffffffffffffffffffffffffffffffffffff168152602001908152602001600020819055508080600101915050610af5565b5050610bb5565b610bae8260030154600154610ea890919063ffffffff16565b6001819055505b610bc9600a43610ea890919063ffffffff16565b60028190555060025460405160200180828152602001915050604051602081830303815290604052805190602001206003819055506003546002548260ff167fd130bc9fcd35c953f25a7d5a38785c23c4c8a18a7e31153885bc539368064e6a60405160405180910390a45050565b610c40610da0565b610cb2576040517f08c379a00000000000000000000000000000000000000000000000000000000081526004018080602001828103825260208152602001807f4f776e61626c653a2063616c6c6572206973206e6f7420746865206f776e657281525060200191505060405180910390fd5b600073ffffffffffffffffffffffffffffffffffffffff166000809054906101000a900473ffffffffffffffffffffffffffffffffffffffff1673ffffffffffffffffffffffffffffffffffffffff167f8be0079c531659141344cd1fd0a4f28419497f9722a3daafe3b4186f6b6457e060405160405180910390a360008060006101000a81548173ffffffffffffffffffffffffffffffffffffffff021916908373ffffffffffffffffffffffffffffffffffffffff160217905550565b60025481565b60008060009054906101000a900473ffffffffffffffffffffffffffffffffffffffff16905090565b60008060009054906101000a900473ffffffffffffffffffffffffffffffffffffffff1673ffffffffffffffffffffffffffffffffffffffff16610de2610ff2565b73ffffffffffffffffffffffffffffffffffffffff1614905090565b60035481565b610e0c610da0565b610e7e576040517f08c379a00000000000000000000000000000000000000000000000000000000081526004018080602001828103825260208152602001807f4f776e61626c653a2063616c6c6572206973206e6f7420746865206f776e657281525060200191505060405180910390fd5b610e8781610ffa565b50565b60056020528060005260406000206000915090508060030154905081565b600080828401905083811015610f26576040517f08c379a000000000000000000000000000000000000000000000000000000000815260040180806020018281038252601b8152602001807f536166654d6174683a206164646974696f6e206f766572666c6f77000000000081525060200191505060405180910390fd5b8091505092915050565b60006009424443406040516020018084815260200183815260200182815260200193505050506040516020818303038152906040528051906020012060001c81610f7657fe5b06905090565b600080821415610fd7576040517f08c379a00000000000000000000000000000000000000000000000000000000081526004018080602001828103825260278152602001806112756027913960400191505060405180910390fd5b610fea828461113e90919063ffffffff16565b905092915050565b600033905090565b600073ffffffffffffffffffffffffffffffffffffffff168173ffffffffffffffffffffffffffffffffffffffff161415611080576040517f08c379a000000000000000000000000000000000000000000000000000000000815260040180806020018281038252602681526020018061124f6026913960400191505060405180910390fd5b8073ffffffffffffffffffffffffffffffffffffffff166000809054906101000a900473ffffffffffffffffffffffffffffffffffffffff1673ffffffffffffffffffffffffffffffffffffffff167f8be0079c531659141344cd1fd0a4f28419497f9722a3daafe3b4186f6b6457e060405160405180910390a3806000806101000a81548173ffffffffffffffffffffffffffffffffffffffff021916908373ffffffffffffffffffffffffffffffffffffffff16021790555050565b600061118083836040518060400160405280601a81526020017f536166654d6174683a206469766973696f6e206279207a65726f000000000000815250611188565b905092915050565b60008083118290611234576040517f08c379a00000000000000000000000000000000000000000000000000000000081526004018080602001828103825283818151815260200191508051906020019080838360005b838110156111f95780820151818401526020810190506111de565b50505050905090810190601f1680156112265780820380516001836020036101000a031916815260200191505b509250505060405180910390fd5b50600083858161124057fe5b04905080915050939250505056fe4f776e61626c653a206e6577206f776e657220697320746865207a65726f206164647265737357696e6e65727320616d6f756e742063616e206e6f7420626520657175616c20746f207a65726f5468657265206973206e6f20706c61636520666f72206f6e65206d6f726520626574a265627a7a72315820536be1bb91693a4706b5845974074a51db9eb3ed6b7049648a97060b606c442764736f6c63430005100032",
  "source": "pragma solidity >=0.4.21 <0.7.0;\n\nimport \"@openzeppelin/contracts/math/SafeMath.sol\";\nimport \"@openzeppelin/contracts/ownership/Ownable.sol\";\n\ncontract E_loto is Ownable {\n    using SafeMath for uint256;\n\n    uint256 public constant gameInterval = 10;\n\n    uint256 public contractBounty;\n    uint256 public scheduledBlock;\n    bytes32 public gameId;\n\n    struct Game {\n        mapping(address => bool) isAlreadyBet;\n        Staker[] stakers;\n        address[] winners;\n        uint256 stakesTotal;\n    }\n\n    struct Staker {\n        address account;\n        uint8 bet;\n    }\n\n    mapping(address => uint256) public balances;\n    mapping(bytes32 => Game) public games;\n\n    event PlaceStake(address indexed _staker, uint8 indexed _bet);\n    event DetermineWinningNumber(\n        uint8 indexed _winningNumber,\n        uint256 indexed _scheduledBlock,\n        bytes32 indexed _nextGameId\n    );\n\n    modifier onlyValidBet(uint8 _bet) {\n        require(_bet < 10, \"Bet is'n valid\");\n        _;\n    }\n\n    constructor() public {\n        scheduledBlock = block.number.add(gameInterval);\n    }\n\n    function placeStake(uint8 _bet) public payable onlyValidBet(_bet) {\n        require(\n            block.number < scheduledBlock,\n            \"There is no place for one more bet\"\n        );\n        require(\n            msg.value == 15000000000000000,\n            \"Stake must be equal 0.015 ether\"\n        );\n\n        Game storage game = games[gameId];\n\n        require(\n            !game.isAlreadyBet[msg.sender],\n            \"You have already placed your bet\"\n        );\n\n        game.isAlreadyBet[msg.sender] = true;\n        game.stakesTotal = game.stakesTotal.add(msg.value);\n        game.stakers.push(Staker(msg.sender, _bet));\n        emit PlaceStake(msg.sender, _bet);\n    }\n\n    function determineWinners() public {\n        require(block.number >= scheduledBlock, \"Game is not end\");\n\n        Game storage game = games[gameId];\n        uint8 winningNumber = generateWinningMumber();\n\n        for (uint256 i = 0; i < game.stakers.length; i++) {\n            if (game.stakers[i].bet == winningNumber) {\n                game.winners.push(game.stakers[i].account);\n            }\n        }\n\n        if (game.winners.length > 0) {\n            uint256 rewardAmount = determineRewardAmount(\n                game.stakesTotal,\n                game.winners.length\n            );\n\n            for (uint256 j = 0; j < game.winners.length; j++) {\n                balances[game.winners[j]] = rewardAmount;\n            }\n        } else {\n            contractBounty = contractBounty.add(game.stakesTotal);\n        }\n\n        scheduledBlock = block.number.add(gameInterval);\n        gameId = keccak256(abi.encodePacked(scheduledBlock));\n        emit DetermineWinningNumber(winningNumber, scheduledBlock, gameId);\n    }\n\n    function determineRewardAmount(uint256 _stakesTotal, uint256 _winnersAmount)\n        private\n        pure\n        returns (uint256)\n    {\n        require(_winnersAmount != 0, \"Winners amount can not be equal to zero\");\n        return _stakesTotal.div(_winnersAmount);\n    }\n\n    // TODO: find more secure way to generate random number\n    function generateWinningMumber() private view returns (uint8) {\n        return\n            uint8(\n                uint256(\n                    keccak256(\n                        abi.encodePacked(\n                            block.timestamp,\n                            block.difficulty,\n                            blockhash(block.number)\n                        )\n                    )\n                ) %\n                    9\n            );\n    }\n\n    function withdraw() public {\n        uint256 amount = balances[msg.sender];\n        balances[msg.sender] = 0;\n        msg.sender.transfer(amount);\n    }\n\n    function withdrawBounty() public onlyOwner {\n        uint256 amount = contractBounty;\n        contractBounty = 0;\n        address(uint160(owner())).transfer(amount);\n    }\n}\n",
  "sourcePath": "/Users/denis/Documents/_Workspace/e-loto/truffle/contracts/E_loto.sol",
  "compiler": {
    "name": "solc",
    "version": "0.5.16+commit.9c3226ce.Emscripten.clang"
  },
  "schemaVersion": "3.0.22",
  "updatedAt": "2020-02-26T19:54:28.448Z",
  "networkType": "ethereum",
  "devdoc": {
    "methods": {
      "isOwner()": {
        "details": "Returns true if the caller is the current owner."
      },
      "owner()": {
        "details": "Returns the address of the current owner."
      },
      "renounceOwnership()": {
        "details": "Leaves the contract without owner. It will not be possible to call `onlyOwner` functions anymore. Can only be called by the current owner.     * NOTE: Renouncing ownership will leave the contract without an owner, thereby removing any functionality that is only available to the owner."
      },
      "transferOwnership(address)": {
        "details": "Transfers ownership of the contract to a new account (`newOwner`). Can only be called by the current owner."
      }
    }
  },
  "userdoc": {
    "methods": {}
  }
}