{
  "contractName": "E_loto",
  "abi": [
    {
      "inputs": [],
      "payable": false,
      "stateMutability": "nonpayable",
      "type": "constructor"
    },
    {
      "constant": true,
      "inputs": [
        {
          "internalType": "bytes32",
          "name": "",
          "type": "bytes32"
        }
      ],
      "name": "games",
      "outputs": [
        {
          "internalType": "bool",
          "name": "isActive",
          "type": "bool"
        },
        {
          "internalType": "uint256",
          "name": "counter",
          "type": "uint256"
        },
        {
          "internalType": "uint256",
          "name": "stakesTotal",
          "type": "uint256"
        }
      ],
      "payable": false,
      "stateMutability": "view",
      "type": "function"
    },
    {
      "constant": false,
      "inputs": [
        {
          "internalType": "bytes1",
          "name": "_bet",
          "type": "bytes1"
        },
        {
          "internalType": "bytes32",
          "name": "_gameId",
          "type": "bytes32"
        }
      ],
      "name": "placeStake",
      "outputs": [],
      "payable": true,
      "stateMutability": "payable",
      "type": "function"
    },
    {
      "constant": true,
      "inputs": [
        {
          "internalType": "bytes1",
          "name": "_gameId",
          "type": "bytes1"
        }
      ],
      "name": "getStake",
      "outputs": [
        {
          "internalType": "bytes1",
          "name": "",
          "type": "bytes1"
        }
      ],
      "payable": false,
      "stateMutability": "view",
      "type": "function"
    }
  ],
  "bytecode": "0x6080604052604160f81b6000806101000a81548160ff021916908360f81c0217905550604260f81b600060016101000a81548160ff021916908360f81c0217905550604360f81b600060026101000a81548160ff021916908360f81c0217905550604460f81b600060036101000a81548160ff021916908360f81c0217905550604560f81b600060046101000a81548160ff021916908360f81c0217905550604660f81b600060056101000a81548160ff021916908360f81c0217905550603060f81b600060066101000a81548160ff021916908360f81c0217905550603160f81b600060076101000a81548160ff021916908360f81c0217905550603260f81b600060086101000a81548160ff021916908360f81c0217905550603360f81b600060096101000a81548160ff021916908360f81c0217905550603460f81b6000600a6101000a81548160ff021916908360f81c0217905550603560f81b6000600b6101000a81548160ff021916908360f81c0217905550603660f81b6000600c6101000a81548160ff021916908360f81c0217905550603760f81b6000600d6101000a81548160ff021916908360f81c0217905550603860f81b6000600e6101000a81548160ff021916908360f81c0217905550603960f81b6000600f6101000a81548160ff021916908360f81c02179055503480156101ff57600080fd5b50610b0d8061020f6000396000f3fe6080604052600436106100345760003560e01c80637754223914610039578063c53d8cbc14610093578063f579f88214610148575b600080fd5b6100916004803603604081101561004f57600080fd5b8101908080357effffffffffffffffffffffffffffffffffffffffffffffffffffffffffffff19169060200190929190803590602001909291905050506101a9565b005b34801561009f57600080fd5b506100ee600480360360208110156100b657600080fd5b8101908080357effffffffffffffffffffffffffffffffffffffffffffffffffffffffffffff19169060200190929190505050610a10565b60405180827effffffffffffffffffffffffffffffffffffffffffffffffffffffffffffff19167effffffffffffffffffffffffffffffffffffffffffffffffffffffffffffff1916815260200191505060405180910390f35b34801561015457600080fd5b506101816004803603602081101561016b57600080fd5b8101908080359060200190929190505050610aa1565b6040518084151515158152602001838152602001828152602001935050505060405180910390f35b81600060069054906101000a900460f81b7effffffffffffffffffffffffffffffffffffffffffffffffffffffffffffff1916817effffffffffffffffffffffffffffffffffffffffffffffffffffffffffffff1916148061025d5750600060079054906101000a900460f81b7effffffffffffffffffffffffffffffffffffffffffffffffffffffffffffff1916817effffffffffffffffffffffffffffffffffffffffffffffffffffffffffffff1916145b806102ba5750600060089054906101000a900460f81b7effffffffffffffffffffffffffffffffffffffffffffffffffffffffffffff1916817effffffffffffffffffffffffffffffffffffffffffffffffffffffffffffff1916145b806103175750600060099054906101000a900460f81b7effffffffffffffffffffffffffffffffffffffffffffffffffffffffffffff1916817effffffffffffffffffffffffffffffffffffffffffffffffffffffffffffff1916145b8061037457506000600a9054906101000a900460f81b7effffffffffffffffffffffffffffffffffffffffffffffffffffffffffffff1916817effffffffffffffffffffffffffffffffffffffffffffffffffffffffffffff1916145b806103d157506000600b9054906101000a900460f81b7effffffffffffffffffffffffffffffffffffffffffffffffffffffffffffff1916817effffffffffffffffffffffffffffffffffffffffffffffffffffffffffffff1916145b8061042e57506000600c9054906101000a900460f81b7effffffffffffffffffffffffffffffffffffffffffffffffffffffffffffff1916817effffffffffffffffffffffffffffffffffffffffffffffffffffffffffffff1916145b8061048b57506000600d9054906101000a900460f81b7effffffffffffffffffffffffffffffffffffffffffffffffffffffffffffff1916817effffffffffffffffffffffffffffffffffffffffffffffffffffffffffffff1916145b806104e857506000600e9054906101000a900460f81b7effffffffffffffffffffffffffffffffffffffffffffffffffffffffffffff1916817effffffffffffffffffffffffffffffffffffffffffffffffffffffffffffff1916145b8061054557506000600f9054906101000a900460f81b7effffffffffffffffffffffffffffffffffffffffffffffffffffffffffffff1916817effffffffffffffffffffffffffffffffffffffffffffffffffffffffffffff1916145b806105a157506000809054906101000a900460f81b7effffffffffffffffffffffffffffffffffffffffffffffffffffffffffffff1916817effffffffffffffffffffffffffffffffffffffffffffffffffffffffffffff1916145b806105fe5750600060029054906101000a900460f81b7effffffffffffffffffffffffffffffffffffffffffffffffffffffffffffff1916817effffffffffffffffffffffffffffffffffffffffffffffffffffffffffffff1916145b8061065b5750600060039054906101000a900460f81b7effffffffffffffffffffffffffffffffffffffffffffffffffffffffffffff1916817effffffffffffffffffffffffffffffffffffffffffffffffffffffffffffff1916145b806106b85750600060049054906101000a900460f81b7effffffffffffffffffffffffffffffffffffffffffffffffffffffffffffff1916817effffffffffffffffffffffffffffffffffffffffffffffffffffffffffffff1916145b806107155750600060059054906101000a900460f81b7effffffffffffffffffffffffffffffffffffffffffffffffffffffffffffff1916817effffffffffffffffffffffffffffffffffffffffffffffffffffffffffffff1916145b610787576040517f08c379a000000000000000000000000000000000000000000000000000000000815260040180806020018281038252600e8152602001807f426574206973276e2076616c696400000000000000000000000000000000000081525060200191505060405180910390fd5b6000600160008481526020019081526020016000209050600a816001015410610818576040517f08c379a00000000000000000000000000000000000000000000000000000000081526004018080602001828103825260138152602001807f4e6f207374616b657320617661696c61626c650000000000000000000000000081525060200191505060405180910390fd5b66354a6ba7a180003414610894576040517f08c379a000000000000000000000000000000000000000000000000000000000815260040180806020018281038252601f8152602001807f5374616b65206d75737420626520657175616c20302e3031352065746865720081525060200191505060405180910390fd5b60008160030160003373ffffffffffffffffffffffffffffffffffffffff1673ffffffffffffffffffffffffffffffffffffffff168152602001908152602001600020541461094b576040517f08c379a00000000000000000000000000000000000000000000000000000000081526004018080602001828103825260208152602001807f596f75206861766520616c726561647920706c6163656420796f75722062657481525060200191505060405180910390fd5b348160030160003373ffffffffffffffffffffffffffffffffffffffff1673ffffffffffffffffffffffffffffffffffffffff16815260200190815260200160002081905550838160040160003373ffffffffffffffffffffffffffffffffffffffff1673ffffffffffffffffffffffffffffffffffffffff16815260200190815260200160002060006101000a81548160ff021916908360f81c02179055506001816001015401816001018190555034816002015401816002018190555050505050565b60008060016000847effffffffffffffffffffffffffffffffffffffffffffffffffffffffffffff1916815260200190815260200160002090508060040160003373ffffffffffffffffffffffffffffffffffffffff1673ffffffffffffffffffffffffffffffffffffffff16815260200190815260200160002060009054906101000a900460f81b915050919050565b60016020528060005260406000206000915090508060000160009054906101000a900460ff1690806001015490806002015490508356fea265627a7a72315820e19c4f17ff15171d0adcb667343af1438cac1629a69ef5977d416f3f871c81b164736f6c63430005100032",
  "source": "pragma solidity >=0.4.21 <0.7.0;\n\ncontract E_loto {\n    constructor() public {}\n\n    bytes1 A = 0x41;\n    bytes1 B = 0x42;\n    bytes1 C = 0x43;\n    bytes1 D = 0x44;\n    bytes1 E = 0x45;\n    bytes1 F = 0x46;\n    bytes1 zero = 0x30;\n    bytes1 one = 0x31;\n    bytes1 two = 0x32;\n    bytes1 three = 0x33;\n    bytes1 four = 0x34;\n    bytes1 five = 0x35;\n    bytes1 six = 0x36;\n    bytes1 seven = 0x37;\n    bytes1 eight = 0x38;\n    bytes1 nine = 0x39;\n\n    struct Game {\n        bool isActive;\n        uint256 counter;\n        uint256 stakesTotal;\n        mapping(address => uint256) stakes;\n        mapping(address => bytes1) bets;\n    }\n\n    mapping(bytes32 => Game) public games;\n\n    modifier onlyValidBet(bytes1 _bet) {\n        require(\n            _bet == zero ||\n                _bet == one ||\n                _bet == two ||\n                _bet == three ||\n                _bet == four ||\n                _bet == five ||\n                _bet == six ||\n                _bet == seven ||\n                _bet == eight ||\n                _bet == nine ||\n                _bet == A ||\n                _bet == C ||\n                _bet == D ||\n                _bet == E ||\n                _bet == F,\n            \"Bet is'n valid\"\n        );\n        _;\n    }\n\n    function placeStake(bytes1 _bet, bytes32 _gameId)\n        public\n        payable\n        onlyValidBet(_bet)\n    {\n        Game storage currentGame = games[_gameId];\n\n        // require(currentGame.isActive, \"Game id doesn't exist\");\n        require(currentGame.counter < 10, \"No stakes available\");\n        require(msg.value == 0.015 ether, \"Stake must be equal 0.015 ether\");\n        require(\n            currentGame.stakes[msg.sender] == 0,\n            \"You have already placed your bet\"\n        );\n\n        currentGame.stakes[msg.sender] = msg.value;\n        currentGame.bets[msg.sender] = _bet;\n        currentGame.counter = currentGame.counter + 1;\n        currentGame.stakesTotal = currentGame.stakesTotal + msg.value;\n    }\n\n    function getStake(bytes1 _gameId) public view returns (bytes1) {\n        Game storage currentGame = games[_gameId];\n        return currentGame.bets[msg.sender];\n    }\n}\n",
  "sourcePath": "/Users/denis/Documents/_Workspace/e-loto/truffle/contracts/E_loto.sol",
  "compiler": {
    "name": "solc",
    "version": "0.5.16+commit.9c3226ce.Emscripten.clang"
  },
  "schemaVersion": "3.0.22",
  "updatedAt": "2020-02-17T11:58:39.979Z",
  "networkType": "ethereum",
  "devdoc": {
    "methods": {}
  },
  "userdoc": {
    "methods": {}
  }
}